:100000000C9463000C94280E0C944F0E0C948B00EF
:100010000C948B000C948B000C948B000C948B0034
:100020000C948B000C948B000C948B000C948B0024
:100030000C948B000C948B000C948B000C948B0014
:100040000C941C0D0C948B000C94A00E0C94D20EEE
:100050000C948B000C948B000C948B000C948B00F4
:100060000C948B000C948B0000000008000201002F
:100070000003040700000000000000000102040863
:100080001020408001020408102001020408102002
:10009000040404040404040402020202020203032E
:1000A00003030303000000002300260029000000D2
:1000B0000000250028002B0000000000240027007D
:1000C0002A00220EF80E11241FBECFEFD8E0DEBFAB
:1000D000CDBF12E0A0E0B1E0EAE0F1E202C005909D
:1000E0000D92AA3BB107D9F726E0AAEBB2E001C016
:1000F0001D92A23FB207E1F710E0C3E6D0E004C0D2
:100100002197FE010E947D10C136D107C9F70E94D8
:10011000130E0C9458100C940000E4E10E9442016C
:100120000895E2E10E9442010895EAE00E9442013E
:100130000895E1E00E9442010895E3E00E94420137
:100140000895E7E00E9442010895E5E00E9442011F
:100150000895E0E00E9442010895E2E00E94420119
:100160000895E4E00E9442010895ECE00E944201FB
:100170000895EBE10E9442010895EEE00E944201E1
:100180000895E8E00E9442010895E0E10E944201E2
:100190000895EAE10E9442010895E6E00E944201CA
:1001A0000895E8E10E9442010895E9E00E944201B9
:1001B0000895EBE00E9442010895EDE00E944201A3
:1001C0000895EFE00E9442010895E1E10E9442019A
:1001D0000895E3E10E9442010895E5E10E94420191
:1001E0000895E7E10E9442010895E9E10E94420179
:1001F0000895E6E10E944201089521968A929A921A
:10020000AA92BA92CA92DA92EA92FA920A931A934C
:100210002197E0916B01F0916C010080F181E02D5C
:10022000C083D1830895C0916D01D0916E01E881A2
:10023000F981C081D181219619910991F990E990B4
:10024000D990C990B990A9909990899021970895D3
:100250002F903F90E7E6F1E0CDB7DEB7EDBFFEBFF0
:100260003F922F9208952F903F90CDBFDEBF3F92D7
:100270002F920895E0E80E9442010895E0E40E9470
:10028000420108952F923F924F925F926F927F9218
:100290002FB62F92CF93DF937E2EF894E09100013A
:1002A000EF5FE0930001E13011F40E942801E0E0EB
:1002B000E0937B01E72DE07849F00E94A605F091DC
:1002C0007C01F17071F00E944F040BC0E72DEC31FE
:1002D00040F4EE0FF0E0E059FD4F0190F081E02D89
:1002E0000995F0917B01EF2FE17059F0F27011F058
:1002F0000E94FD008F938F2F0E9497038F910E9481
:10030000130120910001215020930001222311F4B8
:100310000E943301DF91CF912F902FBE7F906F907D
:100320005F904F903F902F900895CF92DF92EF9281
:10033000FF920F931F93DC01EC91DB012C918E2F28
:100340008170C82ED12CE12CF12C8E2F8F7090E073
:10035000A0E0B0E0B695A79597958795DC01A552EA
:10036000BD4F8C91C81AD108E108F108EE70422FF8
:10037000417050E060E070E0822F8F7090E0A0E06C
:10038000B0E0B695A79597958795DC01A552BD4F2E
:100390008C91481B510961097109822F8E70970158
:1003A000860101701127222733270E2B4170552714
:1003B00066277727482B81E090E00417150726076A
:1003C000370710F080E090E01F910F91FF90EF90C1
:1003D000DF90CF9008958F929F92AF92BF92EF924D
:1003E000FF920F931F93CF93DF937C014A015B0130
:1003F000B694A7949794879442305105610571058E
:10040000E0F0440F551F8701040F151FE401CC0FC6
:10041000DD1FCE0DDF1DB801CE010E949501892B95
:1004200061F0F801908181812881398131832083B5
:1004300098838983B501A401DBCFDF91CF911F9110
:100440000F91FF90EF90BF90AF909F908F90089585
:100450004F925F926F927F928F929F92AF92BF92D4
:10046000CF92DF92EF92FF920F931F93CF93DF9380
:1004700000D000D000D0CDB7DEB78C016A017B017F
:10048000DC018C91282F30E040E050E029833A8352
:100490004B835C8346015701880C991CAA1CBB1C2A
:1004A00029813A814B815C81281539054A055B0514
:1004B00008F442C0240135013FEF431A530A630A8E
:1004C000730A89819A81AB81BC8184159505A60543
:1004D000B70580F0B201660F771F600F711FC4016E
:1004E000880F991F800F911F0E949501892B11F091
:1004F000530142013401660C771C600E711ECC0C56
:10050000DD1CD801AC0DBD1DBE83AD83B301CD0193
:100510000E949501892B81F0ED81FE81908181817E
:10052000D3012D913C911197318320839C93119697
:100530008C9375016401AECF26960FB6F894DEBF9A
:100540000FBECDBFDF91CF911F910F91FF90EF9024
:10055000DF90CF90BF90AF909F908F907F906F90E3
:100560005F904F900895E2E9F4E040814F5F40834F
:1005700050E060E070E0E82FEE0FFF0BE05EFD4F13
:100580000190F081E02D238530E0F901E552FD4F27
:10059000908191509083FA01EE0FFF1FEE56FB4FB2
:1005A000220F331F9170292B2083818382E994E0ED
:1005B0000C94EB01E2E9F4E040814F5F408350E0AE
:1005C00060E070E0E82FEE0FFF0BE85EFD4F01905A
:1005D000F081E02D9381FA01EE0FFF1FEE56FB4FE5
:1005E0009083818382E994E00C94EB01CF93DF93B5
:1005F000E2E9F4E080819FEF980F9083D281C3817C
:1006000090E0880F991FDC01AE56BB4F8D919C91F5
:100610009383828341E050E060E070E0CF010E946C
:1006200028028D2F9C2FDF91CF9108958091BA02DF
:10063000811114C08091730190917401A091750192
:10064000B09176018F3F2FEF9207A207B20741F0DA
:100650000397A105B10534F481E0089584E008957D
:1006600080E0089582E00895880F990BFC01E05E18
:10067000FD4F0190F081E02D0084F185E02D309751
:10068000E9F0228121111AC021E02283DC01A85E59
:10069000BD4F0D90BC91A02D13968C911397818323
:1006A000808190E0FC01E552FD4F208121502083A4
:1006B000880F991F2170822B13968C930895880FB1
:1006C000990BFC01E05EFD4F0190F081E02D00846C
:1006D000F185E02D309761F02281213049F41282BA
:1006E0002181FC01E85EFD4F0190F081E02D238324
:1006F00008958091770190917801A0917901B0914E
:100700007A0140917301509174016091750170916B
:100710007601481759076A077B0741F0E09171019C
:10072000F091720121E024830C94DA020895CF93B2
:10073000DF93882391F0C0916B01D0916C01E0911F
:100740006F01F09170018481833049F081E08483EE
:10075000809173010E94DA0202C0C0E0D0E0E09113
:100760007101F0917201F0937001E0936F0180913B
:100770006D0190916E0190936C0180936B0180915B
:100780007701309178012091790190917A018093DD
:10079000730130937401209375019093760192E078
:1007A00094830E943403CE01DF91CF91089580910C
:1007B00073010E945F03E0916F01F09170018281EB
:1007C000882319F085E08483089514820895CF93D7
:1007D000DF93282F220F330BF901E85EFD4FC08114
:1007E000D1819A81F901E05EFD4F0190F081E02D09
:1007F0002485921770F4911105C095E09C8391E0D7
:1008000090937C010E94B3028A818F5F8A8380E08B
:1008100001C084E0DF91CF910895E82FEE0FFF0B28
:10082000E85EFD4F0190F081E02D118210820C9462
:10083000CD0D1F93CF93DF930E94F602182F892FBF
:10084000492F092E000C550B660B770B409377014F
:10085000509378016093790170937A01292F220FC8
:10086000330BF901E85EFD4FC081D181D093720155
:10087000C0937101F901E05EFD4F20813181309319
:100880006E0120936D019C81953019F40E940D0436
:100890001B8310927C01DF91CF911F910895E0910D
:1008A0007701F0917801EE0FFF1FE85EFD4F019098
:1008B000F081E02D909194048381891730F40E9497
:1008C00079030E94190483E001C080E080937B01DA
:1008D000089581E080937B010C941904EF92FF92BC
:1008E0000F931F93CF93DF93C1E0D0E001C0CC0FF3
:1008F0008A95EAF70C2F83E00E94E7038CE6E82E46
:1009000082E0F82E10E0F70181917F01802319F039
:10091000812F0E94E7031F5F1330A9F780916A02BD
:100920008C2349F0809102029091030221E0FC01A6
:1009300026870E94DF0480916B02C82379F08091A2
:1009400004029091050221E0FC012687DF91CF91FE
:100950001F910F91FF90EF900C94DF04DF91CF91E6
:100960001F910F91FF90EF9008950E942D07811124
:100970000E944E07E0916F01F0917001808191819A
:10098000892B21F0809173010E9415090C9476083F
:100990000E942D0781110E944E07E0916F01F09196
:1009A000700180819181892B21F0809173010E94D7
:1009B00015090C945E0881E08093BB020895AF9204
:1009C000BF92CF92DF92EF92FF920F931F93CF933C
:1009D000DF93FC01A081B181AD90BC90E501AC89B1
:1009E000BD89109739F0428553856485758530E05F
:1009F00020E017C0D50155969C938E935497579637
:100A00009C938E93569715821482138212825BC038
:100A100012968D919C9113973A2F2B2F009779F076
:100A2000DC011A96CD90DD90ED90FC901D974C1551
:100A30005D056E057F0560F7CD01A32FB22F93836F
:100A40008283B583A483009719F0EC01FD83EC83C6
:100A5000109729F01396FC93EE93129705C0D501D9
:100A60005596FC93EE935497E501AE89BF891A968B
:100A70008D919D910D90BC91A02D088919892A898D
:100A80003B8980179107A207B30780F40417150765
:100A90002607370728F0481759076A077B0798F495
:100AA000D5015796FC93EE9356970DC00417150782
:100AB0002607370740F4481759076A077B0718F4D9
:100AC000E501FF8BEE8BDF91CF911F910F91FF908E
:100AD000EF90DF90CF90BF90AF900895CF93DF93CA
:100AE000DC01ED91FC9111970190F081E02D84895A
:100AF00095891296CD91DC911397A817B90711F437
:100B0000D58BC48B86899789A817B90711F4D78B21
:100B1000C68B209731F014968D919C9115979D83EB
:100B20008C8314960D90BC91A02D109721F01396F4
:100B3000DC93CE93129786899789892B21F4848937
:100B40009589978B868BDF91CF910895EF92FF92D5
:100B50000F931F93CF93DF93FC018091BB028823F7
:100B600009F4B5C084859585A685B7850196A11D34
:100B7000B11D84879587A687B7874081518162819F
:100B8000738184179507A607B70709F0A0C04089AD
:100B90005189628973894F5F5F4F6F4F7F4F8481A7
:100BA0009581A681B78184179507A607B70718F422
:100BB00040E050E0BA01408B518B628B738B1486FE
:100BC000158616861786C689D789209709F47FC0AF
:100BD0008A859B85AC85BD85481759076A077B07C1
:100BE00009F075C0CE01DC011296ED90FC901397D0
:100BF000E114F10471F0D7011A960D911D912D9118
:100C00003C911D97401751076207730711F4C70104
:100C1000EACF2C813D812115310529F0D9011396A8
:100C2000FC92EE921297E114F10429F0D701159687
:100C30003C932E93149724893589C217D30711F456
:100C4000F58AE48AE114F10419F0F78AE68A04C00F
:100C500024893589378B268B8F01FC011382128200
:100C6000EA80FB80E881F9810280F381E02DCE01EA
:100C700009954E815F81688579854115510561052A
:100C8000710509F18A859B85AC85BD85840F951F0B
:100C9000A61FB71FF80144815581668177814817E7
:100CA00059076A077B0738F4841B950BA60BB70B13
:100CB0000197A109B1098A879B87AC87BD87CE01BF
:100CC0000E94DF0401C01E86E701209749F6DF91EC
:100CD000CF911F910F91FF90EF900895FC018281B9
:100CE0000C94E703FB014485A285B385FC01042E27
:100CF000000C550B9A012E1B3F0B280F391F1216A3
:100D000013061CF42D912193F5CF80E00895DA01AC
:100D1000109749F0ED91FC911197309721F0AB01BC
:100D2000BC01CD01099481E00895EF92FF920F93E9
:100D30001F93CF937B01DC0112960D911C911397A9
:100D400001151105F1F0D8011496ED91FC9115975C
:100D5000B701C8010995C82F81110AC0F801808127
:100D60009181009741F0DC01ED91FC91099503C060
:100D70008E3009F4C0E0F80102811381CC2301F325
:100D800001C0C0E080E00E94FA068C2FCF911F9135
:100D90000F91FF90EF900895EF92FF920F931F93A2
:100DA000CF93DF938C017B01FC01C285D385408505
:100DB0005185CE010E9487068823A1F0F801248581
:100DC000F701DE01022E000C330BC9018A1B9B0BBD
:100DD0008C0F9D1F181619061CF481918D93F5CF69
:100DE00080E001C08EE0DF91CF911F910F91FF90C5
:100DF000EF90089580917C0181110C944F04089527
:100E0000DC01ED91FC9111972081222341F0218199
:100E100014968D919C911597820F911D089580E0F5
:100E200090E008950E942D078091680108958093B5
:100E300068010E946E040E94DB040C9469040C9407
:100E4000CC0DCF93C82F0E941603811102C00E94BF
:100E5000090E8C2FCF910C9491008091C8028130A3
:100E6000D9F08091C0029091C102A091C202B091CC
:100E7000C302892B8A2B8B2B79F481E04091C40229
:100E80005091C5026091C6027091C702452B462B56
:100E9000472B19F480E0089581E008951092C8026C
:100EA0001092C4021092C5021092C6021092C7029C
:100EB0001092C0021092C1021092C2021092C3029C
:100EC0008091BC029091BD02A091BE02B091BF0280
:100ED0008093C9029093CA02A093CB02B093CC0234
:100EE00008950E940C0E8091C9029091CA02A091AF
:100EF000CB02B091CC020196A11DB11D8093C90215
:100F00009093CA02A093CB02B093CC028091C4020A
:100F10009091C502A091C602B091C7020196A11D91
:100F2000B11D8093C4029093C502A093C602B093F2
:100F3000C70208958091C4029091C502A091C60293
:100F4000B091C7020097A105B10569F14091C902AE
:100F50005091CA026091CB027091CC02415051096C
:100F6000610971094093C9025093CA026093CB0290
:100F70007093CC020197A109B1098093C4029093A8
:100F8000C502A093C602B093C7028091C902909196
:100F9000CA02A091CB02B091CC02892B8A2B8B2B59
:100FA00011F40C940A0E08958091C4029091C50228
:100FB000A091C602B091C702892B8A2B8B2B89F492
:100FC0008091C0029091C102A091C202B091C3026F
:100FD000892B8A2B8B2B29F40E940C0E81E08093A5
:100FE000C80208958091C802882321F01092C80297
:100FF0000C940A0E08950E94100E8091C9029091DF
:10100000CA02A091CB02B091CC020196A11DB11DE4
:101010008093C9029093CA02A093CB02B093CC02F2
:101020008091C0029091C102A091C202B091C3020E
:101030000196A11DB11D8093C0029093C102A0939F
:10104000C202B093C30208958091C0029091C10280
:10105000A091C202B091C3020097A105B10569F148
:101060004091C9025091CA026091CB027091CC02AA
:1010700041505109610971094093C9025093CA0254
:101080006093CB027093CC020197A109B1098093C0
:10109000C0029093C102A093C202B093C302809198
:1010A000C9029091CA02A091CB02B091CC02892BC7
:1010B0008A2B8B2B11F40C940E0E08950E942D0791
:1010C000882311F083E1089580E00895CF93C82F1D
:1010D0000E942D078C2F0E94E703C82F80917C016E
:1010E00081110E944F048C2FCF910895CF930E94BD
:1010F0002D07882311F0C3E101C0C0E0E0916F012A
:10110000F09170018281815082830E94D70381E037
:1011100080937B010E9419048C2FCF910895CF9367
:10112000C82F0E942D07E0916F01F091700182811C
:10113000815082838C2F0E94E703C82F811108C041
:101140000E94D70381E080937B010E94190407C0AD
:10115000E0916F01F091700182818F5F82838C2F0B
:10116000CF910895CF930E942D07882311F0C3E1FA
:1011700001C0C0E0809173010E945F030E944F0490
:101180008091730190917401A0917501B0917601E5
:1011900040917701509178016091790170917A01C5
:1011A00084179507A607B70711F40E9434038C2F04
:1011B000CF910895CF93DF93EC010E942D078823F0
:1011C00011F083E101C080E04091730150917401FE
:1011D000609175017091760143305105610571058B
:1011E00014F4488303C09091D4019883DF91CF9188
:1011F00008950F931F93CF93C82F8B010E942D0743
:10120000882311F083E101C080E0EC2FEE0FFF0B8B
:10121000E85EFD4F0190F081E02D94819370F8011C
:101220009083CF911F910F910895880F990BFC0126
:10123000E85EFD4FA081B181ED91FC91119730974F
:1012400069F01D921C922091D401938184812283A4
:1012500014821382E92FF82F3097B9F70895CF93AE
:10126000C82F0E942D07882311F083E101C080E080
:10127000EC2FF0E0EE0FFF1FE05AFD4FA081B1818F
:101280009091730112969C931297E0916F01F091E7
:1012900070012081318114963C932E931397B18372
:1012A000A083938111969C9311972C91938196958D
:1012B000921760F430E0D901A552BD4F9C91915036
:1012C0009C93220F331F9170292B2383CF91089574
:1012D000CF93DF93C82F0E942D07882311F0D3E10D
:1012E00001C0D0E0EC2FF0E0EE0FFF1FE05AFD4F01
:1012F0000190F081E02DA0916F01B091700181818A
:1013000013968C931397838194818D939C9314826D
:1013100013828091D40182830E944F048D2FDF912C
:10132000CF910895DC01ED91FC9184819581DC01E0
:10133000ED91FC9109941F93CF93DF93182FEB014C
:101340000E942D07882311F083E101C080E0E12F86
:10135000F0E0EE0FFF1FEE5FFD4F0190F081E02DFA
:101360000190F081E02D0190F081E02D40815181CC
:10137000628173814C835D836E837F834481558159
:1013800066817781488359836A837B834085518551
:1013900062857385488759876A877B87DF91CF91FC
:1013A0001F9108958F929F92AF92BF92CF92DF923A
:1013B000EF92FF920F931F93CF93C82F8B010E9440
:1013C0002D07882311F083E101C080E0EC2FF0E0CD
:1013D000EE0FFF1FEE5FFD4F0190F081E02D96852F
:1013E000913029F542855385648575850190F0819A
:1013F000E02D0190F081E02DC088D188E288F3884B
:101400004C155D056E057F0540F484809580A680AF
:10141000B780480D591D6A1D7B1D4C195D096E0969
:101420007F09F801408351836283738301C085E0A3
:10143000CF911F910F91FF90EF90DF90CF90BF90D1
:10144000AF909F908F9008958F929F92AF92BF928E
:10145000CF92DF92EF92FF920F931F93CF93DF9380
:10146000D82F4A015B01680179010E942D0788236A
:1014700011F0C3E101C0C0E0ED2FF0E0EE0FFF1F5F
:10148000EE5FFD4F0190F081E02D8685811130C027
:10149000A081B1810D90BC91A02D50964D915D9190
:1014A0006D917C915397480D591D6A1D7B1D1496B3
:1014B0008D919D910D90BC91A02D84179507A60745
:1014C000B70740F4481B590B6A0B7B0B415051097D
:1014D000610971094287538764877587C682D782FD
:1014E000E086F18681E08687CF010E94DF0401C09B
:1014F000C7E08C2FDF91CF911F910F91FF90EF905C
:10150000DF90CF90BF90AF909F908F9008958F9273
:101510009F92AF92BF92CF92DF92EF92FF920F9382
:101520001F93CF93DF93C82F4A015B0168017901B4
:101530000E942D07882311F0D3E101C0D0E0EC2FE9
:10154000F0E0EE0FFF1FEE5FFD4F0190F081E02D08
:10155000868581110EC082869386A486B586C68252
:10156000D782E086F18681E08687CF010E94DF0482
:1015700001C0D7E08D2FDF91CF911F910F91FF9088
:10158000EF90DF90CF90BF90AF909F908F90089595
:101590000F931F93CF93DF93C82F0E942D078823AB
:1015A00011F0D3E101C0D0E0EC2FF0E0EE0FFF1F0F
:1015B000EE5FFD4F00811181F8018685813031F4A5
:1015C000C8010E946E05F801168601C0D5E08D2F76
:1015D000DF91CF911F910F910895CF93DF93880FE3
:1015E000991FFC01EF51FE4F0190F081E02D8585A0
:1015F000882369F0C285D385CF010A960E9400072F
:10160000892B39F08A81882331F08CE005C08AE08B
:1016100003C08DE001C080E0DF91CF910895880F75
:10162000991FFC01EB52FE4F80819181DC01ED910D
:10163000FC9109949B01880F991FFC01EF51FE4F0B
:1016400060817181DB011696ED91FC911797C901BC
:101650000994880F991FFC01EB52FE4F8081918104
:10166000DC01ED91FC9160E070E0099580E0089567
:1016700060E08EE00E94880C62E08CE00E94880CA2
:1016800061E08DE00E94880C26E040E855E260E0D1
:1016900070E083EF92E00C94F30F8EE00E94AE0DA9
:1016A0009093DA028093D9028CE00E94F30C892B8C
:1016B00091F48091D7029091D80201969093D8022C
:1016C0008093D7020A977CF081E090E09093D60255
:1016D0008093D50208C01092D8021092D7021092BF
:1016E000D6021092D5028091D50220E030E0382F4A
:1016F0003295307F8091D9029091DA02822B932B20
:101700009093D4028093D30263ED72E080916402DF
:10171000909165020E94ED000C94B900CF93DF9385
:1017200000D0CDB7DEB7BE016F5F7F4F80916802FA
:10173000909169020E94F10029813A81C901937058
:10174000232F332722952F70232B21F090936A01AA
:10175000809369012091690130916A01821B930B8A
:1017600097FF03C09195819591092F3F3F4F19F441
:1017700083E090E012C0843691052CF41092D202DE
:101780001092D1020EC0845691098436910518F446
:1017900081E090E002C082E090E09093D2028093DA
:1017A000D10261ED72E080916202909163020E9429
:1017B000ED000E94B9000F900F90DF91CF91089536
:1017C000CF93DF9300D0CDB7DEB71A821982BE0166
:1017D0006F5F7F4F80916602909167020E94F100D7
:1017E00089819A81009711F460E03BC081309105B6
:1017F000F1F48091CF029091D0020497ACF1609106
:10180000CD028DE00E94C40C81E090E02091CD02D9
:101810003091CE02232B11F080E090E09093CE0225
:101820008093CD021092D0021092CF021DC0823060
:101830009105A1F46091CD028DE00E94C40C81E07D
:1018400090E02091CD023091CE02232B11F080E068
:1018500090E09093CE028093CD0206C0039721F4CE
:1018600061E08DE00E94C40C8091CF029091D00283
:1018700001969093D0028093CF020E94B9000F90FE
:101880000F90DF91CF9108950F931F9381E0FA019C
:101890000081118122813381FB014081518162816C
:1018A0007381041715072607370709F480E01F9195
:1018B0000F91089582EB91E00C943A0108958330E2
:1018C00081F028F4813099F08230A1F008958730BA
:1018D000A9F08830B9F08430D1F4809180008F7DF8
:1018E00003C0809180008F7780938000089584B535
:1018F0008F7702C084B58F7D84BD08958091B0003C
:101900008F7703C08091B0008F7D8093B0000895E1
:10191000CF93DF9390E0FC01E458FF4F2491FC014A
:10192000E057FF4F8491882361F190E0880F991F61
:10193000FC01E854FF4FC591D491FC01E255FF4FE3
:10194000A591B491611109C09FB7F8948881209541
:1019500082238883EC912E230BC0623061F49FB701
:10196000F8948881322F309583238883EC912E2B35
:101970002C939FBF06C08FB7F894E8812E2B288345
:101980008FBFDF91CF9108951F93CF93DF93282FBF
:1019900030E0F901E859FF4F8491F901E458FF4F15
:1019A000D491F901E057FF4FC491CC23C1F0162F19
:1019B00081110E945F0CEC2FF0E0EE0FFF1FE2554B
:1019C000FF4FA591B4919FB7F894111104C08C9169
:1019D000D095D82302C0EC91DE2BDC939FBFDF9122
:1019E000CF911F910895CF93DF93282F30E0F90115
:1019F000E859FF4F8491F901E458FF4FD491F90160
:101A0000E057FF4FC491CC2391F081110E945F0CED
:101A1000EC2FF0E0EE0FFF1FEC55FF4FA591B491B6
:101A2000EC91ED2381E090E021F480E002C080E0C1
:101A300090E0DF91CF9108951F920F920FB60F9211
:101A400011242F933F934F935F936F937F938F93C3
:101A50009F93AF93BF93EF93FF938091EA0290918E
:101A6000EB02A091EC02B091ED023091E90223E08B
:101A7000230F2D3720F40196A11DB11D05C026E8C6
:101A8000230F0296A11DB11D2093E9028093EA0263
:101A90009093EB02A093EC02B093ED028091EE02E2
:101AA0009091EF02A091F002B091F1020196A11D78
:101AB000B11D8093EE029093EF02A093F002B093D9
:101AC000F1020E945A0CFF91EF91BF91AF919F914B
:101AD0008F917F916F915F914F913F912F910F90D7
:101AE0000FBE0F901F90189584B5826084BD84B599
:101AF000816084BD85B5826085BD85B5816085BD09
:101B0000EEE6F0E0808181608083E1E8F0E0108221
:101B1000808182608083808181608083E0E8F0E062
:101B2000808181608083E1EBF0E08081846080834C
:101B3000E0EBF0E0808181608083EAE7F0E0808183
:101B400084608083808182608083808181608083E3
:101B50008081806880831092C10008958E3008F0E3
:101B60008E502091CF0190E4299F9001112487701D
:101B7000822B80937C0080917A00806480937A002D
:101B800080917A0086FDFCCF8091780020917900C9
:101B900090E0922B0895FFCFFFCFCF93DF93880F74
:101BA000990BFC01E05EFD4FC081D181AC81BD810C
:101BB00011978A819B81A80FB91F2D85CD010197AF
:101BC000FD013297223019F421EB30E002C02DECF8
:101BD00030E02C93DC013C939E818F819083DF0168
:101BE0008E93CF0107971E928A179B07E1F780E833
:101BF000DF0118978C93CF0144971E928A179B0799
:101C0000E1F7A881B9817597ED93FC93DF91CF91AE
:101C10000895089578940895F8940895789408950F
:101C2000F894089508950E94740D0E94120E0E9467
:101C30005E0C0E94380B8091F2020E94210780E026
:101C400090E0089580916F028093F20208950895C4
:101C50001F920F920FB60F9211242F933F934F9321
:101C60005F936F937F938F939F93AF93BF93EF9304
:101C7000FF93E091D001F091D1010995FF91EF918F
:101C8000BF91AF919F918F917F916F915F914F9194
:101C90003F912F910F900FBE0F901F9018951F929C
:101CA0000F920FB60F9211242F933F934F935F9390
:101CB0006F937F938F939F93AF93BF93EF93FF9314
:101CC000E091D201F091D3010995FF91EF91BF917D
:101CD000AF919F918F917F916F915F914F913F91C4
:101CE0002F910F900FBE0F901F901895CF92DF92FB
:101CF000EF92FF920F931F93CF93DF936C017A01C2
:101D00008B01C0E0D0E0CE15DF0581F0D8016D91E8
:101D10008D01D601ED91FC910190F081E02DC6017D
:101D20000995892B11F02196EECF7E01C701DF9135
:101D3000CF911F910F91FF90EF90DF90CF9008957A
:101D40001F920F920FB60F9211242F938F939F9390
:101D5000EF93FF93E0910303F09104038081E091FE
:101D60000903F0910A0382FD12C0908180910C0357
:101D70008F5F8F7320910D03821751F0E0910C0358
:101D8000F0E0ED50FD4F958F80930C0301C08081F2
:101D9000FF91EF919F918F912F910F900FBE0F9018
:101DA0001F9018951F920F920FB60F9211242F9328
:101DB0003F934F935F936F937F938F939F93AF93D3
:101DC000BF93EF93FF9383EF92E00E94620FFF9126
:101DD000EF91BF91AF919F918F917F916F915F91A3
:101DE0004F913F912F910F900FBE0F901F9018951C
:101DF000E3EFF2E01382128288EE93E0A0E0B0E01D
:101E000084839583A683B7838CEA92E09183808351
:101E100085EC90E09587848784EC90E097878687AF
:101E200080EC90E0918B808B81EC90E0938B828BA7
:101E300082EC90E0958B848B86EC90E0978B868B80
:101E4000118E128E138E148E0895FC01918D228DA9
:101E5000892F90E0805C9F4F821B91098F73992797
:101E60000895FC01918D828D981731F0828DE80FD5
:101E7000F11D858D90E008958FEF9FEF0895FC018F
:101E8000918D828D981761F0828DDF01A80FB11DB1
:101E90005D968C91928D9F5F9F73928F90E00895D5
:101EA0008FEF9FEF0895FC01538D448D252F30E077
:101EB000842F90E0821B930B541710F0CF96089557
:101EC00001970895FC01848DDF01A80FB11DA35A6D
:101ED000BF4F2C91848D90E001968F739927848F4A
:101EE000A689B7892C93A089B1898C91837080646D
:101EF0008C93938D848D981306C00288F389E02D0E
:101F000080818F7D80830895EF92FF920F931F93BE
:101F1000CF93DF93EC0181E0888F9B8D8C8D98139C
:101F200005C0E889F989808185FD26C0F62E0B8DD4
:101F300010E00F5F1F4F0F731127E02E8C8DE812FA
:101F40000CC00FB607FCFACFE889F989808185FFBC
:101F5000F5CFCE010E94620FF1CF8B8DFE01E80F0D
:101F6000F11DE35AFF4FF0829FB7F8940B8FEA8977
:101F7000FB89808180620AC09FB7F894EE89FF894F
:101F80006083E889F98980818370806480839FBF42
:101F900081E090E0DF91CF911F910F91FF90EF9042
:101FA0000895CF93DF93EC01888D8823C9F0EA89E7
:101FB000FB89808185FD05C0A889B9898C9186FD42
:101FC0000FC00FB607FCF5CF808185FFF2CFA8893F
:101FD000B9898C9185FFEDCFCE010E94620FE7CFCA
:101FE000DF91CF910895CF92DF92EF92FF921F93EE
:101FF000CF93DF93EC016A017B01122FE889F98905
:1020000082E080834115514E61057105B1F060E0B9
:1020100079E08DE390E0A70196010E945B10DA0160
:10202000C9010197A109B109B695A795979587951B
:102030009C01211580E13807A8F0E889F989108210
:1020400060E874E88EE190E0A70196010E945B10C1
:10205000DA01C9010197A109B109B695A79597952C
:1020600087959C01EC85FD853083EE85FF85208377
:10207000188EEC89FD891083EA89FB898081806153
:102080008083EA89FB89808188608083EA89FB8973
:10209000808180688083EA89FB8980818F7D80834D
:1020A000DF91CF911F91FF90EF90DF90CF90089537
:1020B000F8940C948310A1E21A2EAA1BBB1BFD01FD
:1020C0000DC0AA1FBB1FEE1FFF1FA217B307E40717
:1020D000F50720F0A21BB30BE40BF50B661F771F6F
:1020E000881F991F1A9469F760957095809590954F
:1020F0009B01AC01BD01CF010895EE0FFF1F0590BC
:0A210000F491E02D0994F894FFCF4C
:10210A0000000000000000000000000000000000C5
:10211A0000000000000000000000000000000000B5
:10212A0000000000000000000000000000000000A5
:10213A000000000000000000000000000000000095
:10214A000000000000000000000000000000000085
:10215A000000000000000000000000000000000075
:10216A000000000000000000FFFFFF000052020014
:10217A0000E402FFFFFFFFFFFFFFFF0000440CFF28
:10218A00FF0000440C0602000000007A0000007AFA
:10219A00000000020F02000000006200000062005E
:1021AA00000002000000030400000002000000001A
:1021BA00010001000000FFFF000001000000000014
:1021CA00000000000000000000000400FF00000101
:1021DA00270E270EFFDD01D9019506E5019506F2C6
:1021EA0001F201E50100000000CC0672067D01E063
:1021FA000204FF010000CC06720683017F01046E0F
:10220A00060194018501B20192090C026E0600B220
:10221A0001920915026E0602AD01A801A301E402AA
:10222A0044023602280252029004F00500014D0BC6
:10223A00000002030100EE05900300018E0B00006E
:10224A0001020100F006EE040001E00B00000001AB
:10225A0001009C049E045000CB0D00000300010005
:10226A00CA01010000000100000001010000010094
:10227A002408F207FB07D407C8047107B5049A07B4
:10228A00B20868091F079B096608D2098F08240A41
:10229A00DA08870A1707C80A12070F0BED0A1A0B82
:1022AA002F09290BF908760800000000840F760E22
:0A22BA00530FD10F250F3F0F310F16
:00000001FF
