:100000000C9436000C94F40D0C941B0E0C945E00B2
:100010000C945E000C945E000C945E000C945E00E8
:100020000C945E000C945E000C945E000C945E00D8
:100030000C945E000C945E000C945E000C945E00C8
:100040000C94F90C0C945E000C94F50E0C94270F94
:100050000C945E000C945E000C945E000C945E00A8
:100060000C945E000C945E00EE0D4D0F11241FBE2B
:10007000CFEFD8E0DEBFCDBF12E0A0E0B1E0E0EE10
:10008000F1E202C005900D92AE3DB107D9F727E02D
:10009000AEEDB2E001C01D92A931B207E1F710E068
:1000A000C6E3D0E004C02197FE010E94D910C433FA
:1000B000D107C9F70E94DF0D0C94AD100C9400001D
:1000C000E2E10E9405010895E9E00E94050108951A
:1000D000EAE00E9405010895E1E00E94050108950B
:1000E000E3E00E9405010895E7E00E9405010895FC
:1000F000E5E00E9405010895E0E00E9405010895F1
:10010000E2E00E9405010895E4E00E9405010895DF
:10011000ECE00E9405010895E8E00E9405010895C1
:10012000EEE00E9405010895E4E10E9405010895B2
:10013000E0E10E9405010895E7E10E9405010895AC
:10014000E6E00E9405010895EBE00E940501089594
:10015000EDE00E9405010895EFE00E940501089579
:10016000E1E10E9405010895E3E10E94050108957F
:10017000E5E10E9405010895E6E10E940501089568
:1001800021968A929A92AA92BA92CA92DA92EA92A4
:10019000FA920A931A932197E0916901F0916A010A
:1001A0000080F181E02DC083D1830895C0916B015F
:1001B000D0916C01E881F981C081D181219619919A
:1001C0000991F990E990D990C990B990A990999026
:1001D0008990219708952F903F90E7E6F1E0CDB701
:1001E000DEB7EDBFFEBF3F922F9208952F903F9054
:1001F000CDBFDEBF3F922F920895E0E80E94050137
:100200000895E0E40E94050108952F923F924F92D5
:100210005F926F927F922FB62F92CF93DF937E2EB5
:10022000F894E0910001EF5FE0930001E13011F4F8
:100230000E94EB00E0E0E0937901E72DE07849F0DF
:100240000E946205F0917A01F17071F00E9415042C
:100250000BC0E72DEC3140F4EE0FF0E0E457FD4F1A
:100260000190F081E02D0995F0917901EF2FE17077
:1002700059F0F27011F00E94C0008F938F2F0E94EE
:100280005D038F910E94D6002091000121502093A0
:100290000001222311F40E94F600DF91CF912F90EC
:1002A0002FBE7F906F905F904F903F902F9008955A
:1002B0008091DE020895CF92DF92EF92FF920F932A
:1002C0001F93DC01EC91DB012C918E2F8170C82EE5
:1002D000D12CE12CF12C8E2F8F7090E0A0E0B0E0BB
:1002E000B695A79597958795DC01AD5FBC4F8C912E
:1002F000C81AD108E108F108EE70422F417050E0B1
:1003000060E070E0822F8F7090E0A0E0B0E0B695E2
:10031000A79597958795DC01AD5FBC4F8C91481BE5
:10032000510961097109822F8E7097018601017050
:100330001127222733270E2B417055276627772751
:10034000482B81E090E0041715072607370710F0C7
:1003500080E090E01F910F91FF90EF90DF90CF90A1
:1003600008958F929F92AF92BF92EF92FF920F9358
:100370001F93CF93DF937C014A015B01B694A7944E
:10038000979487944230510561057105E0F0440F60
:10039000551F8701040F151FE401CC0FDD1FCE0D83
:1003A000DF1DB801CE010E945B01892B61F0F801CD
:1003B0009081818128813981318320839883898349
:1003C000B501A401DBCFDF91CF911F910F91FF9079
:1003D000EF90BF90AF909F908F9008954F925F9253
:1003E0006F927F928F929F92AF92BF92CF92DF9245
:1003F000EF92FF920F931F93CF93DF9300D000D023
:1004000000D0CDB7DEB78C016A017B01DC018C9195
:10041000282F30E040E050E029833A834B835C830F
:1004200046015701880C991CAA1CBB1C29813A81E2
:100430004B815C81281539054A055B0508F442C0EB
:10044000240135013FEF431A530A630A730A898175
:100450009A81AB81BC8184159505A605B70580F00E
:10046000B201660F771F600F711FC401880F991FBB
:10047000800F911F0E945B01892B11F053014201F3
:100480003401660C771C600E711ECC0CDD1CD8018B
:10049000AC0DBD1DBE83AD83B301CD010E945B01D8
:1004A000892B81F0ED81FE8190818181D3012D9195
:1004B0003C911197318320839C9311968C93750105
:1004C0006401AECF26960FB6F894DEBF0FBECDBF47
:1004D000DF91CF911F910F91FF90EF90DF90CF9020
:1004E000BF90AF909F908F907F906F905F904F9054
:1004F0000895EBEBF3E040814F5F408350E060E014
:1005000070E0E82FEE0FFF0BE05CFD4F0190F081F3
:10051000E02D238530E0F901ED5FFC4F9081915093
:100520009083FA01EE0FFF1FE554FC4F220F331F9B
:100530009170292B208381838BEB93E00C94B10184
:10054000EBEBF3E040814F5F408350E060E070E010
:10055000E82FEE0FFF0BE85CFD4F0190F081E02DDE
:100560009381FA01EE0FFF1FE554FC4F90838183C6
:100570008BEB93E00C94B101CF93DF93EBEBF3E0C3
:1005800080819FEF980F9083D281C38190E0880F84
:10059000991FDC01A554BC4F8D919C91938382835C
:1005A00041E050E060E070E0CF010E94EE018D2F4D
:1005B0009C2FDF91CF9108958091DE02811114C0AC
:1005C0008091710190917201A0917301B0917401B9
:1005D0008F3F2FEF9207A207B20741F00397A105C3
:1005E000B10534F481E0089584E0089580E0089531
:1005F00082E00895880F990BFC01E05CFD4F0190AB
:10060000F081E02D0084F185E02D3097E9F0228122
:1006100021111AC021E02283DC01A85CBD4F0D909E
:10062000BC91A02D13968C9113978183808190E0CB
:10063000FC01ED5FFC4F208121502083880F991F22
:100640002170822B13968C930895880F990BFC01CF
:10065000E05CFD4F0190F081E02D0084F185E02DFC
:10066000309761F02281213049F412822181FC010E
:10067000E85CFD4F0190F081E02D23830895809187
:10068000750190917601A0917701B0917801409128
:10069000710150917201609173017091740148175A
:1006A00059076A077B0741F0E0916F01F0917001F3
:1006B00021E024830C94A0020895CF93DF93882334
:1006C00091F0C0916901D0916A01E0916D01F091C2
:1006D0006E018481833049F081E0848380917101CF
:1006E0000E94A00202C0C0E0D0E0E0916F01F09152
:1006F0007001F0936E01E0936D0180916B01909118
:100700006C0190936A018093690180917501309129
:100710007601209177019091780180937101309357
:100720007201209373019093740192E094830E946C
:10073000FA02CE01DF91CF910895809171010E945C
:100740002503E0916D01F0916E018281882319F0FB
:1007500085E08483089514820895CF93DF93282F32
:10076000220F330BF901E85CFD4FC081D1819A81E2
:10077000F901E05CFD4F0190F081E02D2485921796
:1007800070F4911105C095E09C8391E090937A01FB
:100790000E9479028A818F5F8A8380E001C084E0B1
:1007A000DF91CF910895E82FEE0FFF0BE85CFD4F2E
:1007B0000190F081E02D118210820C94990D1F930D
:1007C000CF93DF930E94BC02182F892F492F092E47
:1007D000000C550B660B770B409375015093760117
:1007E0006093770170937801292F220F330BF90161
:1007F000E85CFD4FC081D181D0937001C0936F013F
:10080000F901E05CFD4F2081318130936C01209330
:100810006B019C81953019F40E94D3031B831092C5
:100820007A01DF91CF911F910895E0917501F091C8
:100830007601EE0FFF1FE85CFD4F0190F081E02D87
:100840009091BD038381891730F40E943F030E9479
:10085000DF0383E001C080E080937901089581E0A7
:10086000809379010C94DF03EF92FF920F931F9313
:10087000CF93DF93C1E001C0CC0F8A95EAF783E004
:100880000E94AD0308E812E0D0E0F80181918F01E9
:100890008C2319F08D2F0E94AD03DF5FD330A9F7B1
:1008A00005E812E087E1E82E82E0F82ED1E0F801B9
:1008B00081918F018C2339F0F70180819181FC01B6
:1008C000D6870E949B04F2E0EF0EF11C82E008380C
:1008D000180769F7DF91CF911F910F91FF90EF906B
:1008E00008950E94530681110E947406E0916D01E3
:1008F000F0916E0180819181892B21F080917101AD
:100900000E9485080C94AA070E94530681110E9438
:100910007406E0916D01F0916E0180819181892BC7
:1009200021F0809171010E9485080C94840781E078
:100930008093DF020895AF92BF92CF92DF92EF9241
:10094000FF920F931F93CF93DF93FC01A081B1819E
:10095000AD90BC90E501AC89BD89109739F0428516
:1009600053856485758530E020E017C0D501559624
:100970009C938E93549757969C938E93569715827B
:100980001482138212825BC012968D919C911397F0
:100990003A2F2B2F009779F0DC011A96CD90DD903D
:1009A000ED90FC901D974C155D056E057F0560F779
:1009B000CD01A32FB22F93838283B583A4830097A5
:1009C00019F0EC01FD83EC83109729F01396FC934A
:1009D000EE93129705C0D5015596FC93EE9354976C
:1009E000E501AE89BF891A968D919D910D90BC91BC
:1009F000A02D088919892A893B8980179107A207A8
:100A0000B30780F4041715072607370728F048179F
:100A100059076A077B0798F4D5015796FC93EE9324
:100A200056970DC0041715072607370740F44817D7
:100A300059076A077B0718F4E501FF8BEE8BDF91FE
:100A4000CF911F910F91FF90EF90DF90CF90BF90CB
:100A5000AF900895CF93DF93DC01ED91FC91119756
:100A60000190F081E02D848995891296CD91DC91D9
:100A70001397A817B90711F4D58BC48B868997896A
:100A8000A817B90711F4D78BC68B209731F01496AD
:100A90008D919C9115979D838C8314960D90BC919C
:100AA000A02D109721F01396DC93CE931297868990
:100AB0009789892B21F484899589978B868BDF917F
:100AC000CF910895EF92FF920F931F93CF93DF93EF
:100AD000FC018091DF02882309F4B5C084859585E7
:100AE000A685B7850196A11DB11D84879587A68728
:100AF000B787408151816281738184179507A6076A
:100B0000B70709F0A0C040895189628973894F5F96
:100B10005F4F6F4F7F4F84819581A681B781841786
:100B20009507A607B70718F440E050E0BA01408BDC
:100B3000518B628B738B1486158616861786C68931
:100B4000D789209709F47FC08A859B85AC85BD85B0
:100B5000481759076A077B0709F075C0CE01DC0109
:100B60001296ED90FC901397E114F10471F0D70107
:100B70001A960D911D912D913C911D97401751078B
:100B80006207730711F4C701EACF2C813D8121155B
:100B9000310529F0D9011396FC92EE921297E114D7
:100BA000F10429F0D70115963C932E9314972489CC
:100BB0003589C217D30711F4F58AE48AE114F104E8
:100BC00019F0F78AE68A04C024893589378B268B89
:100BD0008F01FC0113821282EA80FB80E881F98197
:100BE0000280F381E02DCE0109954E815F816885F9
:100BF0007985411551056105710509F18A859B8546
:100C0000AC85BD85840F951FA61FB71FF8014481D1
:100C1000558166817781481759076A077B0738F441
:100C2000841B950BA60BB70B0197A109B1098A8705
:100C30009B87AC87BD87CE010E949B0401C01E86A6
:100C4000E701209749F6DF91CF911F910F91FF9017
:100C5000EF900895FC0182810C94AD030E9453062D
:100C6000809168010895CF93C82F0E94DC02811102
:100C70000AC0C09368018C2F0E9434040E9497041C
:100C8000CF910C942F04CF9108950C94980DCF938D
:100C9000C82F0E94DC02811102C00E94D50D8C2F4A
:100CA000CF910C9464008091EC028130D9F0809156
:100CB000E4029091E502A091E602B091E702892B4F
:100CC0008A2B8B2B79F481E04091E8025091E90264
:100CD0006091EA027091EB02452B462B472B19F4E9
:100CE00080E0089581E008951092EC021092E802ED
:100CF0001092E9021092EA021092EB021092E402C2
:100D00001092E5021092E6021092E7028091E00252
:100D10009091E102A091E202B091E3028093ED0292
:100D20009093EE02A093EF02B093F00208950E9418
:100D3000D80D8091ED029091EE02A091EF02B0915A
:100D4000F0020196A11DB11D8093ED029093EE0279
:100D5000A093EF02B093F0028091E8029091E90233
:100D6000A091EA02B091EB020196A11DB11D809302
:100D7000E8029093E902A093EA02B093EB0208958F
:100D80008091E8029091E902A091EA02B091EB0211
:100D90000097A105B10569F14091ED025091EE0275
:100DA0006091EF027091F00241505109610971099F
:100DB0004093ED025093EE026093EF027093F002C5
:100DC0000197A109B1098093E8029093E902A093E9
:100DD000EA02B093EB028091ED029091EE02A091B5
:100DE000EF02B091F002892B8A2B8B2B11F40C941B
:100DF000D60D08958091E8029091E902A091EA024F
:100E0000B091EB02892B8A2B8B2B89F48091E40221
:100E10009091E502A091E602B091E702892B8A2B1E
:100E20008B2B29F40E94D80D81E08093EC02089569
:100E30008091EC02882321F01092EC020C94D60DE4
:100E400008950E94DC0D8091ED029091EE02A09138
:100E5000EF02B091F0020196A11DB11D8093ED0249
:100E60009093EE02A093EF02B093F0028091E4021F
:100E70009091E502A091E602B091E7020196A11DD2
:100E8000B11D8093E4029093E502A093E602B09333
:100E9000E70208958091E4029091E502A091E602B4
:100EA000B091E7020097A105B10569F14091ED020B
:100EB0005091EE026091EF027091F00241505109A1
:100EC000610971094093ED025093EE026093EF02C5
:100ED0007093F0020197A109B1098093E402909305
:100EE000E502A093E602B093E7028091ED029091B3
:100EF000EE02A091EF02B091F002892B8A2B8B2B8E
:100F000011F40C94DA0D08950E945306882311F011
:100F100083E1089582E00895CF93C82F0E9453067D
:100F2000811106C00E945801882321F0C2E00FC041
:100F3000C3E10DC0C33010F0C3E009C08C2F0E9484
:100F4000AD03C82F80917A0181110E9415048C2F66
:100F5000CF910895CF930E945306811107C00E943C
:100F6000DC02C82F813021F082E016C083E114C07A
:100F7000E0916D01F0916E0180819181892B11F0DA
:100F800086E00AC08281815082830E949D03C093C3
:100F900079010E94DF0380E0CF910895CF93DF9322
:100FA000C82F0E945306811109C00E94DC02D82F6D
:100FB000813031F4C33030F0C3E025C0C3E123C039
:100FC000C2E021C0E0916D01F0916E0180819181BC
:100FD000892BC1F48281815082838C2F0E94AD03C2
:100FE000C82F811107C00E949D03D09379010E94F0
:100FF000DF0309C0E0916D01F0916E0182818F5F86
:10100000828301C0C6E08C2FDF91CF9108950E94AA
:101010005306811106C00E94DC02813021F082E07B
:10102000089583E10895E0916D01F0916E01808152
:101030009181892B11F086E00895809171010E94C1
:1010400025030E9415048091710190917201A09175
:101050007301B091740140917501509176016091D6
:1010600077017091780184179507A607B70711F4E7
:101070000E94FA0280E00895CF93DF93EC010E9472
:101080005306811116C00E945801811114C080912D
:10109000710190917201A0917301B091740183303C
:1010A0009105A105B10514F08091DD01888380E0F0
:1010B00003C083E101C082E0DF91CF9108950F93D7
:1010C0001F93CF93C82F8B010E945306811106C036
:1010D0000E945801882321F082E013C083E111C0EF
:1010E000C33010F083E00DC0EC2FEE0FFF0BE85C77
:1010F000FD4F0190F081E02D84818370F8018083A1
:1011000080E0CF911F910F910895880F990BFC01FA
:10111000E85CFD4FA081B181ED91FC911197309772
:1011200069F01D921C922091DD01938184812283BC
:1011300014821382E92FF82F3097B9F70895CF93CF
:10114000C82F0E945306811108C00E9458018111C6
:1011500006C0C23030F083E045C083E143C082E086
:1011600041C0EC2FF0E0EE0FFF1FE058FD4F019063
:10117000F081E02D92818091DD01981309C0A0914A
:101180006901B0916A011B969C918081891710F4C6
:1011900081E028C0809171018283A0916D01B0919E
:1011A0006E018D919C911197948383831196FC938A
:1011B000EE9313968C9113978183808113969C9163
:1011C00013979695981768F490E0FC01ED5FFC4F3B
:1011D000208121502083880F991F2170822B139624
:1011E0008C9380E0CF910895CF93C82F0E9453062F
:1011F000811106C00E945801882321F082E036C088
:1012000083E134C0C23010F083E030C0EC2FF0E056
:10121000EE0FFF1FE058FD4F0190F081E02DA091EF
:101220006901B0916A011B969C9180818917D8F061
:10123000A0916D01B0916E018D919C911197E8176D
:10124000F90799F4818113968C9313978381948184
:101250008D939C93148213828091DD0182830E947E
:10126000150480E003C081E001C085E0CF910895BE
:10127000DC01ED91FC9184819581DC01ED91FC9183
:1012800009940F931F93CF93DF93C82F8B010E9474
:101290005306811106C00E945801882321F082E084
:1012A0002FC083E12DC0C33010F083E029C0EC2FA4
:1012B000F0E0EE0FFF1FE95EFD4F0190F081E02DA1
:1012C0000190F081E02D0190F081E02D80819181ED
:1012D000A281B381E8018C839D83AE83BF83848127
:1012E0009581A681B78188839983AA83BB838085F2
:1012F0009185A285B38588879987AA87BB8780E077
:10130000DF91CF911F910F910895CF92DF92EF92CD
:10131000FF920F931F93CF93C82F8B010E94530608
:10132000811107C00E945801811105C0C330C8F562
:1013300004C083E137C082E035C0EC2FF0E0EE0F4F
:10134000FF1FE95EFD4F0190F081E02D8685813021
:1013500031F582859385A485B5850190F081E02DD6
:101360000190F081E02D4089518962897389841749
:101370009507A607B70740F4C480D580E680F780BC
:101380008C0D9D1DAE1DBF1D841B950BA60BB70BB1
:10139000F80180839183A283B38380E003C085E05A
:1013A00001C083E0CF911F910F91FF90EF90DF90EC
:1013B000CF9008958F929F92AF92BF92CF92DF927B
:1013C000EF92FF920F931F93CF93DF93C82F6A0181
:1013D0007B01480159010E945306811107C00E94F8
:1013E0005801811105C0C330E8F404C083E15AC03C
:1013F00082E058C0EC2FF0E0EE0FFF1FE95EFD4FDA
:101400000190F081E02DA081B181CD91DC918C81A2
:101410009D81AE81BF818C159D05AE05BF0508F489
:1014200040C002C083E03EC081149104A104B10415
:1014300071F088159905AA05BB0598F1488559856D
:101440006A857B8584169506A606B70650F1268523
:10145000211125C0488959896A897B89C40ED51E06
:10146000E61EF71E8C159D05AE05BF0548F4C81A8B
:10147000D90AEA0AFB0A81E0C81AD108E108F10892
:10148000C286D386E486F58686829782A086B18658
:1014900081E08687CF010E949B0480E003C087E043
:1014A00001C088E0DF91CF911F910F91FF90EF90E5
:1014B000DF90CF90BF90AF909F908F9008958F92C4
:1014C0009F92AF92BF92CF92DF92EF92FF920F93D3
:1014D0001F93CF93C82F6A017B01480159010E94D5
:1014E0005306811108C00E945801811106C0C33003
:1014F00030F083E047C083E145C082E043C0EC2F79
:10150000F0E0EE0FFF1FE95EFD4F0190F081E02D4E
:10151000A081B1810D90BC91A02D14964D915D914B
:101520006D917C9117974C155D056E057F05A8F0B0
:1015300081149104A104B10491F0481559056A057C
:101540007B0558F018968D919D910D90BC91A02D22
:1015500088169906AA06BB0610F488E013C0868593
:1015600081110FC0C286D386E486F5868682978273
:10157000A086B18681E08687CF010E949B0480E02F
:1015800001C087E0CF911F910F91FF90EF90DF9006
:10159000CF90BF90AF909F908F900895CF93DF939F
:1015A000C82F0E945306811106C00E94580188234B
:1015B00021F082E018C083E116C0C33010F083E050
:1015C00012C0EC2FF0E0EE0FFF1FE95EFD4FC0816F
:1015D000D1818E85813031F4CE010E942A051E868C
:1015E00080E001C085E0DF91CF91089526E040E8DA
:1015F00055E260E070E088E193E00C9448108F922F
:101600009F92AF92BF92CF92DF92EF92FF9228EF1C
:1016100031E0DC010E94D2104B015C01C12CD12CC5
:101620007601C814D904EA04FB0441F00E94510D6C
:101630008FEFC81AD80AE80AF80AF3CFFF90EF90A4
:10164000DF90CF90BF90AF909F908F900895CF93F1
:10165000409101035091020320EB34E0429FC0010E
:10166000439F900D529F900D1124A0E0B0E0809315
:10167000FD029093FE02A093FF02B093000363EF7C
:1016800071E088E193E00E94810E60910103709106
:1016900002036F5F7F4F70930203609301034AE080
:1016A00050E088E193E00E94DD0E6EED71E088E18C
:1016B00093E00E94810E4091FD025091FE026091E4
:1016C000FF02709100032AE030E088E193E00E947D
:1016D000E30EC09184028C2F0E94A40067EE71E09B
:1016E00088E193E00E94810E6091010370910203F2
:1016F0004AE050E088E193E00E94DD0E65EF71E082
:1017000088E193E00E94810E0E94510DAB01BC0163
:101710002AE030E088E193E00E94E30E8CE291E061
:101720000E94FF0A67EE71E088E193E00E94810E5B
:1017300060910103709102034AE050E088E193E078
:101740000E94DD0E6EEF71E088E193E00E94810E51
:101750000E94510DAB01BC012AE030E088E193E02A
:101760000E94E30E8C2F0E94A80063EF71E088E1D5
:1017700093E00E94810E60910103709102034AE0A0
:1017800050E088E193E00E94DD0E6EEF71E088E1A9
:1017900093E00E94810E0E94510DAB01BC012AE032
:1017A00030E088E193E00E94E30ECF910C948C002E
:1017B0004091FB025091FC0220ED37E0429FC001B6
:1017C000439F900D529F900D1124A0E0B0E08093B4
:1017D000F7029093F802A093F902B093FA0267E03F
:1017E00072E088E193E00E94810E6091FB027091AB
:1017F000FC026F5F7F4F7093FC026093FB024AE034
:1018000050E088E193E00E94DD0E6EED71E088E12A
:1018100093E00E94810E4091F7025091F80260918E
:10182000F9027091FA022AE030E088E193E00E9428
:10183000E30E88E592E00E94FF0A67E072E088E12B
:1018400093E00E94810E6091FB027091FC024AE0DD
:1018500050E088E193E00E94DD0E6EEF71E088E1D8
:1018600093E00E94810E0E94510DAB01BC012AE061
:1018700030E088E193E00E94E30E0C948C00CF935B
:101880004091F5025091F60228EB3BE0429FC001E7
:10189000439F900D529F900D1124A0E0B0E08093E3
:1018A000F1029093F202A093F302B093F40265E187
:1018B00072E088E193E00E94810E6091F5027091E0
:1018C000F6026F5F7F4F7093F6026093F5024AE075
:1018D00050E088E193E00E94DD0E6EED71E088E15A
:1018E00093E00E94810E4091F1025091F2026091CA
:1018F000F3027091F4022AE030E088E193E00E9464
:10190000E30E88EC90E00E94FF0AC09184028C2FC5
:101910000E94A40069E072E088E193E00E94810ED9
:101920006091F5027091F6024AE050E088E193E0A0
:101930000E94DD0E65EF71E088E193E00E94810E68
:101940000E94510DAB01BC012AE030E088E193E038
:101950000E94E30E8CE291E00E94FF0A69E072E0CF
:1019600088E193E00E94810E6091F5027091F60289
:101970004AE050E088E193E00E94DD0E6EEF71E0F6
:1019800088E193E00E94810E0E94510DAB01BC01E1
:101990002AE030E088E193E00E94E30E8C2F0E9461
:1019A000A80065E172E088E193E00E94810E6091F9
:1019B000F5027091F6024AE050E088E193E00E945F
:1019C000DD0E6EEF71E088E193E00E94810E0E94CF
:1019D000510DAB01BC012AE030E088E193E00E94A8
:1019E000E30ECF910C948C0087EB91E00C94FD00FA
:1019F00008951F920F920FB60F9211242F933F93C9
:101A00004F935F936F937F938F939F93AF93BF9306
:101A1000EF93FF9380910F0390911003A091110316
:101A2000B091120330910E0323E0230F2D3720F4E1
:101A30000196A11DB11D05C026E8230F0296A11D28
:101A4000B11D20930E0380930F0390931003A09376
:101A50001103B09312038091130390911403A0918A
:101A60001503B09116030196A11DB11D80931303B8
:101A700090931403A0931503B09316030E94F40CE3
:101A8000FF91EF91BF91AF919F918F917F916F9156
:101A90005F914F913F912F910F900FBE0F901F902C
:101AA00018952FB7F89460910F03709110038091EF
:101AB0001103909112032FBF089584B5826084BDF5
:101AC00084B5816084BD85B5826085BD85B5816042
:101AD00085BDEEE6F0E0808181608083E1E8F0E0A2
:101AE0001082808182608083808181608083E0E8D1
:101AF000F0E0808181608083E1EBF0E080818460B0
:101B00008083E0EBF0E0808181608083EAE7F0E0B1
:101B10008081846080838081826080838081816015
:101B200080838081806880831092C1000895FFCFF8
:101B3000FFCFCF93DF93880F990BFC01E05CFD4F43
:101B4000C081D181AC81BD8111978A819B81A80F11
:101B5000B91F2D85CD010197FD013297223019F46F
:101B600024E830E002C020EA30E02C93DC013C9312
:101B70009E818F819083DF018E93CF0107971E9204
:101B80008A179B07E1F780E8DF0118978C93CF0154
:101B900044971E928A179B07E1F7A881B981759730
:101BA000ED93FC93DF91CF91089508957894089573
:101BB000F894089578940895F894089508950E94EB
:101BC0005D0D0E94DE0D0E94F80C0E94F60A8091C5
:101BD00017030E94470680E090E0089580918B02F1
:101BE00080931703089508951F920F920FB60F92D6
:101BF00011242F933F934F935F936F937F938F9312
:101C00009F93AF93BF93EF93FF93E091D901F0912E
:101C1000DA010995FF91EF91BF91AF919F918F915B
:101C20007F916F915F914F913F912F910F900FBED8
:101C30000F901F9018951F920F920FB60F921124BC
:101C40002F933F934F935F936F937F938F939F93C4
:101C5000AF93BF93EF93FF93E091DB01F091DC0131
:101C60000995FF91EF91BF91AF919F918F917F91D6
:101C70006F915F914F913F912F910F900FBE0F90F9
:101C80001F901895CF92DF92EF92FF920F931F93C0
:101C9000CF93DF936C017A018B01C0E0D0E0CE15C9
:101CA000DF0581F0D8016D918D01D601ED91FC9198
:101CB0000190F081E02DC6010995892B11F0219644
:101CC000EECF7E01C701DF91CF911F910F91FF9061
:101CD000EF90DF90CF9008956115710579F0FB01C9
:101CE00001900020E9F73197AF01461B570BDC014B
:101CF000ED91FC910280F381E02D099480E090E069
:101D000008950C946C0E6CEB72E00C946C0E8F9238
:101D10009F92AF92BF92EF92FF920F931F93CF9338
:101D2000DF93CDB7DEB7A1970FB6F894DEBF0FBE35
:101D3000CDBF7C01FA01CB0119A2223008F42AE0C0
:101D40008E010F5D1F4F822E912CA12CB12CBF0153
:101D5000A50194010E94B010F901CA0101501109B6
:101D60006A3014F4605D01C0695CD8016C93232B68
:101D7000242B252B61F7B801C7010E946C0EA19698
:101D80000FB6F894DEBF0FBECDBFDF91CF911F918C
:101D90000F91FF90EF90BF90AF909F908F9008951C
:101DA0002115310541F4DC01ED91FC910190F081A8
:101DB000E02D642F09940C94870E9A01AB0160E02A
:101DC00070E00C94D00E0F931F93CF93DF93EC0130
:101DD0000E94D00E8C01CE010E94830E800F911FB5
:101DE000DF91CF911F910F9108951F920F920FB61F
:101DF0000F9211242F938F939F93EF93FF93E09172
:101E00002803F09129038081E0912E03F0912F03A4
:101E100082FD12C09081809131038F5F8F7320917A
:101E20003203821751F0E0913103F0E0E85EFC4F9D
:101E3000958F8093310301C08081FF91EF919F9135
:101E40008F912F910F900FBE0F901F9018951F929A
:101E50000F920FB60F9211242F933F934F935F93DE
:101E60006F937F938F939F93AF93BF93EF93FF9362
:101E700088E193E00E94B70FFF91EF91BF91AF917E
:101E80009F918F917F916F915F914F913F912F9192
:101E90000F900FBE0F901F901895E8E1F3E01382AA
:101EA000128288EE93E0A0E0B0E084839583A6835D
:101EB000B7838FEC92E09183808385EC90E09587E7
:101EC000848784EC90E09787868780EC90E0918B04
:101ED000808B81EC90E0938B828B82EC90E0958BF1
:101EE000848B86EC90E0978B868B118E128E138EEE
:101EF000148E0895FC01918D228D892F90E0805CD5
:101F00009F4F821B91098F7399270895FC01918D32
:101F1000828D981731F0828DE80FF11D858D90E04C
:101F200008958FEF9FEF0895FC01918D828D981792
:101F300061F0828DDF01A80FB11D5D968C91928DAD
:101F40009F5F9F73928F90E008958FEF9FEF0895AA
:101F5000FC01538D448D252F30E0842F90E0821BAF
:101F6000930B541710F0CF96089501970895FC0134
:101F7000848DDF01A80FB11DA35ABF4F2C91848D12
:101F800090E001968F739927848FA689B7892C9347
:101F9000A089B1898C91837080648C93938D848D9A
:101FA000981306C00288F389E02D80818F7D80839D
:101FB0000895EF92FF920F931F93CF93DF93EC015D
:101FC00081E0888F9B8D8C8D981305C0E889F989F5
:101FD000808185FD26C0F62E0B8D10E00F5F1F4F10
:101FE0000F731127E02E8C8DE8120CC00FB607FC82
:101FF000FACFE889F989808185FFF5CFCE010E946B
:10200000B70FF1CF8B8DFE01E80FF11DE35AFF4FA3
:10201000F0829FB7F8940B8FEA89FB8980818062F8
:102020000AC09FB7F894EE89FF896083E889F9892F
:1020300080818370806480839FBF81E090E0DF9126
:10204000CF911F910F91FF90EF900895CF93DF9361
:10205000EC01888D8823C9F0EA89FB89808185FDA0
:1020600005C0A889B9898C9186FD0FC00FB607FC01
:10207000F5CF808185FFF2CFA889B9898C9185FF42
:10208000EDCFCE010E94B70FE7CFDF91CF9108953A
:10209000CF92DF92EF92FF921F93CF93DF93EC01E9
:1020A0006A017B01122FE889F98982E0808341155A
:1020B000514E61057105B1F060E079E08DE390E08B
:1020C000A70196010E94B010DA01C9010197A10988
:1020D000B109B695A795979587959C01211580E143
:1020E0003807A8F0E889F989108260E874E88EE181
:1020F00090E0A70196010E94B010DA01C901019792
:10210000A109B109B695A795979587959C01EC858E
:10211000FD853083EE85FF852083188EEC89FD894F
:102120001083EA89FB89808180618083EA89FB8949
:10213000808188608083EA89FB89808180688083D0
:10214000EA89FB8980818F7D8083DF91CF911F9108
:10215000FF90EF90DF90CF900895F8940C94EE10DC
:10216000A1E21A2EAA1BBB1BFD010DC0AA1FBB1F9B
:10217000EE1FFF1FA217B307E407F50720F0A21B0D
:10218000B30BE40BF50B661F771F881F991F1A947A
:1021900069F760957095809590959B01AC01BD01A4
:1021A000CF0108950E94DF10B7FF0895821B930BA3
:1021B0000895EE0FFF1F0590F491E02D0994A29F62
:1021C000B001B39FC001A39F700D811D1124911D0B
:1021D000B29F700D811D1124911D0895F894FFCFB9
:1021E00000000000000000000000000000000000EF
:1021F00000000000000000000000000000000000DF
:1022000000000000000000000000000000000000CE
:1022100000000000000000000000000000000000BE
:1022200000000000000000000000000000000000AE
:10223000000000000000000000000000000000009E
:102240000000000000000000FF0000720200000912
:1022500003FFFFFFFFFFFFFFFF00001D0200000064
:1022600000720B0000720B0000022602000000004A
:10227000A1070000A1070000022F02000000009447
:1022800004000094040000020000000304000000A9
:102290000204000000010401000000FFFF00000133
:1022A000000000000000000000000000000000042A
:1022B00000FF00000400FF0000F30DF30DFF20728B
:1022C000656164793A200020202D2D432E532E2065
:1022D0006F6620410020626567756E3A20002065B8
:1022E0006E6465643A2000420020202D2D432E5359
:1022F0002E206F6620430099018A017B01B70138C7
:102300000923022A0600B70138092C022A0601B760
:1023100001380935022A0602B201AD01A8010903FC
:102320006402560248027202B703C9040001270B77
:10233000000002030100B503C7030001D80B000031
:1023400001020100B903190600013F0C0000000161
:102350000100C704C9055000970D000003000100EB
:10236000D401CF0100010101010101004A07180752
:102370002107FA06840497067104C006AA073306EB
:1023800045069F088C07F408CE0741093C088509DB
:102390002E06DA0907085F0ACE0A5F080D0A006EEA
:1023A000616E00696E66006F76660000000000D9FD
:0E23B0000F420EA80F26107A0F940F860F0012
:00000001FF
