:100000000C9436000C94150C0C943C0C0C945E0073
:100010000C945E000C945E000C945E000C945E00E8
:100020000C945E000C945E000C945E000C945E00D8
:100030000C945E000C945E000C945E000C945E00C8
:100040000C941A0B0C945E000C94280D0C945A0D11
:100050000C945E000C945E000C945E000C945E00A8
:100060000C945E000C945E000F0C800D11241FBEDA
:10007000CFEFD8E0DEBFCDBF12E0A0E0B1E0E6E414
:10008000FEE102C005900D92A23DB107D9F726E02E
:10009000A2EDB2E001C01D92AB3FB207E1F710E064
:1000A000C6E3D0E004C02197FE010E940C0FC433C8
:1000B000D107C9F70E94000C0C94E00E0C940000CC
:1000C000E2E10E9405010895E9E00E94050108951A
:1000D000EAE00E9405010895E1E00E94050108950B
:1000E000E3E00E9405010895E7E00E9405010895FC
:1000F000E5E00E9405010895E0E00E9405010895F1
:10010000E2E00E9405010895E4E00E9405010895DF
:10011000ECE00E9405010895E8E00E9405010895C1
:10012000EEE00E9405010895E4E10E9405010895B2
:10013000E0E10E9405010895E7E10E9405010895AC
:10014000E6E00E9405010895EBE00E940501089594
:10015000EDE00E9405010895EFE00E940501089579
:10016000E1E10E9405010895E3E10E94050108957F
:10017000E5E10E9405010895E6E10E940501089568
:1001800021968A929A92AA92BA92CA92DA92EA92A4
:10019000FA920A931A932197E0916F01F0917001FE
:1001A0000080F181E02DC083D1830895C091710159
:1001B000D0917201E881F981C081D1812196199194
:1001C0000991F990E990D990C990B990A990999026
:1001D0008990219708952F903F90E7E6F1E0CDB701
:1001E000DEB7EDBFFEBF3F922F9208952F903F9054
:1001F000CDBFDEBF3F922F920895E0E80E94050137
:100200000895E0E40E94050108952F923F924F92D5
:100210005F926F927F922FB62F92CF93DF937E2EB5
:10022000F894E0910001EF5FE0930001E13011F4F8
:100230000E94EB00E0E0E0937F01E72DE07849F0D9
:100240000E945F05F0918001F17071F00E9412042C
:100250000BC0E72DEC3140F4EE0FF0E0EF57FD4F0F
:100260000190F081E02D0995F0917F01EF2FE17071
:1002700059F0F27011F00E94C0008F938F2F0E94EE
:100280005A038F910E94D6002091000121502093A3
:100290000001222311F40E94F600DF91CF912F90EC
:1002A0002FBE7F906F905F904F903F902F9008955A
:1002B000CF92DF92EF92FF920F931F93DC01EC91AC
:1002C000DB012C918E2F8170C82ED12CE12CF12CCA
:1002D0008E2F8F7090E0A0E0B0E0B695A79597952F
:1002E0008795DC01AB51BD4F8C91C81AD108E1084C
:1002F000F108EE70422F417050E060E070E0822F14
:100300008F7090E0A0E0B0E0B695A795979587959F
:10031000DC01AB51BD4F8C91481B5109610971093A
:10032000822F8E70970186010170112722273327B3
:100330000E2B4170552766277727482B81E090E0E8
:10034000041715072607370710F080E090E01F918B
:100350000F91FF90EF90DF90CF9008958F929F9232
:10036000AF92BF92EF92FF920F931F93CF93DF93C1
:100370007C014A015B01B694A7949794879442301C
:10038000510561057105E0F0440F551F8701040F09
:10039000151FE401CC0FDD1FCE0DDF1DB801CE010E
:1003A0000E945801892B61F0F80190818181288198
:1003B00039813183208398838983B501A401DBCF00
:1003C000DF91CF911F910F91FF90EF90BF90AF9071
:1003D0009F908F9008954F925F926F927F928F922D
:1003E0009F92AF92BF92CF92DF92EF92FF920F93C4
:1003F0001F93CF93DF9300D000D000D0CDB7DEB7EE
:100400008C016A017B01DC018C91282F30E040E0F7
:1004100050E029833A834B835C8346015701880C63
:10042000991CAA1CBB1C29813A814B815C8128152F
:1004300039054A055B0508F442C0240135013FEF48
:10044000431A530A630A730A89819A81AB81BC817A
:1004500084159505A605B70580F0B201660F771FD4
:10046000600F711FC401880F991F800F911F0E9498
:100470005801892B11F0530142013401660C771C9D
:10048000600E711ECC0CDD1CD801AC0DBD1DBE83F1
:10049000AD83B301CD010E945801892B81F0ED811C
:1004A000FE8190818181D3012D913C9111973183FF
:1004B00020839C9311968C9375016401AECF269690
:1004C0000FB6F894DEBF0FBECDBFDF91CF911F9165
:1004D0000F91FF90EF90DF90CF90BF90AF909F90E3
:1004E0008F907F906F905F904F900895EDE9F3E0CB
:1004F00040814F5F408350E060E070E0E82FEE0FF6
:10050000FF0BEB5CFD4F0190F081E02D238530E087
:10051000F901EB51FD4F908191509083FA01EE0F5C
:10052000FF1FE356FC4F220F331F9170292B2083AE
:1005300081838DE993E00C94AE01EDE9F3E0408115
:100540004F5F408350E060E070E0E82FEE0FFF0B5C
:10055000E35DFD4F0190F081E02D9381FA01EE0FF4
:10056000FF1FE356FC4F908381838DE993E00C9449
:10057000AE01CF93DF93EDE9F3E080819FEF980F19
:100580009083D281C38190E0880F991FDC01A3562C
:10059000BC4F8D919C919383828341E050E060E059
:1005A00070E0CF010E94EB018D2F9C2FDF91CF9146
:1005B00008958091D202811114C0809177019091A9
:1005C0007801A0917901B0917A018F3F2FEF9207C6
:1005D000A207B20741F00397A105B10534F481E009
:1005E000089584E0089580E0089582E00895880FDA
:1005F000990BFC01EB5CFD4F0190F081E02D008434
:10060000F185E02D3097E9F0228121111AC021E017
:100610002283DC01A35DBD4F0D90BC91A02D1396EC
:100620008C9113978183808190E0FC01EB51FD4F09
:10063000208121502083880F991F2170822B1396CF
:100640008C930895880F990BFC01EB5CFD4F019092
:10065000F081E02D0084F185E02D309761F022815A
:10066000213049F412822181FC01E35DFD4F0190AC
:10067000F081E02D2383089580917B0190917C018E
:10068000A0917D01B0917E01409177015091780158
:100690006091790170917A01481759076A077B07C1
:1006A00041F0E0917501F091760121E024830C94F2
:1006B0009D020895CF93DF93882391F0C0916F013D
:1006C000D0917001E0917301F091740184818330C5
:1006D00049F081E08483809177010E949D0202C0ED
:1006E000C0E0D0E0E0917501F0917601F0937401E3
:1006F000E093730180917101909172019093700168
:1007000080936F0180917B0130917C0120917D016C
:1007100090917E0180937701309378012093790145
:1007200090937A0192E094830E94F702CE01DF91C8
:10073000CF910895809177010E942203E091730187
:10074000F09174018281882319F085E084830895F3
:1007500014820895CF93DF93282F220F330BF901D2
:10076000E35DFD4FC081D1819A81F901EB5CFD4FC2
:100770000190F081E02D2485921770F4911105C04D
:1007800095E09C8391E0909380010E9476028A819B
:100790008F5F8A8380E001C084E0DF91CF9108956C
:1007A000E82FEE0FFF0BE35DFD4F0190F081E02D90
:1007B000118210820C94BA0B1F93CF93DF930E9487
:1007C000B902182F892F492F092E000C550B660BE3
:1007D000770B40937B0150937C0160937D01709374
:1007E0007E01292F220F330BF901E35DFD4FC081FC
:1007F000D181D0937601C0937501F901EB5CFD4F77
:100800002081318130937201209371019C81953058
:1008100019F40E94D0031B8310928001DF91CF91C5
:100820001F910895E0917B01F0917C01EE0FFF1F75
:10083000E35DFD4F0190F081E02D90919F03838156
:10084000891730F40E943C030E94DC0383E001C05E
:1008500080E080937F01089581E080937F010C9474
:10086000DC03EF92FF920F931F93CF93DF93C1E0CE
:1008700001C0CC0F8A95EAF783E00E94AA030DE736
:1008800012E0D0E0F80181918F018C2319F08D2FB7
:100890000E94AA03DF5FD330A9F70AE712E08CE0D9
:1008A000E82E82E0F82ED1E0F80181918F018C23AF
:1008B00039F0F70180819181FC01D6870E9498046C
:1008C000F2E0EF0EF11C82E00D37180769F7DF91B7
:1008D000CF911F910F91FF90EF9008950E944606CF
:1008E00081110E946706E0917301F091740180818B
:1008F0009181892B21F0809177010E942E080C9420
:100900008F070E94460681110E946706E0917301DD
:10091000F091740180819181892B21F08091770180
:100920000E942E080C94770781E08093D3020895EB
:10093000AF92BF92CF92DF92EF92FF920F931F93ED
:10094000CF93DF93FC01A081B181AD90BC90E50114
:10095000AC89BD89109739F04285538564857585CA
:1009600030E020E017C0D50155969C938E935497A4
:1009700057969C938E9356971582148213821282F7
:100980005BC012968D919C9113973A2F2B2F009755
:1009900079F0DC011A96CD90DD90ED90FC901D97DA
:1009A0004C155D056E057F0560F7CD01A32FB22FB5
:1009B00093838283B583A483009719F0EC01FD83B0
:1009C000EC83109729F01396FC93EE93129705C0D1
:1009D000D5015596FC93EE935497E501AE89BF89F6
:1009E0001A968D919D910D90BC91A02D0889198921
:1009F0002A893B8980179107A207B30780F404175F
:100A000015072607370728F0481759076A077B0795
:100A100098F4D5015796FC93EE9356970DC00417A2
:100A200015072607370740F4481759076A077B0759
:100A300018F4E501FF8BEE8BDF91CF911F910F91A1
:100A4000FF90EF90DF90CF90BF90AF900895CF933D
:100A5000DF93DC01ED91FC9111970190F081E02D85
:100A6000848995891296CD91DC911397A817B907BF
:100A700011F4D58BC48B86899789A817B90711F40F
:100A8000D78BC68B209731F014968D919C9115973A
:100A90009D838C8314960D90BC91A02D109721F00E
:100AA0001396DC93CE93129786899789892B21F42C
:100AB00084899589978B868BDF91CF910895EF92EA
:100AC000FF920F931F93CF93DF93FC018091D3028A
:100AD000882309F4B5C084859585A685B7850196D8
:100AE000A11DB11D84879587A687B7874081518155
:100AF0006281738184179507A607B70709F0A0C024
:100B000040895189628973894F5F5F4F6F4F7F4F73
:100B100084819581A681B78184179507A607B707B9
:100B200018F440E050E0BA01408B518B628B738B1C
:100B30001486158616861786C689D789209709F4E4
:100B40007FC08A859B85AC85BD85481759076A0794
:100B50007B0709F075C0CE01DC011296ED90FC9088
:100B60001397E114F10471F0D7011A960D911D91BC
:100B70002D913C911D97401751076207730711F49F
:100B8000C701EACF2C813D812115310529F0D9011A
:100B90001396FC92EE921297E114F10429F0D7011A
:100BA00015963C932E93149724893589C217D30741
:100BB00011F4F58AE48AE114F10419F0F78AE68A5F
:100BC00004C024893589378B268B8F01FC01138261
:100BD0001282EA80FB80E881F9810280F381E02DB6
:100BE000CE0109954E815F81688579854115510552
:100BF0006105710509F18A859B85AC85BD85840FEA
:100C0000951FA61FB71FF801448155816681778122
:100C1000481759076A077B0738F4841B950BA60B06
:100C2000B70B0197A109B1098A879B87AC87BD875C
:100C3000CE010E94980401C01E86E701209749F664
:100C4000DF91CF911F910F91FF90EF900895FC01DC
:100C500082810C94AA030E9446068091680108953F
:100C6000809368010E9431040E9494040C942C0427
:100C70000C94B90BCF93C82F0E94D902811102C0E6
:100C80000E94F60B8C2FCF910C9464008091E002AF
:100C90008130D9F08091D8029091D902A091DA02E6
:100CA000B091DB02892B8A2B8B2B79F481E0409168
:100CB000DC025091DD026091DE027091DF02452B73
:100CC000462B472B19F480E0089581E00895109297
:100CD000E0021092DC021092DD021092DE0210920D
:100CE000DF021092D8021092D9021092DA0210920A
:100CF000DB028091D4029091D502A091D602B091EE
:100D0000D7028093E1029093E202A093E302B093B2
:100D1000E40208950E94F90B8091E1029091E202B1
:100D2000A091E302B091E4020196A11DB11D809350
:100D3000E1029093E202A093E302B093E402809177
:100D4000DC029091DD02A091DE02B091DF020196FB
:100D5000A11DB11D8093DC029093DD02A093DE0201
:100D6000B093DF0208958091DC029091DD02A091A2
:100D7000DE02B091DF020097A105B10569F1409153
:100D8000E1025091E2026091E3027091E40241506D
:100D90005109610971094093E1025093E2026093A5
:100DA000E3027093E4020197A109B1098093DC0288
:100DB0009093DD02A093DE02B093DF028091E10206
:100DC0009091E202A091E302B091E402892B8A2B78
:100DD0008B2B11F40C94F70B08958091DC02909109
:100DE000DD02A091DE02B091DF02892B8A2B8B2BD2
:100DF00089F48091D8029091D902A091DA02B09141
:100E0000DB02892B8A2B8B2B29F40E94F90B81E0C2
:100E10008093E00208958091E002882321F01092EF
:100E2000E0020C94F70B08950E94FD0B8091E10203
:100E30009091E202A091E302B091E4020196A11D1B
:100E4000B11D8093E1029093E202A093E302B0937C
:100E5000E4028091D8029091D902A091DA02B09177
:100E6000DB020196A11DB11D8093D8029093D90297
:100E7000A093DA02B093DB0208958091D80290919A
:100E8000D902A091DA02B091DB020097A105B10569
:100E900069F14091E1025091E2026091E3027091A8
:100EA000E40241505109610971094093E1025093F4
:100EB000E2026093E3027093E4020197A109B10991
:100EC0008093D8029093D902A093DA02B093DB0208
:100ED0008091E1029091E202A091E302B091E402DC
:100EE000892B8A2B8B2B11F40C94FB0B08950E94F9
:100EF0004606882311F083E1089580E00895CF939A
:100F0000C82F0E9446068C2F0E94AA03C82F8091EA
:100F1000800181110E9412048C2FCF910895CF93EC
:100F20000E944606882311F0C3E101C0C0E0E091B1
:100F30007301F09174018281815082830E949A032F
:100F400081E080937F010E94DC038C2FCF91089574
:100F5000CF93C82F0E944606E0917301F09174016F
:100F60008281815082838C2F0E94AA03C82F811115
:100F700008C00E949A0381E080937F010E94DC03F5
:100F800007C0E0917301F091740182818F5F8283C9
:100F90008C2FCF910895CF930E944606882311F09D
:100FA000C3E101C0C0E0809177010E9422030E944A
:100FB00012048091770190917801A0917901B0910C
:100FC0007A0140917B0150917C0160917D0170918B
:100FD0007E0184179507A607B70711F40E94F70250
:100FE0008C2FCF910895CF93DF93EC010E9446069A
:100FF000882311F083E101C080E040917701509196
:1010000078016091790170917A0143305105610551
:10101000710514F4488303C09091E3019883DF9134
:10102000CF9108950F931F93CF93C82F8B010E94E8
:101030004606882311F083E101C080E0EC2FEE0F1B
:10104000FF0BE35DFD4F0190F081E02D94819370E3
:10105000F8019083CF911F910F910895880F990BFC
:10106000FC01E35DFD4FA081B181ED91FC911197F1
:10107000309769F01D921C922091E3019381848145
:10108000228314821382E92FF82F3097B9F708953D
:10109000CF93C82F0E944606882311F083E101C038
:1010A00080E0EC2FF0E0EE0FFF1FEB58FD4FA0812A
:1010B000B1819091770112969C931297E091730100
:1010C000F09174012081318114963C932E931397F3
:1010D000B183A083938111969C9311972C91938156
:1010E0009695921760F430E0D901AB51BD4F9C91B9
:1010F00091509C93220F331F9170292B2383CF9102
:101100000895CF93DF93C82F0E944606882311F0DD
:10111000D3E101C0D0E0EC2FF0E0EE0FFF1FEB5861
:10112000FD4F0190F081E02DA0917301B091740109
:10113000818113968C931397838194818D939C93D3
:10114000148213828091E30182830E9412048D2F06
:10115000DF91CF910895DC01ED91FC91848195811F
:10116000DC01ED91FC9109941F93CF93DF93182F2D
:10117000EB010E944606882311F083E101C080E064
:10118000E12FF0E0EE0FFF1FE45FFD4F0190F081D3
:10119000E02D0190F081E02D0190F081E02D408163
:1011A0005181628173814C835D836E837F8344812F
:1011B000558166817781488359836A837B83408523
:1011C000518562857385488759876A877B87DF9158
:1011D000CF911F9108958F929F92AF92BF92CF921D
:1011E000DF92EF92FF920F931F93CF93C82F8B0143
:1011F0000E944606882311F083E101C080E0EC2FB5
:10120000F0E0EE0FFF1FE45FFD4F0190F081E02D55
:101210009685913029F542855385648575850190C1
:10122000F081E02D0190F081E02DC088D188E28826
:10123000F3884C155D056E057F0540F4848095802C
:10124000A680B780480D591D6A1D7B1D4C195D098C
:101250006E097F09F801408351836283738301C063
:1012600085E0CF911F910F91FF90EF90DF90CF908D
:10127000BF90AF909F908F9008958F929F92AF9262
:10128000BF92CF92DF92EF92FF920F931F93CF9373
:10129000DF93D82F4A015B01680179010E9446065D
:1012A000882311F0C3E101C0C0E0ED2FF0E0EE0FA4
:1012B000FF1FE45FFD4F0190F081E02D86858111D5
:1012C00030C0A081B1810D90BC91A02D50964D9160
:1012D0005D916D917C915397480D591D6A1D7B1D41
:1012E00014968D919D910D90BC91A02D841795071A
:1012F000A607B70740F4481B590B6A0B7B0B4150FC
:101300005109610971094287538764877587C682CD
:10131000D782E086F18681E08687CF010E9498041B
:1013200001C0C7E08C2FDF91CF911F910F91FF90EB
:10133000EF90DF90CF90BF90AF909F908F900895E7
:101340008F929F92AF92BF92CF92DF92EF92FF92D5
:101350000F931F93CF93DF93C82F4A015B0168015E
:1013600079010E944606882311F0D3E101C0D0E044
:10137000EC2FF0E0EE0FFF1FE45FFD4F0190F081D6
:10138000E02D868581110EC082869386A486B5865F
:10139000C682D782E086F18681E08687CF010E94EF
:1013A000980401C0D7E08D2FDF91CF911F910F914D
:1013B000FF90EF90DF90CF90BF90AF909F908F9075
:1013C00008950F931F93CF93DF93C82F0E94460673
:1013D000882311F0D3E101C0D0E0EC2FF0E0EE0F54
:1013E000FF1FE45FFD4F00811181F8018685813088
:1013F00031F4C8010E942705F801168601C0D5E026
:101400008D2FDF91CF911F910F91089526E040E835
:1014100055E260E070E08AEF92E00C947B0E8F92D0
:101420009F92AF92BF92CF92DF92EF92FF9228EFFE
:1014300031E0DC010E94050F4B015C01C12CD12C75
:101440007601C814D904EA04FB0441F00E94720B2F
:101450008FEFC81AD80AE80AF80AF3CFFF90EF9086
:10146000DF90CF90BF90AF909F908F900895CF93D3
:1014700064EE71E08AEF92E00E94A20C60916D012F
:1014800070916E014AE050E08AEF92E00E94100DE8
:101490006BEE71E08AEF92E00E94A80CC091790295
:1014A0008C2F0E94A4008CE291E00E940F0A8C2FE6
:1014B0000E94A80064EE71E08AEF92E00E94A20C04
:1014C00060916D0170916E01CB01019690936E0158
:1014D00080936D014AE050E08AEF92E00E94100D87
:1014E00062EF71E08AEF92E00E94A20C0E94720B00
:1014F000AB01BC012AE030E08AEF92E00E94160DB9
:10150000CF910C948C006EEF71E08AEF92E00E9414
:10151000A20C60916B0170916C014AE050E08AEF7F
:1015200092E00E94100D6BEE71E08AEF92E00E9453
:10153000A80C88E592E00E940F0A6EEF71E08AEF36
:1015400092E00E94A20C60916B0170916C01CB0142
:10155000019690936C0180936B014AE050E08AEF12
:1015600092E00E94100D62EF71E08AEF92E00E941B
:10157000A20C0E94720BAB01BC012AE030E08AEFA2
:1015800092E00E94160D0C948C00CF9365E072E0FF
:101590008AEF92E00E94A20C6091690170916A0149
:1015A0004AE050E08AEF92E00E94100D6BEE71E08D
:1015B0008AEF92E00E94A80C88EC90E00E940F0A4B
:1015C000C09179028C2F0E94A4008CE291E00E94CD
:1015D0000F0A8C2F0E94A80065E072E08AEF92E06B
:1015E0000E94A20C6091690170916A01CB01019681
:1015F00090936A01809369014AE050E08AEF92E09B
:101600000E94100D62EF71E08AEF92E00E94A20C3E
:101610000E94720BAB01BC012AE030E08AEF92E03D
:101620000E94160DCF910C948C008DEB91E00C94E0
:10163000FD0008951F920F920FB60F9211242F9361
:101640003F934F935F936F937F938F939F93AF934A
:10165000BF93EF93FF938091F1029091F202A091DA
:10166000F302B091F4023091F00223E0230F2D3702
:1016700020F40196A11DB11D05C026E8230F029696
:10168000A11DB11D2093F0028093F1029093F2020C
:10169000A093F302B093F4028091F5029091F602C8
:1016A000A091F702B091F8020196A11DB11D80939F
:1016B000F5029093F602A093F702B093F8020E940D
:1016C000150BFF91EF91BF91AF919F918F917F91FA
:1016D0006F915F914F913F912F910F900FBE0F909F
:1016E0001F9018952FB7F8946091F1027091F20253
:1016F0008091F3029091F4022FBF089584B5826027
:1017000084BD84B5816084BD85B5826085BD85B5A5
:10171000816085BDEEE6F0E0808181608083E1E854
:10172000F0E010828081826080838081816080838C
:10173000E0E8F0E0808181608083E1EBF0E080818F
:1017400084608083E0EBF0E0808181608083EAE761
:10175000F0E08081846080838081826080838081EA
:10176000816080838081806880831092C1000895A9
:10177000FFCFFFCFCF93DF93880F990BFC01EB5C7A
:10178000FD4FC081D181AC81BD8111978A819B8140
:10179000A80FB91F2D85CD010197FD013297223089
:1017A00019F424E830E002C020EA30E02C93DC0198
:1017B0003C939E818F819083DF018E93CF010797A9
:1017C0001E928A179B07E1F780E8DF0118978C9338
:1017D000CF0144971E928A179B07E1F7A881B98130
:1017E0007597ED93FC93DF91CF91089508957894C8
:1017F0000895F894089578940895F89408950895B4
:101800000E947E0B0E94FF0B0E94190B0E94060A89
:101810008091F9020E943A0680E090E0089580915C
:1018200080028093F902089508951F920F920FB6D7
:101830000F9211242F933F934F935F936F937F9356
:101840008F939F93AF93BF93EF93FF93E091DF014B
:10185000F091E0010995FF91EF91BF91AF919F91B8
:101860008F917F916F915F914F913F912F910F9049
:101870000FBE0F901F9018951F920F920FB60F92E8
:1018800011242F933F934F935F936F937F938F9385
:101890009F93AF93BF93EF93FF93E091E101F0919A
:1018A000E2010995FF91EF91BF91AF919F918F91C7
:1018B0007F916F915F914F913F912F910F900FBE4C
:1018C0000F901F901895CF92DF92EF92FF920F9397
:1018D0001F93CF93DF936C017A018B01C0E0D0E0BE
:1018E000CE15DF0581F0D8016D918D01D601ED9106
:1018F000FC910190F081E02DC6010995892B11F032
:101900002196EECF7E01C701DF91CF911F910F91FC
:10191000FF90EF90DF90CF9008956115710579F0F9
:10192000FB0101900020E9F73197AF01461B570BEF
:10193000DC01ED91FC910280F381E02D099480E0BF
:1019400090E008950C948D0C61EB72E00C948D0C7A
:101950000F931F93CF93DF93EC010E948D0C8C01AA
:10196000CE010E94A40C800F911FDF91CF911F9197
:101970000F9108958F929F92AF92BF92EF92FF9234
:101980000F931F93CF93DF93CDB7DEB7A1970FB619
:10199000F894DEBF0FBECDBF7C01FA01CB0119A2C6
:1019A000223008F42AE08E010F5D1F4F822E912C09
:1019B000A12CB12CBF01A50194010E94E30EF901F5
:1019C000CA01015011096A3014F4605D01C0695CFC
:1019D000D8016C93232B242B252B61F7B801C70169
:1019E0000E948D0CA1960FB6F894DEBF0FBECDBF3E
:1019F000DF91CF911F910F91FF90EF90BF90AF902B
:101A00009F908F9008952115310541F4DC01ED91EF
:101A1000FC910190F081E02D642F09940C94BA0C94
:101A20009A01AB0160E070E00C94030D0F931F93DB
:101A3000CF93DF93EC010E94030D8C01CE010E9435
:101A4000A40C800F911FDF91CF911F910F910895EA
:101A50001F920F920FB60F9211242F938F939F9383
:101A6000EF93FF93E0910A03F0910B038081E091E3
:101A70001003F091110382FD12C090818091130335
:101A80008F5F8F7320911403821751F0E09113033D
:101A9000F0E0E650FD4F958F8093130301C08081E5
:101AA000FF91EF919F918F912F910F900FBE0F900B
:101AB0001F9018951F920F920FB60F9211242F931B
:101AC0003F934F935F936F937F938F939F93AF93C6
:101AD000BF93EF93FF938AEF92E00E94EA0DFF918C
:101AE000EF91BF91AF919F918F917F916F915F9196
:101AF0004F913F912F910F900FBE0F901F9018950F
:101B0000EAEFF2E01382128288EE93E0A0E0B0E008
:101B100084839583A683B78384EC92E0918380834A
:101B200085EC90E09587848784EC90E097878687A2
:101B300080EC90E0918B808B81EC90E0938B828B9A
:101B400082EC90E0958B848B86EC90E0978B868B73
:101B5000118E128E138E148E0895FC01918D228D9C
:101B6000892F90E0805C9F4F821B91098F7399278A
:101B70000895FC01918D828D981731F0828DE80FC8
:101B8000F11D858D90E008958FEF9FEF0895FC0182
:101B9000918D828D981761F0828DDF01A80FB11DA4
:101BA0005D968C91928D9F5F9F73928F90E00895C8
:101BB0008FEF9FEF0895FC01538D448D252F30E06A
:101BC000842F90E0821B930B541710F0CF9608954A
:101BD00001970895FC01848DDF01A80FB11DA35A60
:101BE000BF4F2C91848D90E001968F739927848F3D
:101BF000A689B7892C93A089B1898C918370806460
:101C00008C93938D848D981306C00288F389E02D00
:101C100080818F7D80830895EF92FF920F931F93B1
:101C2000CF93DF93EC0181E0888F9B8D8C8D98138F
:101C300005C0E889F989808185FD26C0F62E0B8DC7
:101C400010E00F5F1F4F0F731127E02E8C8DE812ED
:101C50000CC00FB607FCFACFE889F989808185FFAF
:101C6000F5CFCE010E94EA0DF1CF8B8DFE01E80F7A
:101C7000F11DE35AFF4FF0829FB7F8940B8FEA896A
:101C8000FB89808180620AC09FB7F894EE89FF8942
:101C90006083E889F98980818370806480839FBF35
:101CA00081E090E0DF91CF911F910F91FF90EF9035
:101CB0000895CF93DF93EC01888D8823C9F0EA89DA
:101CC000FB89808185FD05C0A889B9898C9186FD35
:101CD0000FC00FB607FCF5CF808185FFF2CFA88932
:101CE000B9898C9185FFEDCFCE010E94EA0DE7CF37
:101CF000DF91CF910895CF92DF92EF92FF921F93E1
:101D0000CF93DF93EC016A017B01122FE889F989F7
:101D100082E080834115514E61057105B1F060E0AC
:101D200079E08DE390E0A70196010E94E30EDA01CD
:101D3000C9010197A109B109B695A795979587950E
:101D40009C01211580E13807A8F0E889F989108203
:101D500060E874E88EE190E0A70196010E94E30E2E
:101D6000DA01C9010197A109B109B695A79597951F
:101D700087959C01EC85FD853083EE85FF8520836A
:101D8000188EEC89FD891083EA89FB898081806146
:101D90008083EA89FB89808188608083EA89FB8966
:101DA000808180688083EA89FB8980818F7D808340
:101DB000DF91CF911F91FF90EF90DF90CF9008952A
:101DC000F8940C94210FA1E21A2EAA1BBB1BFD0153
:101DD0000DC0AA1FBB1FEE1FFF1FA217B307E4070A
:101DE000F50720F0A21BB30BE40BF50B661F771F62
:101DF000881F991F1A9469F7609570958095909542
:101E00009B01AC01BD01CF0108950E94120FB7FFE5
:101E10000895821B930B0895EE0FFF1F0590F49118
:101E2000E02D0994A29FB001B39FC001A39F700D44
:101E3000811D1124911DB29F700D811D1124911DD2
:061E40000895F894FFCFA5
:101E4600000000000000000000000000000000008C
:101E5600000000000000000000000000000000007C
:101E6600000000000000000000000000000000006C
:101E7600000000000000000000000000000000005C
:101E8600000000000000000000000000000000004C
:101E9600000000000000000000000000000000003C
:101EA6000000000000000000FF010001000100002A
:101EB6000067020000EB02FFFFFFFFFFFFFFFF00CE
:101EC60000120200000000720B0000720B000002FC
:101ED6001B0200000000A2070000A2070000022467
:101EE60002000000009404000094040000020000B8
:101EF60000030400000002040000000104010000C9
:101F060000FFFF00000100000000000000000000CC
:101F160000000000000400FF00000400FF000014A1
:101F26000C140CFF5461736B2041002062656775C9
:101F36006E002066696E69736865643A20005461B4
:101F4600736B2042005461736B2043009F01900124
:101F56008101BD01AB081802270600BD01AB0821AF
:101F660002270601BD01AB082A02270602B801B303
:101F760001AE01EB0259024B023D0267029903AB27
:101F8600040001370A0000020301009703A90300B9
:101F960001830A0000010201009B03FB050001C545
:101FA6000A000000010100A904AB055000B80B00AF
:101FB6000003000100DA01D5010001010101010160
:101FC600003D070B071407ED0681048A066E04B36D
:101FD600068F073006380648087F078108A807B429
:101FE60008F307EB082B063D09CB07A009E1091208
:101FF600080D0A006E616E00696E66006F766600F7
:10200600000000000C0E630CDB0D590EAD0DC70D64
:02201600B90D02
:00000001FF
