:100000000C9454000C94890E0C94B00E0C947C004B
:100010000C947C000C947C000C947C000C947C0070
:100020000C947C000C947C000C947C000C947C0060
:100030000C947C000C947C000C947C000C947C0050
:100040000C947D0D0C947C000C94F1100C942311F5
:100050000C947C000C947C000C947C000C947C0030
:100060000C947C000C947C00010204081020408059
:1000700001020408102001020408102004040404F2
:100080000404040402020202020203030303030342
:1000900000000000250028002B00000000002400C4
:1000A00027002A00830E491111241FBECFEFD8E08C
:1000B000DEBFCDBF12E0A0E0B1E0E4E7FAE202C0AB
:1000C00005900D92A83CB107D9F726E0A8ECB2E064
:1000D00001C01D92A238B207E1F710E0C4E5D0E0FC
:1000E00004C02197FE010E943215C235D107C9F71D
:1000F0000E94740E0C94A9120C940000E4E10E947A
:1001000033010895E2E10E9433010895EAE00E947C
:1001100033010895E1E00E9433010895E3E00E9475
:1001200033010895E7E00E9433010895E5E00E945D
:1001300033010895E0E00E9433010895E2E00E9457
:1001400033010895E4E00E9433010895ECE00E9439
:1001500033010895EBE10E9433010895EEE00E941F
:1001600033010895E8E00E9433010895E0E10E9420
:1001700033010895EAE10E9433010895E6E00E9408
:1001800033010895E8E10E9433010895E9E00E94F7
:1001900033010895EBE00E9433010895EDE00E94E1
:1001A00033010895EFE00E9433010895E1E10E94D8
:1001B00033010895E3E10E9433010895E5E10E94CF
:1001C00033010895E7E10E9433010895E9E10E94B7
:1001D00033010895E6E10E943301089521968A9241
:1001E0009A92AA92BA92CA92DA92EA92FA920A93EE
:1001F0001A932197E0916D01F0916E010080F181D9
:10020000E02DC083D1830895C0916F01D09170011A
:10021000E881F981C081D181219619910991F990E4
:10022000E990D990C990B990A99099908990219717
:1002300008952F903F90E7E6F1E0CDB7DEB7EDBF30
:10024000FEBF3F922F9208952F903F90CDBFDEBF0B
:100250003F922F920895E0E80E9433010895E0E470
:100260000E94330108952F923F924F925F926F92B6
:100270007F922FB62F92CF93DF937E2EF894E0914A
:100280000001EF5FE0930001E13011F40E941901D9
:10029000E0E0E0937D01E72DE07849F00E947E05E3
:1002A000F0917E01F17071F00E9443040BC0E72DC4
:1002B000EC3140F4EE0FF0E0E259FD4F0190F08197
:1002C000E02D0995F0917D01EF2FE17059F0F2706A
:1002D00011F00E94EE008F938F2F0E948B038F915D
:1002E0000E9404012091000121502093000122234B
:1002F00011F40E942401DF91CF912F902FBE7F90A7
:100300006F905F904F903F902F9008958091C8021A
:100310000895CF92DF92EF92FF920F931F93DC012B
:10032000EC91DB012C918E2F8170C82ED12CE12C09
:10033000F12C8E2F8F7090E0A0E0B0E0B695A795DD
:1003400097958795DC01A159BC4F8C91C81AD108AB
:10035000E108F108EE70422F417050E060E070E07B
:10036000822F8F7090E0A0E0B0E0B695A7959795AA
:100370008795DC01A159BC4F8C91481B510961093B
:100380007109822F8E709701860101701127222733
:1003900033270E2B4170552766277727482B81E09E
:1003A00090E0041715072607370710F080E090E06B
:1003B0001F910F91FF90EF90DF90CF9008958F9253
:1003C0009F92AF92BF92EF92FF920F931F93CF93A2
:1003D000DF937C014A015B01B694A79497948794BC
:1003E0004230510561057105E0F0440F551F87014A
:1003F000040F151FE401CC0FDD1FCE0DDF1DB8016A
:10040000CE010E948901892B61F0F80190818181E0
:10041000288139813183208398838983B501A401A0
:10042000DBCFDF91CF911F910F91FF90EF90BF90A5
:10043000AF909F908F9008954F925F926F927F92AE
:100440008F929F92AF92BF92CF92DF92EF92FF92E4
:100450000F931F93CF93DF9300D000D000D0CDB780
:10046000DEB78C016A017B01DC018C91282F30E022
:1004700040E050E029833A834B835C834601570177
:10048000880C991CAA1CBB1C29813A814B815C8178
:10049000281539054A055B0508F442C024013501D9
:1004A0003FEF431A530A630A730A89819A81AB8129
:1004B000BC8184159505A605B70580F0B201660FCD
:1004C000771F600F711FC401880F991F800F911F44
:1004D0000E948901892B11F0530142013401660CFD
:1004E000771C600E711ECC0CDD1CD801AC0DBD1D3F
:1004F000BE83AD83B301CD010E948901892B81F0B8
:10050000ED81FE8190818181D3012D913C911197E4
:10051000318320839C9311968C9375016401AECF37
:1005200026960FB6F894DEBF0FBECDBFDF91CF91F8
:100530001F910F91FF90EF90DF90CF90BF90AF9001
:100540009F908F907F906F905F904F900895E2E220
:10055000F5E040814F5F408350E060E070E0E82FBD
:10056000EE0FFF0BED5CFD4F0190F081E02D238538
:1005700030E0F901E159FC4F908191509083FA01EC
:10058000EE0FFF1FEE5DFA4F220F331F9170292BE4
:100590002083818382E295E00C94DF01E2E2F5E0C2
:1005A00040814F5F408350E060E070E0E82FEE0F45
:1005B000FF0BE35DFD4F0190F081E02D9381FA0187
:1005C000EE0FFF1FEE5DFA4F9083818382E295E08C
:1005D0000C94DF01CF93DF93E2E2F5E080819FEF9F
:1005E000980F9083D281C38190E0880F991FDC011E
:1005F000AE5DBA4F8D919C919383828341E050E030
:1006000060E070E0CF010E941C028D2F9C2FDF91D3
:10061000CF9108958091C802811114C08091750115
:1006200090917601A0917701B09178018F3F2FEFE3
:100630009207A207B20741F00297A105B10534F471
:1006400081E0089584E0089580E0089582E00895AF
:10065000880F990BFC01ED5CFD4F0190F081E02DBE
:100660000084F185E02D3097E9F0228121111AC034
:1006700021E02283DC01A35DBD4F0D90BC91A02D34
:1006800013968C9113978183808190E0FC01E1594E
:10069000FC4F208121502083880F991F2170822BCD
:1006A00013968C930895880F990BFC01ED5CFD4F18
:1006B0000190F081E02D0084F185E02D309761F00C
:1006C0002281213049F412822181FC01E35DFD4F3A
:1006D0000190F081E02D238308958091790190911C
:1006E0007A01A0917B01B0917C01409175015091FC
:1006F00076016091770170917801481759076A0770
:100700007B0741F0E0917301F091740121E02483B3
:100710000C94CE020895CF93DF93882391F0C0917B
:100720006D01D0916E01E0917101F09172018481AF
:10073000833049F081E08483809175010E94CE026C
:1007400002C0C0E0D0E0E0917301F0917401F09339
:100750007201E093710180916F019091700190930B
:100760006E0180936D018091790130917A01209121
:100770007B0190917C0180937501309376012093E9
:1007800077019093780192E094830E942803CE0130
:10079000DF91CF910895809175010E945303E091FC
:1007A0007101F09172018281882319F085E08483C0
:1007B000089514820895CF93DF93282F220F330BCF
:1007C000F901E35DFD4FC081D1819A81F901ED5CB2
:1007D000FD4F0190F081E02D2485921770F4911166
:1007E00005C095E09C8391E090937E010E94A70252
:1007F0008A818F5F8A8380E001C084E0DF91CF919E
:100800000895E82FEE0FFF0BE35DFD4F0190F0819F
:10081000E02D118210820C942E0E1F93CF93DF9344
:100820000E94EA02182F892F492F092E000C550B20
:10083000660B770B4093790150937A0160937B01AB
:1008400070937C01292F220F330BF901E35DFD4FDB
:10085000C081D181D0937401C0937301F901ED5C23
:10086000FD4F208131813093700120936F019C8175
:10087000953019F40E9401041B8310927E01DF91D0
:10088000CF911F910895E0917901F0917A01EE0FD7
:10089000FF1FE35DFD4F0190F081E02D9091240555
:1008A0008381891730F40E946D030E940D0483E058
:1008B00001C080E080937D01089581E080937D01F7
:1008C0000C940D04CF93DF93C1E0D0E001C0CC0FB6
:1008D0008A95EAF782E00E94DB0380916B028C2309
:1008E00019F080E00E94DB0380916C028C2319F0E8
:1008F00081E00E94DB0380916A02C82359F0809155
:1009000022029091230221E0FC012687DF91CF9102
:100910000C94B704DF91CF9108950E9411078111C3
:100920000E943207E0917101F09172018081918102
:10093000892B21F0809175010E9443090C9468086D
:100940000E94110781110E943207E0917101F0911C
:10095000720180819181892B21F0809175010E9423
:1009600043090C94420881E08093C9020895AF9234
:10097000BF92CF92DF92EF92FF920F931F93CF938C
:10098000DF93FC01A081B181AD90BC90E501AC8901
:10099000BD89109739F0428553856485758530E0AF
:1009A00020E017C0D50155969C938E935497579687
:1009B0009C938E93569715821482138212825BC089
:1009C00012968D919C9113973A2F2B2F009779F0C7
:1009D000DC011A96CD90DD90ED90FC901D974C15A2
:1009E0005D056E057F0560F7CD01A32FB22F9383C0
:1009F0008283B583A483009719F0EC01FD83EC8317
:100A0000109729F01396FC93EE93129705C0D50129
:100A10005596FC93EE935497E501AE89BF891A96DB
:100A20008D919D910D90BC91A02D088919892A89DD
:100A30003B8980179107A207B30780F404171507B5
:100A40002607370728F0481759076A077B0798F4E5
:100A5000D5015796FC93EE9356970DC004171507D2
:100A60002607370740F4481759076A077B0718F429
:100A7000E501FF8BEE8BDF91CF911F910F91FF90DE
:100A8000EF90DF90CF90BF90AF900895CF93DF931A
:100A9000DC01ED91FC9111970190F081E02D8489AA
:100AA00095891296CD91DC911397A817B90711F487
:100AB000D58BC48B86899789A817B90711F4D78B72
:100AC000C68B209731F014968D919C9115979D833C
:100AD0008C8314960D90BC91A02D109721F0139645
:100AE000DC93CE93129786899789892B21F4848988
:100AF0009589978B868BDF91CF910895EF92FF9226
:100B00000F931F93CF93DF93FC018091C902882339
:100B100009F4B5C084859585A685B7850196A11D84
:100B2000B11D84879587A687B787408151816281EF
:100B3000738184179507A607B70709F0A0C04089FD
:100B40005189628973894F5F5F4F6F4F7F4F8481F7
:100B50009581A681B78184179507A607B70718F472
:100B600040E050E0BA01408B518B628B738B14864E
:100B7000158616861786C689D789209709F47FC0FF
:100B80008A859B85AC85BD85481759076A077B0711
:100B900009F075C0CE01DC011296ED90FC90139720
:100BA000E114F10471F0D7011A960D911D912D9168
:100BB0003C911D97401751076207730711F4C70155
:100BC000EACF2C813D812115310529F0D9011396F9
:100BD000FC92EE921297E114F10429F0D7011596D8
:100BE0003C932E93149724893589C217D30711F4A7
:100BF000F58AE48AE114F10419F0F78AE68A04C060
:100C000024893589378B268B8F01FC011382128250
:100C1000EA80FB80E881F9810280F381E02DCE013A
:100C200009954E815F81688579854115510561057A
:100C3000710509F18A859B85AC85BD85840F951F5B
:100C4000A61FB71FF8014481558166817781481737
:100C500059076A077B0738F4841B950BA60BB70B63
:100C60000197A109B1098A879B87AC87BD87CE010F
:100C70000E94B70401C01E86E701209749F6DF9164
:100C8000CF911F910F91FF90EF900895FC01828109
:100C90000C94DB03FB014485A285B385FC01042E83
:100CA000000C550B9A012E1B3F0B280F391F1216F3
:100CB00013061CF42D912193F5CF80E00895DA01FD
:100CC000109749F0ED91FC911197309721F0AB010D
:100CD000BC01CD01099481E0089581E00895EF926F
:100CE000FF920F931F93CF937B01DC0112960D911E
:100CF0001C91139701151105F1F0D8011496ED918F
:100D0000FC911597B701C8010995C82F81110AC038
:100D1000F80180819181009741F0DC01ED91FC9117
:100D2000099503C08E3009F4C0E0F80102811381F7
:100D3000CC2301F301C0C0E080E00E94D4068C2FD8
:100D4000CF911F910F91FF90EF900895EF92FF9236
:100D50000F931F93CF93DF938C017B01FC01C2851E
:100D6000D38540855185CE010E945F068823A1F07E
:100D7000F8012485F701DE01022E000C330BC901B6
:100D80008A1B9B0B8C0F9D1F181619061CF4819152
:100D90008D93F5CF80E001C08EE0DF91CF911F9160
:100DA0000F91FF90EF90089580917E0181110C9436
:100DB00043040895DC01ED91FC91119720812223D9
:100DC00041F0218114968D919C911597820F911D70
:100DD000089580E090E008950E94110780916801D5
:100DE0000895CF93C82F0E940A0381110AC0C093AF
:100DF00068018C2F0E9462040E94B304CF910C946E
:100E00005D04CF9108950C942D0ECF93C82F0E94AE
:100E10000A03811102C00E946A0E8C2FCF910C949C
:100E200082008091D6028130D9F08091CE029091DB
:100E3000CF02A091D002B091D102892B8A2B8B2BAB
:100E400079F481E04091D2025091D3026091D402B2
:100E50007091D502452B462B472B19F480E008955D
:100E600081E008951092D6021092D2021092D3021D
:100E70001092D4021092D5021092CE021092CF029C
:100E80001092D0021092D1028091CA029091CB02AE
:100E9000A091CC02B091CD028093D7029093D8025A
:100EA000A093D902B093DA0208950E946D0E80914A
:100EB000D7029091D802A091D902B091DA0201969E
:100EC000A11DB11D8093D7029093D802A093D9029F
:100ED000B093DA028091D2029091D302A091D40211
:100EE000B091D5020196A11DB11D8093D2029093BD
:100EF000D302A093D402B093D50208958091D20278
:100F00009091D302A091D402B091D5020097A1058F
:100F1000B10569F14091D7025091D8026091D90290
:100F20007091DA0241505109610971094093D70269
:100F30005093D8026093D9027093DA020197A10905
:100F4000B1098093D2029093D302A093D402B093BC
:100F5000D5028091D7029091D802A091D902B09188
:100F6000DA02892B8A2B8B2B11F40C946B0E0895CB
:100F70008091D2029091D302A091D402B091D50277
:100F8000892B8A2B8B2B89F48091CE029091CF02F2
:100F9000A091D002B091D102892B8A2B8B2B29F4FE
:100FA0000E946D0E81E08093D60208958091D60252
:100FB000882321F01092D6020C946B0E08950E94A3
:100FC000710E8091D7029091D802A091D902B09170
:100FD000DA020196A11DB11D8093D7029093D80229
:100FE000A093D902B093DA028091CE029091CF0201
:100FF000A091D002B091D1020196A11DB11D8093A4
:10100000CE029093CF02A093D002B093D102089564
:101010008091CE029091CF02A091D002B091D102E6
:101020000097A105B10569F14091D7025091D8020E
:101030006091D9027091DA02415051096109710938
:101040004093D7025093D8026093D9027093DA028A
:101050000197A109B1098093CE029093CF02A0938A
:10106000D002B093D1028091D7029091D802A09182
:10107000D902B091DA02892B8A2B8B2B11F40C94B4
:101080006F0E08950E941107882311F083E10895DF
:1010900082E00895CF93C82F0E941107811106C0E6
:1010A0000E948601882321F0C2E00FC0C3E10DC079
:1010B000C23010F0C3E009C08C2F0E94DB03C82FA0
:1010C00080917E0181110E9443048C2FCF9108955D
:1010D000CF930E941107811107C00E940A03C82FF5
:1010E000813021F082E016C083E114C0E0917101EB
:1010F000F091720180819181892B11F086E00AC004
:101100008281815082830E94CB03C0937D010E9423
:101110000D0480E0CF910895CF93DF93C82F0E94F4
:101120001107811109C00E940A03D82F813031F4C0
:10113000C23030F0C3E025C0C3E123C0C2E021C00B
:10114000E0917101F091720180819181892BC1F44C
:101150008281815082838C2F0E94DB03C82F8111F2
:1011600007C00E94CB03D0937D010E940D0409C0EB
:10117000E0917101F091720182818F5F828301C0E1
:10118000C6E08C2FDF91CF9108950E941107811145
:1011900006C00E940A03813021F082E0089583E1B5
:1011A0000895E0917101F091720180819181892B04
:1011B00011F086E00895809175010E9453030E940A
:1011C00043048091750190917601A0917701B091CF
:1011D00078014091790150917A0160917B01709181
:1011E0007C0184179507A607B70711F40E9428030E
:1011F00080E00895CF93DF93EC010E9411078111E5
:1012000016C00E948601811114C0809175019091D1
:101210007601A0917701B091780182309105A10506
:10122000B10514F08091C101888380E003C083E19F
:1012300001C082E0DF91CF9108950F931F93CF9368
:10124000C82F8B010E941107811106C00E948601E0
:10125000882321F082E013C083E111C0C23010F076
:1012600083E00DC0EC2FEE0FFF0BE35DFD4F01900F
:10127000F081E02D84818370F801808380E0CF913C
:101280001F910F910895880F990BFC01E35DFD4FAD
:10129000A081B181ED91FC911197309769F01D9279
:1012A0001C922091C1019381848122831482138234
:1012B000E92FF82F3097B9F70895CF93C82F0E94E0
:1012C0001107811108C00E948601811106C0C23039
:1012D00030F083E045C083E143C082E041C0EC2FA1
:1012E000F0E0EE0FFF1FED59FD4F0190F081E02D72
:1012F00092818091C101981309C0A0916D01B091B4
:101300006E011B969C918081891710F481E028C0A2
:10131000809175018283A0917101B09172018D91CC
:101320009C911197948383831196FC93EE9313966B
:101330008C9113978183808113969C911397969536
:10134000981768F490E0FC01E159FC4F208121508E
:101350002083880F991F2170822B13968C9380E035
:10136000CF910895CF93C82F0E941107811106C015
:101370000E948601882321F082E036C083E134C0D8
:10138000C23010F083E030C0EC2FF0E0EE0FFF1F12
:10139000ED59FD4F0190F081E02DA0916D01B091CC
:1013A0006E011B969C9180818917D8F0A0917101E4
:1013B000B09172018D919C911197E817F90799F4FA
:1013C000818113968C931397838194818D939C9341
:1013D000148213828091C10182830E94430480E0C1
:1013E00003C081E001C085E0CF910895DC01ED915B
:1013F000FC9184819581DC01ED91FC9109941F930E
:10140000CF93DF93182FEB010E941107811106C0C3
:101410000E948601882321F082E029C083E127C051
:10142000112311F083E023C0E0912202F091230206
:101430000190F081E02D0190F081E02D808191817B
:10144000A281B3818C839D83AE83BF838481958188
:10145000A681B78188839983AA83BB838085918580
:10146000A285B38588879987AA87BB8780E0DF91AB
:10147000CF911F9108950F931F93CF93DF93182F50
:10148000EB010E941107811107C00E9486018111A2
:1014900005C0111133C004C083E131C082E02FC008
:1014A000E0912202F09123028685813029F5828520
:1014B0009385A485B5850190F081E02D0190F081A0
:1014C000E02D408951896289738984179507A607A1
:1014D000B70740F40481158126813781800F911F61
:1014E000A21FB31F841B950BA60BB70B8883998390
:1014F000AA83BB8380E003C085E001C083E0DF9165
:10150000CF911F910F9108958F929F92AF92BF92AA
:10151000CF92DF92EF92FF920F931F93CF93DF93BF
:10152000C82F4A015B01680179010E9411078111EE
:1015300007C00E948601811105C0C11118C004C0F6
:1015400083E154C082E052C0E0912202F091230274
:10155000A081B181CD91DC918C819D81AE81BF81D3
:1015600088159905AA05BB0508F43FC002C083E0B1
:101570003DC0C114D104E104F10471F08C159D0546
:10158000AE05BF0590F1488559856A857B85C416EF
:10159000D506E606F70648F12685211124C04889BC
:1015A00059896A897B89480D591D6A1D7B1D8417DD
:1015B0009507A607B70740F4481B590B6A0B7B0B2E
:1015C00041505109610971094287538764877587C2
:1015D000C682D782E086F18681E08687CF010E94AD
:1015E000B70480E003C087E001C088E0DF91CF91BD
:1015F0001F910F91FF90EF90DF90CF90BF90AF9031
:101600009F908F9008958F929F92AF92BF92CF92AA
:10161000DF92EF92FF920F931F93CF93C82F4A014F
:101620005B01680179010E941107811108C00E94C5
:101630008601811106C0CC2331F083E042C083E1F2
:1016400040C082E03EC0E0912202F0912302A081DE
:10165000B1810D90BC91A02D14964D915D916D912D
:101660007C911797481559056A057B05A8F0C114A8
:10167000D104E104F10491F04C155D056E057F0580
:1016800058F018968D919D910D90BC91A02DC81683
:10169000D906EA06FB0610F488E013C0868581119E
:1016A0000FC082869386A486B586C682D782E086DE
:1016B000F18681E08687CF010E94B70480E001C0F7
:1016C00087E0CF911F910F91FF90EF90DF90CF9027
:1016D000BF90AF909F908F900895CF93DF93C82FC6
:1016E0000E941107811106C00E948601882321F003
:1016F00082E014C083E112C0CC2311F083E00EC05D
:10170000C0912202D09123028E85813031F4CE0126
:101710000E9446051E8680E001C085E0DF91CF91E2
:101720000895CF93DF93880F991FFC01E05FFD4F71
:101730000190F081E02D8585882369F0C285D385ED
:10174000CF010A960E94DA06892B39F08A81882314
:1017500031F08CE005C08AE003C08DE001C080E07C
:10176000DF91CF910895880F991FFC01E65FFD4F2F
:1017700080819181DC01ED91FC9109949B01880F9E
:10178000991FFC01E05FFD4F60817181DB011696BE
:10179000ED91FC911797C9010994880F991FFC01DD
:1017A000E65FFD4F80819181DC01ED91FC9160E06D
:1017B00070E0099580E0089560E08EE00E94410DA0
:1017C00026E040E855E260E070E083E893E00C94A6
:1017D0004412CF938EE00E940F0E9093E602809306
:1017E000E502C09169028C2F0E94C2008091E7023D
:1017F0009091E8028334910550F062EC71E083E847
:1018000093E00E94230F8C2F0E94C60057C0E091E6
:10181000E302F091E402EE0FFF1FE751FD4F20912C
:10182000E5023091E6023183208301969093E8022D
:101830008093E70268ED71E083E893E00E94160F61
:101840006091E5027091E6024AE050E083E893E09F
:101850000E94EB0F6CED71E083E893E00E94160F9D
:101860006091E7027091E8024AE050E083E893E07B
:101870000E94910F8091E7029091E802C29770F068
:1018800060EE71E083E893E00E94230F6BE671E065
:1018900080916702909168020E94DE008C2F0E9466
:1018A000C6008091E3029091E402019663E470E047
:1018B0000E94E8149093E4028093E302CF910C9489
:1018C000AA008F929F92AF92BF92EF92FF920F93D6
:1018D0001F93CF93DF93C0E0D0E003E410E0F090DB
:1018E0006902EF2C2091E1023091E202C9010196D8
:1018F000B8010E94E8149093E0028093DF02C901CE
:101900008E5B9F4FB8010E94E8149093DE02809393
:10191000DD028F2D0E94C2002091E1023091E2028F
:101920008091DD029091DE02220F331FF901E75111
:10193000FD4F20813181880F991FFC01E751FD4F38
:1019400080819181C133D10599F0821793070CF002
:1019500065C0E091DF02F091E002EE0FFF1FE7515A
:10196000FD4F80819181821793070CF057C008C00A
:10197000821793070CF052C0293E33400CF44EC03E
:101980006AEF71E083E893E00E94160FE091E102B4
:10199000F091E202EE0FFF1FE751FD4F6081718170
:1019A0004AE050E083E893E00E94F20F80916901E1
:1019B00090916A01892B49F010926A011092690195
:1019C0001092DC021092DB0229C06091DB02709160
:1019D000DC02072E000C880B990B0E94C1132AE031
:1019E00037ED43EA5CE30E9476149B01AC0160E0B2
:1019F00070E080E792E40E941E134B015C0163E0FB
:101A000072E083E893E00E94160F22E030E0B50117
:101A1000A40183E893E00E94DF10D2CF8091E70217
:101A20009091E80201979093E8028093E7028E2D4F
:101A30000E94C6008091DB029091DC020196909397
:101A4000DC028093DB028091DF029091E0029093B0
:101A5000E2028093E1022196C233D10509F042CF20
:101A6000DF91CF911F910F91FF90EF90BF90AF90BA
:101A70009F908F900C94AA008AE991E00C942B011E
:101A80000895CF93DF9390E0FC01E859FF4F249134
:101A9000FC01E458FF4F8491882361F190E0880FA6
:101AA000991FFC01E656FF4FC591D491FC01E05708
:101AB000FF4FA591B491611109C09FB7F894888137
:101AC000209582238883EC912E230BC0623061F431
:101AD0009FB7F8948881322F309583238883EC91C7
:101AE0002E2B2C939FBF06C08FB7F894E8812E2B26
:101AF00028838FBFDF91CF9108951F920F920FB669
:101B00000F9211242F933F934F935F936F937F9383
:101B10008F939F93AF93BF93EF93FF9380917A033B
:101B200090917B03A0917C03B0917D033091790368
:101B300023E0230F2D3720F40196A11DB11D05C010
:101B400026E8230F0296A11DB11D209379038093EF
:101B50007A0390937B03A0937C03B0937D038091E1
:101B60007E0390917F03A0918003B0918103019641
:101B7000A11DB11D80937E0390937F03A0938003EA
:101B8000B09381030E943C0DFF91EF91BF91AF9103
:101B90009F918F917F916F915F914F913F912F9185
:101BA0000F900FBE0F901F90189584B5826084BD72
:101BB00084B5816084BD85B5826085BD85B5816051
:101BC00085BDEEE6F0E0808181608083E1E8F0E0B1
:101BD0001082808182608083808181608083E0E8E0
:101BE000F0E0808181608083E1EBF0E080818460BF
:101BF0008083E0EBF0E0808181608083EAE7F0E0C1
:101C00008081846080838081826080838081816024
:101C100080838081806880831092C10008958E3017
:101C200008F08E502091BC0190E4299F900111246E
:101C30008770822B80937C0080917A0080648093EF
:101C40007A0080917A0086FDFCCF80917800209107
:101C5000790090E0922B0895FFCFFFCFCF93DF93D1
:101C6000880F990BFC01ED5CFD4FC081D181AC81E7
:101C7000BD8111978A819B81A80FB91F2D85CD0148
:101C80000197FD013297223019F422EA30E002C0B8
:101C90002EEB30E02C93DC013C939E818F8190836E
:101CA000DF018E93CF0107971E928A179B07E1F7FA
:101CB00080E8DF0118978C93CF0144971E928A1712
:101CC0009B07E1F7A881B9817597ED93FC93DF91AC
:101CD000CF910895089578940895F894089578948C
:101CE0000895F894089508950E94D50D0E94730EEA
:101CF0000E94400D0E94DC0B809182030E94050728
:101D000080E090E0089580916D02809382030895B1
:101D100008951F920F920FB60F9211242F933F93A5
:101D20004F935F936F937F938F939F93AF93BF93E3
:101D3000EF93FF93E091BD01F091BE010995FF91F2
:101D4000EF91BF91AF919F918F917F916F915F9133
:101D50004F913F912F910F900FBE0F901F901895AC
:101D60001F920F920FB60F9211242F933F934F9310
:101D70005F936F937F938F939F93AF93BF93EF93F3
:101D8000FF93E091BF01F091C0010995FF91EF91A0
:101D9000BF91AF919F918F917F916F915F914F9183
:101DA0003F912F910F900FBE0F901F901895CF92DB
:101DB000DF92EF92FF920F931F93CF93DF936C010B
:101DC0007A018B01C0E0D0E0CE15DF0581F0D801AB
:101DD0006D918D01D601ED91FC910190F081E02D86
:101DE000C6010995892B11F02196EECF7E01C7011E
:101DF000DF91CF911F910F91FF90EF90DF90CF90E7
:101E000008956115710579F0FB0101900020E9F753
:101E10003197AF01461B570BDC01ED91FC9102801D
:101E2000F381E02D099480E090E008950C94010F77
:101E3000DC01ED91FC910190F081E02D099466EABE
:101E400072E00C94010F0F931F93CF93DF93EC017B
:101E50000E94010F8C01CE010E941F0F800F911F65
:101E6000DF91CF911F910F9108958F929F92AF9222
:101E7000BF92EF92FF920F931F93CF93DF93CDB753
:101E8000DEB7A1970FB6F894DEBF0FBECDBF7C01C1
:101E9000FA01CB0119A2223008F42AE08E010F5D6D
:101EA0001F4F822E912CA12CB12CBF01A5019401B2
:101EB0000E94FC14F901CA01015011096A3014F49E
:101EC000605D01C0695CD8016C93232B242B252B0A
:101ED00061F7B801C7010E94010FA1960FB6F894EF
:101EE000DEBF0FBECDBFDF91CF911F910F91FF904D
:101EF000EF90BF90AF909F908F900895211531057E
:101F000041F4DC01ED91FC910190F081E02D642F12
:101F100009940C94350F9A01AB0160E070E00C94C9
:101F20007E0F0F931F93CF93DF93EC010E948B0FD3
:101F30008C01CE010E941F0F800F911FDF91CF9166
:101F40001F910F910895CF92DF92EF92FF920F931E
:101F50001F93CF93DF932115310581F4DC01ED91BF
:101F6000FC910190F081E02D642FDF91CF911F91C2
:101F70000F91FF90EF90DF90CF9009942A303105B8
:101F800001F577FF1DC06A017B01EC016DE20E9443
:101F9000180F8C0144275527BA014C195D096E09A9
:101FA0007F092AE0CE010E94350F800F911FDF913B
:101FB000CF911F910F91FF90EF90DF90CF900895F8
:101FC0002AE0DF91CF911F910F91FF90EF90DF906A
:101FD000CF900C94350F9A01AB01770F660B770BFE
:101FE0000C94A30F0F931F93CF93DF93EC010E94E8
:101FF000EB0F8C01CE010E941F0F800F911FDF910C
:10200000CF911F910F9108957F928F929F92AF92DF
:10201000BF92CF92DF92EF92FF920F931F93CF93D5
:10202000DF938C016A017B01722E9A01AB01C7011B
:10203000B6010E94E314882319F069EA72E027C010
:1020400046015701E894B7F82FEF3FEF4FE75FE7FE
:10205000C501B4010E94E31481110DC02FEF3FEFC1
:102060004FE75FE7C501B4010E94191318161CF46D
:102070006DEA72E00CC02FEF3FEF4FE75FE4C7015E
:10208000B6010E947114181694F461EB72E0C80155
:10209000DF91CF911F910F91FF90EF90DF90CF9044
:1020A000BF90AF909F908F907F900C94010F2FEF77
:1020B0003FEF4FE75FECC701B6010E94191387FDA0
:1020C000E4CF20E030E0A901C701B6010E94191356
:1020D00087FF0AC06DE2C8010E94180FEC01F7FAF1
:1020E000F094F7F8F09402C0C0E0D0E0B12C60E0CA
:1020F00070E080E09FE37B1441F020E030E040E2BC
:1021000051E40E941E13B394F6CFA70196010E94DA
:10211000AD126B017C010E9490134B015C012AE01F
:10212000AB01BC01C8010E94350FC80FD91F772031
:10213000B9F1C501B4010E94BF139B01AC01C701F5
:10214000B6010E94AC126B017C016EE2C8010E94D4
:10215000180FC80FD91F20E030E040E251E4C7015A
:10216000B6010E9476144B015C010E9490136B0132
:102170007C014AE050E0C8010E948B0FC80FD91FB4
:10218000B60180E090E00E94BF139B01AC01C50145
:10219000B4010E94AC126B017C017A947110DBCF08
:1021A000CE01DF91CF911F910F91FF90EF90DF90C3
:1021B000CF90BF90AF909F908F907F9008950F9396
:1021C0001F93CF93DF93EC010E9404108C01CE018A
:1021D0000E941F0F800F911FDF91CF911F910F91D0
:1021E00008951F920F920FB60F9211242F938F9381
:1021F0009F93EF93FF93E0919303F0919403808179
:10220000E0919903F0919A0382FD12C09081809130
:102210009C038F5F8F7320919D03821751F0E09193
:102220009C03F0E0ED57FC4F958F80939C0301C019
:102230008081FF91EF919F918F912F910F900FBE11
:102240000F901F9018951F920F920FB60F921124A6
:102250002F933F934F935F936F937F938F939F93AE
:10226000AF93BF93EF93FF9383E893E00E94B31182
:10227000FF91EF91BF91AF919F918F917F916F915E
:102280005F914F913F912F910F900FBE0F901F9034
:102290001895E3E8F3E01382128288EE93E0A0E061
:1022A000B0E084839583A683B78389EB92E0918322
:1022B000808385EC90E09587848784EC90E0978715
:1022C000868780EC90E0918B808B81EC90E0938B03
:1022D000828B82EC90E0958B848B86EC90E0978BE0
:1022E000868B118E128E138E148E0895FC01918DA3
:1022F000228D892F90E0805C9F4F821B91098F7304
:1023000099270895FC01918D828D981731F0828D67
:10231000E80FF11D858D90E008958FEF9FEF0895F0
:10232000FC01918D828D981761F0828DDF01A80FDD
:10233000B11D5D968C91928D9F5F9F73928F90E0FF
:1023400008958FEF9FEF0895FC01538D448D252F45
:1023500030E0842F90E0821B930B541710F0CF963F
:10236000089501970895FC01848DDF01A80FB11D28
:10237000A35ABF4F2C91848D90E001968F739927BB
:10238000848FA689B7892C93A089B1898C91837099
:1023900080648C93938D848D981306C00288F38992
:1023A000E02D80818F7D80830895EF92FF920F93BF
:1023B0001F93CF93DF93EC0181E0888F9B8D8C8DF1
:1023C000981305C0E889F989808185FD26C0F62E1D
:1023D0000B8D10E00F5F1F4F0F731127E02E8C8DB8
:1023E000E8120CC00FB607FCFACFE889F9898081A2
:1023F00085FFF5CFCE010E94B311F1CF8B8DFE0189
:10240000E80FF11DE35AFF4FF0829FB7F8940B8F4E
:10241000EA89FB89808180620AC09FB7F894EE89BF
:10242000FF896083E889F989808183708064808373
:102430009FBF81E090E0DF91CF911F910F91FF90BE
:10244000EF900895CF93DF93EC01888D8823C9F036
:10245000EA89FB89808185FD05C0A889B9898C91AD
:1024600086FD0FC00FB607FCF5CF808185FFF2CF48
:10247000A889B9898C9185FFEDCFCE010E94B31157
:10248000E7CFDF91CF910895CF92DF92EF92FF9245
:102490001F93CF93DF93EC016A017B01122FE88930
:1024A000F98982E080834115514E61057105B1F0D3
:1024B00060E079E08DE390E0A70196010E94FC14B2
:1024C000DA01C9010197A109B109B695A7959795B8
:1024D00087959C01211580E13807A8F0E889F989E2
:1024E000108260E874E88EE190E0A70196010E94F6
:1024F000FC14DA01C9010197A109B109B695A795A4
:10250000979587959C01EC85FD853083EE85FF8549
:102510002083188EEC89FD891083EA89FB898081EC
:1025200080618083EA89FB89808188608083EA8971
:10253000FB89808180688083EA89FB8980818F7D27
:102540008083DF91CF911F91FF90EF90DF90CF902C
:102550000895F8940C9438155058BB27AA270E9468
:10256000C4120C9437140E94291438F00E943014BD
:1025700020F039F49F3F19F426F40C9426140EF43D
:10258000E095E7FB0C942014E92F0E94481458F3BF
:10259000BA17620773078407950720F079F4A6F548
:1025A0000C946A140EF4E0950B2EBA2FA02D0B019B
:1025B000B90190010C01CA01A0011124FF27591B88
:1025C00099F0593F50F4503E68F11A16F040A22F8E
:1025D000232F342F4427585FF3CF469537952795FF
:1025E000A795F0405395C9F77EF41F16BA0B620BFE
:1025F000730B840BBAF09150A1F0FF0FBB1F661F45
:10260000771F881FC2F70EC0BA0F621F731F841F87
:1026100048F4879577956795B795F7959E3F08F0AD
:10262000B0CF9395880F08F09927EE0F979587956F
:1026300008950E94FC1308F481E008950E9432136B
:102640000C9437140E94301458F00E94291440F062
:1026500029F45F3F29F00C94201451110C946B1451
:102660000C9426140E94481468F39923B1F355235F
:1026700091F3951B550BBB27AA2762177307840795
:1026800038F09F5F5F4F220F331F441FAA1FA9F32B
:1026900035D00E2E3AF0E0E832D091505040E69519
:1026A000001CCAF72BD0FE2F29D0660F771F881F7A
:1026B000BB1F261737074807AB07B0E809F0BB0B6D
:1026C000802DBF01FF2793585F4F3AF09E3F510581
:1026D00078F00C9420140C946B145F3FE4F3983E54
:1026E000D4F3869577956795B795F7959F5FC9F76A
:1026F000880F911D9695879597F90895E1E0660FEB
:10270000771F881FBB1F621773078407BA0720F063
:10271000621B730B840BBA0BEE1F88F7E0950895CC
:102720000E94501488F09F5798F0B92F9927B751FD
:10273000B0F0E1F0660F771F881F991F1AF0BA9565
:10274000C9F714C0B13091F00E946A14B1E0089545
:102750000C946A14672F782F8827B85F39F0B93F37
:10276000CCF3869577956795B395D9F73EF4909518
:102770008095709561957F4F8F4F9F4F0895E89496
:1027800009C097FB3EF490958095709561957F4FB9
:102790008F4F9F4F9923A9F0F92F96E9BB27939567
:1027A000F695879577956795B795F111F8CFFAF477
:1027B000BB0F11F460FF1BC06F5F7F4F8F4F9F4FA8
:1027C00016C0882311F096E911C0772321F09EE806
:1027D000872F762F05C0662371F096E8862F70E06C
:1027E00060E02AF09A95660F771F881FDAF7880F46
:1027F0009695879597F90895990F0008550FAA0B9C
:10280000E0E8FEEF16161706E807F907C0F0121603
:102810001306E407F50798F0621B730B840B950B06
:1028200039F40A2661F0232B242B252B21F408955B
:102830000A2609F4A140A6958FEF811D811D0895F8
:1028400097F99F6780E870E060E008959FEF80EC63
:10285000089500240A941616170618060906089506
:1028600000240A9412161306140605060895092E6C
:102870000394000C11F4882352F0BB0F40F4BF2BDB
:1028800011F460FF04C06F5F7F4F8F4F9F4F08951B
:1028900057FD9058440F551F59F05F3F71F0479511
:1028A000880F97FB991F61F09F3F79F087950895F6
:1028B000121613061406551FF2CF4695F1DF08C015
:1028C000161617061806991FF1CF86957105610532
:1028D00008940895E894BB2766277727CB0197F9DA
:1028E00008950E94FC1308F48FEF08950E94891444
:1028F0000C9437140E94291438F00E94301420F0F0
:10290000952311F00C9420140C94261411240C948B
:102910006B140E94481470F3959FC1F3950F50E01B
:10292000551F629FF001729FBB27F00DB11D639F81
:10293000AA27F00DB11DAA1F649F6627B00DA11D27
:10294000661F829F2227B00DA11D621F739FB00DCD
:10295000A11D621F839FA00D611D221F749F33273D
:10296000A00D611D231F849F600D211D822F762FD6
:102970006A2F11249F5750409AF0F1F088234AF0B3
:10298000EE0FFF1FBB1F661F771F881F915050401F
:10299000A9F79E3F510580F00C9420140C946B1401
:1029A0005F3FE4F3983ED4F3869577956795B795A6
:1029B000F795E7959F5FC1F7FE2B880F911D9695C0
:1029C000879597F908950E94FC13880B990B089539
:1029D00097FB072E16F4009407D077FD09D00E94CC
:1029E0001E1507FC05D03EF4909581959F4F0895E4
:1029F000709561957F4F0895A1E21A2EAA1BBB1B0B
:102A0000FD010DC0AA1FBB1FEE1FFF1FA217B307BA
:102A1000E407F50720F0A21BB30BE40BF50B661FD0
:102A2000771F881F991F1A9469F760957095809594
:102A300090959B01AC01BD01CF010895AA1BBB1B62
:102A400051E107C0AA1FBB1FA617B70710F0A61BAE
:102A5000B70B881F991F5A95A9F780959095BC01CF
:102A6000CD010895EE0FFF1F0590F491E02D09941C
:042A7000F894FFCF08
:102A74000000000000000000000000000000000052
:102A84000000000000000000000000000000000042
:102A94000000000000000000000000000000000032
:102AA4000000000000000000000000000000000022
:102AB4000000000000000000000000000000000012
:102AC4000000000000000000000000000000000002
:102AD4000000000000000000FF010001000000559C
:102AE4000200007403FFFFFFFFFFFFFFFF00006D04
:102AF400062402000000001400000014000000027C
:102B04000000000204000000010001000000FFFFBB
:102B140000000100000000000000000000000000B0
:102B240000000300FF00000300FF000001880E887E
:102B34000EFF4552524F523A205175657565204F2C
:102B4400766572666C6F7700533A2000097C20002A
:102B54002D2D2D2D2D2D2D416374697661746520E5
:102B6400432D2D2D2D2D2D2D2D0009095045414B83
:102B74003A2000090948523A20000C026F0612025A
:102B840012021F020000A6064A067F012E05024615
:102B9400060081019A01F6092A0246060195019070
:102BA400017403470239025502800620040001E93A
:102BB4000B000001020100200580050001610C00EA
:102BC40000000101002C05300550002C0E0000020D
:102BD400000100B701B20100000001000100080873
:102BE400D607DF07B807A00455078D047E07C5087C
:102BF400B2090307FF094A083B0A8C08840AFA0849
:102C0400030BF1066D0BEC06B30B910BBE0B5D09C8
:102C1400CD0B1D0968080D0A006E616E00696E66B1
:102C2400006F76660000000000D511D70EA41122B3
:082C34001276119011821100CB
:00000001FF
