:100000000C9436000C94740D0C949B0D0C945E00B3
:100010000C945E000C945E000C945E000C945E00E8
:100020000C945E000C945E000C945E000C945E00D8
:100030000C945E000C945E000C945E000C945E00C8
:100040000C94790C0C945E000C94870E0C94B90EF1
:100050000C945E000C945E000C945E000C945E00A8
:100060000C945E000C945E006E0DDF0E11241FBE1A
:10007000CFEFD8E0DEBFCDBF12E0A0E0B1E0E4E01A
:10008000F1E202C005900D92AE3EB107D9F727E02C
:10009000AEEEB2E001C01D92AA34B207E1F710E063
:1000A000C6E3D0E004C02197FE010E946B10C43368
:1000B000D107C9F70E945F0D0C943F100C9400000B
:1000C000E2E10E9405010895E9E00E94050108951A
:1000D000EAE00E9405010895E1E00E94050108950B
:1000E000E3E00E9405010895E7E00E9405010895FC
:1000F000E5E00E9405010895E0E00E9405010895F1
:10010000E2E00E9405010895E4E00E9405010895DF
:10011000ECE00E9405010895E8E00E9405010895C1
:10012000EEE00E9405010895E4E10E9405010895B2
:10013000E0E10E9405010895E7E10E9405010895AC
:10014000E6E00E9405010895EBE00E940501089594
:10015000EDE00E9405010895EFE00E940501089579
:10016000E1E10E9405010895E3E10E94050108957F
:10017000E5E10E9405010895E6E10E940501089568
:1001800021968A929A92AA92BA92CA92DA92EA92A4
:10019000FA920A931A932197E0916901F0916A010A
:1001A0000080F181E02DC083D1830895C0916B015F
:1001B000D0916C01E881F981C081D181219619919A
:1001C0000991F990E990D990C990B990A990999026
:1001D0008990219708952F903F90E7E6F1E0CDB701
:1001E000DEB7EDBFFEBF3F922F9208952F903F9054
:1001F000CDBFDEBF3F922F920895E0E80E94050137
:100200000895E0E40E94050108952F923F924F92D5
:100210005F926F927F922FB62F92CF93DF937E2EB5
:10022000F894E0910001EF5FE0930001E13011F4F8
:100230000E94EB00E0E0E0937901E72DE07849F0DF
:100240000E945F05F0917A01F17071F00E94120432
:100250000BC0E72DEC3140F4EE0FF0E0E456FD4F1B
:100260000190F081E02D0995F0917901EF2FE17077
:1002700059F0F27011F00E94C0008F938F2F0E94EE
:100280005A038F910E94D6002091000121502093A3
:100290000001222311F40E94F600DF91CF912F90EC
:1002A0002FBE7F906F905F904F903F902F9008955A
:1002B000CF92DF92EF92FF920F931F93DC01EC91AC
:1002C000DB012C918E2F8170C82ED12CE12CF12CCA
:1002D0008E2F8F7090E0A0E0B0E0B695A79597952F
:1002E0008795DC01A95CBC4F8C91C81AD108E10844
:1002F000F108EE70422F417050E060E070E0822F14
:100300008F7090E0A0E0B0E0B695A795979587959F
:10031000DC01A95CBC4F8C91481B51096109710932
:10032000822F8E70970186010170112722273327B3
:100330000E2B4170552766277727482B81E090E0E8
:10034000041715072607370710F080E090E01F918B
:100350000F91FF90EF90DF90CF9008958F929F9232
:10036000AF92BF92EF92FF920F931F93CF93DF93C1
:100370007C014A015B01B694A7949794879442301C
:10038000510561057105E0F0440F551F8701040F09
:10039000151FE401CC0FDD1FCE0DDF1DB801CE010E
:1003A0000E945801892B61F0F80190818181288198
:1003B00039813183208398838983B501A401DBCF00
:1003C000DF91CF911F910F91FF90EF90BF90AF9071
:1003D0009F908F9008954F925F926F927F928F922D
:1003E0009F92AF92BF92CF92DF92EF92FF920F93C4
:1003F0001F93CF93DF9300D000D000D0CDB7DEB7EE
:100400008C016A017B01DC018C91282F30E040E0F7
:1004100050E029833A834B835C8346015701880C63
:10042000991CAA1CBB1C29813A814B815C8128152F
:1004300039054A055B0508F442C0240135013FEF48
:10044000431A530A630A730A89819A81AB81BC817A
:1004500084159505A605B70580F0B201660F771FD4
:10046000600F711FC401880F991F800F911F0E9498
:100470005801892B11F0530142013401660C771C9D
:10048000600E711ECC0CDD1CD801AC0DBD1DBE83F1
:10049000AD83B301CD010E945801892B81F0ED811C
:1004A000FE8190818181D3012D913C9111973183FF
:1004B00020839C9311968C9375016401AECF269690
:1004C0000FB6F894DEBF0FBECDBFDF91CF911F9165
:1004D0000F91FF90EF90DF90CF90BF90AF909F90E3
:1004E0008F907F906F905F904F900895EEEEF3E0C5
:1004F00040814F5F408350E060E070E0E82FEE0FF6
:10050000FF0BED5AFD4F0190F081E02D238530E087
:10051000F901E95CFC4F908191509083FA01EE0F54
:10052000FF1FE251FC4F220F331F9170292B2083B4
:1005300081838EEE93E00C94AE01EEEEF3E0408109
:100540004F5F408350E060E070E0E82FEE0FFF0B5C
:10055000E55BFD4F0190F081E02D9381FA01EE0FF4
:10056000FF1FE251FC4F908381838EEE93E00C9449
:10057000AE01CF93DF93EEEEF3E080819FEF980F13
:100580009083D281C38190E0880F991FDC01A25132
:10059000BC4F8D919C919383828341E050E060E059
:1005A00070E0CF010E94EB018D2F9C2FDF91CF9146
:1005B00008958091EE02811114C080917101909193
:1005C0007201A0917301B09174018F3F2FEF9207D8
:1005D000A207B20741F00397A105B10534F481E009
:1005E000089584E0089580E0089582E00895880FDA
:1005F000990BFC01ED5AFD4F0190F081E02D008434
:10060000F185E02D3097E9F0228121111AC021E017
:100610002283DC01A55BBD4F0D90BC91A02D1396EC
:100620008C9113978183808190E0FC01E95CFC4F01
:10063000208121502083880F991F2170822B1396CF
:100640008C930895880F990BFC01ED5AFD4F019092
:10065000F081E02D0084F185E02D309761F022815A
:10066000213049F412822181FC01E55BFD4F0190AC
:10067000F081E02D2383089580917501909176019A
:10068000A0917701B0917801409171015091720170
:100690006091730170917401481759076A077B07CD
:1006A00041F0E0916F01F091700121E024830C94FE
:1006B0009D020895CF93DF93882391F0C091690143
:1006C000D0916A01E0916D01F0916E0184818330D7
:1006D00049F081E08483809171010E949D0202C0F3
:1006E000C0E0D0E0E0916F01F0917001F0936E01F5
:1006F000E0936D0180916B0190916C0190936A0180
:100700008093690180917501309176012091770184
:10071000909178018093710130937201209373015D
:100720009093740192E094830E94F702CE01DF91CE
:10073000CF910895809171010E942203E0916D0193
:10074000F0916E018281882319F085E084830895F9
:1007500014820895CF93DF93282F220F330BF901D2
:10076000E55BFD4FC081D1819A81F901ED5AFD4FC2
:100770000190F081E02D2485921770F4911105C04D
:1007800095E09C8391E090937A010E9476028A81A1
:100790008F5F8A8380E001C084E0DF91CF9108956C
:1007A000E82FEE0FFF0BE55BFD4F0190F081E02D90
:1007B000118210820C94190D1F93CF93DF930E9426
:1007C000B902182F892F492F092E000C550B660BE3
:1007D000770B409375015093760160937701709386
:1007E0007801292F220F330BF901E55BFD4FC08102
:1007F000D181D0937001C0936F01F901ED5AFD4F83
:100800002081318130936C0120936B019C81953064
:1008100019F40E94D0031B8310927A01DF91CF91CB
:100820001F910895E0917501F0917601EE0FFF1F81
:10083000E55BFD4F0190F081E02D9091F003838105
:10084000891730F40E943C030E94DC0383E001C05E
:1008500080E080937901089581E0809379010C9480
:10086000DC03EF92FF920F931F93CF93DF93C1E0CE
:1008700001C0CC0F8A95EAF783E00E94AA0308E939
:1008800012E0D0E0F80181918F018C2319F08D2FB7
:100890000E94AA03DF5FD330A9F705E912E08AE2DC
:1008A000E82E82E0F82ED1E0F80181918F018C23AF
:1008B00039F0F70180819181FC01D6870E9498046C
:1008C000F2E0EF0EF11C82E00839180769F7DF91BA
:1008D000CF911F910F91FF90EF9008950E944606CF
:1008E00081110E946706E0916D01F0916E01808197
:1008F0009181892B21F0809171010E942E080C9426
:100900008F070E94460681110E946706E0916D01E3
:10091000F0916E0180819181892B21F0809171018C
:100920000E942E080C94770781E08093EF020895CF
:10093000AF92BF92CF92DF92EF92FF920F931F93ED
:10094000CF93DF93FC01A081B181AD90BC90E50114
:10095000AC89BD89109739F04285538564857585CA
:1009600030E020E017C0D50155969C938E935497A4
:1009700057969C938E9356971582148213821282F7
:100980005BC012968D919C9113973A2F2B2F009755
:1009900079F0DC011A96CD90DD90ED90FC901D97DA
:1009A0004C155D056E057F0560F7CD01A32FB22FB5
:1009B00093838283B583A483009719F0EC01FD83B0
:1009C000EC83109729F01396FC93EE93129705C0D1
:1009D000D5015596FC93EE935497E501AE89BF89F6
:1009E0001A968D919D910D90BC91A02D0889198921
:1009F0002A893B8980179107A207B30780F404175F
:100A000015072607370728F0481759076A077B0795
:100A100098F4D5015796FC93EE9356970DC00417A2
:100A200015072607370740F4481759076A077B0759
:100A300018F4E501FF8BEE8BDF91CF911F910F91A1
:100A4000FF90EF90DF90CF90BF90AF900895CF933D
:100A5000DF93DC01ED91FC9111970190F081E02D85
:100A6000848995891296CD91DC911397A817B907BF
:100A700011F4D58BC48B86899789A817B90711F40F
:100A8000D78BC68B209731F014968D919C9115973A
:100A90009D838C8314960D90BC91A02D109721F00E
:100AA0001396DC93CE93129786899789892B21F42C
:100AB00084899589978B868BDF91CF910895EF92EA
:100AC000FF920F931F93CF93DF93FC018091EF026E
:100AD000882309F4B5C084859585A685B7850196D8
:100AE000A11DB11D84879587A687B7874081518155
:100AF0006281738184179507A607B70709F0A0C024
:100B000040895189628973894F5F5F4F6F4F7F4F73
:100B100084819581A681B78184179507A607B707B9
:100B200018F440E050E0BA01408B518B628B738B1C
:100B30001486158616861786C689D789209709F4E4
:100B40007FC08A859B85AC85BD85481759076A0794
:100B50007B0709F075C0CE01DC011296ED90FC9088
:100B60001397E114F10471F0D7011A960D911D91BC
:100B70002D913C911D97401751076207730711F49F
:100B8000C701EACF2C813D812115310529F0D9011A
:100B90001396FC92EE921297E114F10429F0D7011A
:100BA00015963C932E93149724893589C217D30741
:100BB00011F4F58AE48AE114F10419F0F78AE68A5F
:100BC00004C024893589378B268B8F01FC01138261
:100BD0001282EA80FB80E881F9810280F381E02DB6
:100BE000CE0109954E815F81688579854115510552
:100BF0006105710509F18A859B85AC85BD85840FEA
:100C0000951FA61FB71FF801448155816681778122
:100C1000481759076A077B0738F4841B950BA60B06
:100C2000B70B0197A109B1098A879B87AC87BD875C
:100C3000CE010E94980401C01E86E701209749F664
:100C4000DF91CF911F910F91FF90EF900895FC01DC
:100C500082810C94AA030E9446068091680108953F
:100C6000809368010E9431040E9494040C942C0427
:100C70000C94180DCF93C82F0E94D902811102C085
:100C80000E94550D8C2FCF910C9464008091FC0232
:100C90008130D9F08091F4029091F502A091F60292
:100CA000B091F702892B8A2B8B2B79F481E040914C
:100CB000F8025091F9026091FA027091FB02452B03
:100CC000462B472B19F480E0089581E00895109297
:100CD000FC021092F8021092F9021092FA0210929D
:100CE000FB021092F4021092F5021092F60210929A
:100CF000F7028091F0029091F102A091F202B0917E
:100D0000F3028093FD029093FE02A093FF02B09342
:100D1000000308950E94580D8091FD029091FE02FB
:100D2000A091FF02B09100030196A11DB11D809317
:100D3000FD029093FE02A093FF02B0930003809106
:100D4000F8029091F902A091FA02B091FB0201968B
:100D5000A11DB11D8093F8029093F902A093FA02AD
:100D6000B093FB0208958091F8029091F902A0914E
:100D7000FA02B091FB020097A105B10569F140911B
:100D8000FD025091FE026091FF02709100034150FC
:100D90005109610971094093FD025093FE0260936D
:100DA000FF02709300030197A109B1098093F80233
:100DB0009093F902A093FA02B093FB028091FD0296
:100DC0009091FE02A091FF02B0910003892B8A2B23
:100DD0008B2B11F40C94560D08958091F80290918C
:100DE000F902A091FA02B091FB02892B8A2B8B2B7E
:100DF00089F48091F4029091F502A091F602B091ED
:100E0000F702892B8A2B8B2B29F40E94580D81E045
:100E10008093FC0208958091FC02882321F01092B7
:100E2000FC020C94560D08950E945C0D8091FD0209
:100E30009091FE02A091FF02B09100030196A11DC6
:100E4000B11D8093FD029093FE02A093FF02B09328
:100E500000038091F4029091F502A091F602B09106
:100E6000F7020196A11DB11D8093F4029093F50243
:100E7000A093F602B093F70208958091F402909146
:100E8000F502A091F602B091F7020097A105B10515
:100E900069F14091FD025091FE026091FF02709154
:100EA000000341505109610971094093FD025093BB
:100EB000FE026093FF02709300030197A109B1093C
:100EC0008093F4029093F502A093F602B093F70298
:100ED0008091FD029091FE02A091FF02B09100036B
:100EE000892B8A2B8B2B11F40C945A0D08950E9498
:100EF0004606882311F083E1089580E00895CF939A
:100F0000C82F0E9446068C2F0E94AA03C82F8091EA
:100F10007A0181110E9412048C2FCF910895CF93F2
:100F20000E944606882311F0C3E101C0C0E0E091B1
:100F30006D01F0916E018281815082830E949A033B
:100F400081E0809379010E94DC038C2FCF9108957A
:100F5000CF93C82F0E944606E0916D01F0916E017B
:100F60008281815082838C2F0E94AA03C82F811115
:100F700008C00E949A0381E0809379010E94DC03FB
:100F800007C0E0916D01F0916E0182818F5F8283D5
:100F90008C2FCF910895CF930E944606882311F09D
:100FA000C3E101C0C0E0809171010E9422030E9450
:100FB00012048091710190917201A0917301B0911E
:100FC00074014091750150917601609177017091A3
:100FD000780184179507A607B70711F40E94F70256
:100FE0008C2FCF910895CF93DF93EC010E9446069A
:100FF000882311F083E101C080E04091710150919C
:101000007201609173017091740143305105610563
:10101000710514F4488303C09091D8019883DF913F
:10102000CF9108950F931F93CF93C82F8B010E94E8
:101030004606882311F083E101C080E0EC2FEE0F1B
:10104000FF0BE55BFD4F0190F081E02D94819370E3
:10105000F8019083CF911F910F910895880F990BFC
:10106000FC01E55BFD4FA081B181ED91FC911197F1
:10107000309769F01D921C922091D8019381848150
:10108000228314821382E92FF82F3097B9F708953D
:10109000CF93C82F0E944606882311F083E101C038
:1010A00080E0EC2FF0E0EE0FFF1FED56FD4FA0812A
:1010B000B1819091710112969C931297E0916D010C
:1010C000F0916E012081318114963C932E931397F9
:1010D000B183A083938111969C9311972C91938156
:1010E0009695921760F430E0D901A95CBC4F9C91B1
:1010F00091509C93220F331F9170292B2383CF9102
:101100000895CF93DF93C82F0E944606882311F0DD
:10111000D3E101C0D0E0EC2FF0E0EE0FFF1FED5661
:10112000FD4F0190F081E02DA0916D01B0916E0115
:10113000818113968C931397838194818D939C93D3
:10114000148213828091D80182830E9412048D2F11
:10115000DF91CF910895DC01ED91FC91848195811F
:10116000DC01ED91FC9109941F93CF93DF93182F2D
:10117000EB010E944606882311F083E101C080E064
:10118000E12FF0E0EE0FFF1FE65DFD4F0190F081D3
:10119000E02D0190F081E02D0190F081E02D408163
:1011A0005181628173814C835D836E837F8344812F
:1011B000558166817781488359836A837B83408523
:1011C000518562857385488759876A877B87DF9158
:1011D000CF911F9108958F929F92AF92BF92CF921D
:1011E000DF92EF92FF920F931F93CF93C82F8B0143
:1011F0000E944606882311F083E101C080E0EC2FB5
:10120000F0E0EE0FFF1FE65DFD4F0190F081E02D55
:101210009685913029F542855385648575850190C1
:10122000F081E02D0190F081E02DC088D188E28826
:10123000F3884C155D056E057F0540F4848095802C
:10124000A680B780480D591D6A1D7B1D4C195D098C
:101250006E097F09F801408351836283738301C063
:1012600085E0CF911F910F91FF90EF90DF90CF908D
:10127000BF90AF909F908F9008958F929F92AF9262
:10128000BF92CF92DF92EF92FF920F931F93CF9373
:10129000DF93D82F4A015B01680179010E9446065D
:1012A000882311F0C3E101C0C0E0ED2FF0E0EE0FA4
:1012B000FF1FE65DFD4F0190F081E02D86858111D5
:1012C00030C0A081B1810D90BC91A02D50964D9160
:1012D0005D916D917C915397480D591D6A1D7B1D41
:1012E00014968D919D910D90BC91A02D841795071A
:1012F000A607B70740F4481B590B6A0B7B0B4150FC
:101300005109610971094287538764877587C682CD
:10131000D782E086F18681E08687CF010E9498041B
:1013200001C0C7E08C2FDF91CF911F910F91FF90EB
:10133000EF90DF90CF90BF90AF909F908F900895E7
:101340008F929F92AF92BF92CF92DF92EF92FF92D5
:101350000F931F93CF93DF93C82F4A015B0168015E
:1013600079010E944606882311F0D3E101C0D0E044
:10137000EC2FF0E0EE0FFF1FE65DFD4F0190F081D6
:10138000E02D868581110EC082869386A486B5865F
:10139000C682D782E086F18681E08687CF010E94EF
:1013A000980401C0D7E08D2FDF91CF911F910F914D
:1013B000FF90EF90DF90CF90BF90AF909F908F9075
:1013C00008950F931F93CF93DF93C82F0E94460673
:1013D000882311F0D3E101C0D0E0EC2FF0E0EE0F54
:1013E000FF1FE65DFD4F00811181F8018685813088
:1013F00031F4C8010E942705F801168601C0D5E026
:101400008D2FDF91CF911F910F91089526E040E835
:1014100055E260E070E08BE493E00C94DA0F8F9279
:101420009F92AF92BF92CF92DF92EF92FF9228EFFE
:1014300031E0DC010E9464104B015C01C12CD12C15
:101440007601C814D904EA04FB0441F00E94D10CCF
:101450008FEFC81AD80AE80AF80AF3CFFF90EF9086
:10146000DF90CF90BF90AF909F908F900895409164
:1014700035035091360320EB34E0429FC001439F77
:10148000900D529F900D1124A0E0B0E080933103A5
:1014900090933203A0933303B093340369ED71E06A
:1014A0008BE493E00E94010E609135037091360346
:1014B0006F5F7F4F70933603609335034AE050E0CF
:1014C0008BE493E00E946F0E6BED71E08BE493E090
:1014D0000E94010E40913103509132036091330319
:1014E000709134032AE030E08BE493E00E94750EA3
:1014F00088EC90E00E940F0A69ED71E08BE493E0C4
:101500000E94010E60913503709136034AE050E06D
:101510008BE493E00E946F0E64EE71E08BE493E045
:101520000E94010E0E94D10CAB01BC0140932D031F
:1015300050932E0360932F03709330032AE030E022
:101540008BE493E00E94620E6DEE71E08BE493E019
:101550000E94010E40912D0350912E0360912F03A4
:10156000709130038091310390913203A091330345
:10157000B0913403481B590B6A0B7B0B4093290332
:1015800050932A0360932B0370932C032AE030E0DE
:101590008BE493E00E94620E8091290390912A03CC
:1015A000A0912B03B0912C03409125035091260369
:1015B0006091270370912803481759076A077B0732
:1015C00078F48093250390932603A0932703B09388
:1015D000280366EF71E08BE493E00E94070E04C0DD
:1015E0008BE493E00E94030E0C948C004091230343
:1015F0005091240320ED37E0429FC001439F900D9E
:10160000529F900D1124A0E0B0E080931F039093AF
:101610002003A0932103B093220366E072E08BE4E1
:1016200093E00E94010E60912303709124036F5F89
:101630007F4F70932403609323034AE050E08BE4D0
:1016400093E00E946F0E6BED71E08BE493E00E94DB
:10165000010E40911F03509120036091210370916E
:1016600022032AE030E08BE493E00E94750E88E5C7
:1016700092E00E940F0A66E072E08BE493E00E9421
:10168000010E60912303709124034AE050E08BE443
:1016900093E00E946F0E64EE71E08BE493E00E9491
:1016A000010E0E94D10CAB01BC0140931B0350936F
:1016B0001C0360931D0370931E032AE030E08BE44B
:1016C00093E00E94620E6DEE71E08BE493E00E9465
:1016D000010E40911B0350911C0360911D037091FA
:1016E0001E0380911F0390912003A0912103B091CC
:1016F0002203481B590B6A0B7B0B40931703509333
:1017000018036093190370931A032AE030E08BE406
:1017100093E00E94620E8091170390911803A091AC
:101720001903B0911A03409113035091140360916F
:10173000150370911603481759076A077B0778F459
:101740008093130390931403A0931503B09316038F
:1017500068E072E08BE493E00E94070E04C08BE423
:1017600093E00E94030E0C948C0040911103509161
:10177000120328EB3BE0429FC001439F900D529F14
:10178000900D1124A0E0B0E080930D0390930E0320
:10179000A0930F03B093100368E172E08BE493E031
:1017A0000E94010E60911103709112036F5F7F4FD1
:1017B00070931203609311034AE050E08BE493E0CE
:1017C0000E946F0E6BED71E08BE493E00E94010EBE
:1017D00040910D0350910E0360910F03709110031F
:1017E0002AE030E08BE493E00E94750E8CE291E0F9
:1017F0000E940F0A68E172E08BE493E00E94010E00
:1018000060911103709112034AE050E08BE493E081
:101810000E946F0E64EE71E08BE493E00E94010E73
:101820000E94D10CAB01BC014093090350930A0301
:1018300060930B0370930C032AE030E08BE493E099
:101840000E94620E6DEE71E08BE493E00E94010E47
:101850004091090350910A0360910B0370910C03AE
:1018600080910D0390910E03A0910F03B09110038E
:10187000481B590B6A0B7B0B4093050350930603DF
:1018800060930703709308032AE030E08BE493E051
:101890000E94620E8091050390910603A0910703B8
:1018A000B09108034091010350910203609103033A
:1018B00070910403481759076A077B0778F48093EF
:1018C000010390930203A0930303B09304036AE11E
:1018D00072E08BE493E00E94070E04C08BE493E077
:1018E0000E94030E0C948C0087EB91E00C94FD0099
:1018F00008951F920F920FB60F9211242F933F93CA
:101900004F935F936F937F938F939F93AF93BF9307
:10191000EF93FF938091420390914303A09144037E
:10192000B09145033091410323E0230F2D3720F47C
:101930000196A11DB11D05C026E8230F0296A11D29
:10194000B11D209341038093420390934303A093DE
:101950004403B09345038091460390914703A091BF
:101960004803B09149030196A11DB11D8093460320
:1019700090934703A0934803B09349030E94740CCB
:10198000FF91EF91BF91AF919F918F917F916F9157
:101990005F914F913F912F910F900FBE0F901F902D
:1019A00018952FB7F894609142037091430380918A
:1019B0004403909145032FBF089584B5826084BD90
:1019C00084B5816084BD85B5826085BD85B5816043
:1019D00085BDEEE6F0E0808181608083E1E8F0E0A3
:1019E0001082808182608083808181608083E0E8D2
:1019F000F0E0808181608083E1EBF0E080818460B1
:101A00008083E0EBF0E0808181608083EAE7F0E0B2
:101A10008081846080838081826080838081816016
:101A200080838081806880831092C1000895FFCFF9
:101A3000FFCFCF93DF93880F990BFC01ED5AFD4F39
:101A4000C081D181AC81BD8111978A819B81A80F12
:101A5000B91F2D85CD010197FD013297223019F470
:101A600024E830E002C020EA30E02C93DC013C9313
:101A70009E818F819083DF018E93CF0107971E9205
:101A80008A179B07E1F780E8DF0118978C93CF0155
:101A900044971E928A179B07E1F7A881B981759731
:101AA000ED93FC93DF91CF91089508957894089574
:101AB000F894089578940895F894089508950E94EC
:101AC000DD0C0E945E0D0E94780C0E94060A809137
:101AD0004A030E943A0680E090E0089580919B02BC
:101AE00080934A03089508951F920F920FB60F92A4
:101AF00011242F933F934F935F936F937F938F9313
:101B00009F93AF93BF93EF93FF93E091D401F09134
:101B1000D5010995FF91EF91BF91AF919F918F9161
:101B20007F916F915F914F913F912F910F900FBED9
:101B30000F901F9018951F920F920FB60F921124BD
:101B40002F933F934F935F936F937F938F939F93C5
:101B5000AF93BF93EF93FF93E091D601F091D7013C
:101B60000995FF91EF91BF91AF919F918F917F91D7
:101B70006F915F914F913F912F910F900FBE0F90FA
:101B80001F901895CF92DF92EF92FF920F931F93C1
:101B9000CF93DF936C017A018B01C0E0D0E0CE15CA
:101BA000DF0581F0D8016D918D01D601ED91FC9199
:101BB0000190F081E02DC6010995892B11F0219645
:101BC000EECF7E01C701DF91CF911F910F91FF9062
:101BD000EF90DF90CF9008956115710579F0FB01CA
:101BE00001900020E9F73197AF01461B570BDC014C
:101BF000ED91FC910280F381E02D099480E090E06A
:101C000008950C94EC0D6CEC72E00C94EC0D0F93B9
:101C10001F93CF93DF93EC010E94EC0D8C01CE015A
:101C20000E94030E800F911FDF91CF911F910F91A2
:101C300008958F929F92AF92BF92EF92FF920F936F
:101C40001F93CF93DF93CDB7DEB7A1970FB6F8946C
:101C5000DEBF0FBECDBF7C01FA01CB0119A222303D
:101C600008F42AE08E010F5D1F4F822E912CA12CCB
:101C7000B12CBF01A50194010E944210F901CA01D3
:101C8000015011096A3014F4605D01C0695CD8012B
:101C90006C93232B242B252B61F7B801C7010E94DD
:101CA000EC0DA1960FB6F894DEBF0FBECDBFDF914D
:101CB000CF911F910F91FF90EF90BF90AF909F90A9
:101CC0008F9008952115310541F4DC01ED91FC91CF
:101CD0000190F081E02D642F09940C94190E9A0163
:101CE000AB0160E070E00C94620E0F931F93CF93F2
:101CF000DF93EC010E94620E8C01CE010E94030E64
:101D0000800F911FDF91CF911F910F9108951F9226
:101D10000F920FB60F9211242F938F939F93EF93EF
:101D2000FF93E0915B03F0915C038081E09161039C
:101D3000F091620382FD12C09081809164038F5FF5
:101D40008F7320916503821751F0E0916403F0E0F6
:101D5000E55BFC4F958F8093640301C08081FF9108
:101D6000EF919F918F912F910F900FBE0F901F9029
:101D700018951F920F920FB60F9211242F933F9335
:101D80004F935F936F937F938F939F93AF93BF9383
:101D9000EF93FF938BE493E00E94490FFF91EF9143
:101DA000BF91AF919F918F917F916F915F914F9173
:101DB0003F912F910F900FBE0F901F901895EBE45D
:101DC000F3E01382128288EE93E0A0E0B0E0848317
:101DD0009583A683B7838FED92E09183808385EC12
:101DE00090E09587848784EC90E09787868780ECE5
:101DF00090E0918B808B81EC90E0938B828B82ECD6
:101E000090E0958B848B86EC90E0978B868B118E7F
:101E1000128E138E148E0895FC01918D228D892FC0
:101E200090E0805C9F4F821B91098F7399270895E2
:101E3000FC01918D828D981731F0828DE80FF11D94
:101E4000858D90E008958FEF9FEF0895FC01918DAF
:101E5000828D981761F0828DDF01A80FB11D5D960C
:101E60008C91928D9F5F9F73928F90E008958FEF7A
:101E70009FEF0895FC01538D448D252F30E0842F72
:101E800090E0821B930B541710F0CF9608950197A2
:101E90000895FC01848DDF01A80FB11DA35ABF4F27
:101EA0002C91848D90E001968F739927848FA68959
:101EB000B7892C93A089B1898C91837080648C93AD
:101EC000938D848D981306C00288F389E02D80815C
:101ED0008F7D80830895EF92FF920F931F93CF938E
:101EE000DF93EC0181E0888F9B8D8C8D981305C06A
:101EF000E889F989808185FD26C0F62E0B8D10E0DA
:101F00000F5F1F4F0F731127E02E8C8DE8120CC04E
:101F10000FB607FCFACFE889F989808185FFF5CFF4
:101F2000CE010E94490FF1CF8B8DFE01E80FF11D0C
:101F3000E35AFF4FF0829FB7F8940B8FEA89FB8931
:101F4000808180620AC09FB7F894EE89FF89608320
:101F5000E889F98980818370806480839FBF81E0F4
:101F600090E0DF91CF911F910F91FF90EF90089536
:101F7000CF93DF93EC01888D8823C9F0EA89FB8930
:101F8000808185FD05C0A889B9898C9186FD0FC027
:101F90000FB607FCF5CF808185FFF2CFA889B989FC
:101FA0008C9185FFEDCFCE010E94490FE7CFDF91E5
:101FB000CF910895CF92DF92EF92FF921F93CF932C
:101FC000DF93EC016A017B01122FE889F98982E035
:101FD00080834115514E61057105B1F060E079E0F3
:101FE0008DE390E0A70196010E944210DA01C90139
:101FF0000197A109B109B695A795979587959C0179
:10200000211580E13807A8F0E889F989108260E895
:1020100074E88EE190E0A70196010E944210DA0177
:10202000C9010197A109B109B695A795979587951B
:102030009C01EC85FD853083EE85FF852083188E1D
:10204000EC89FD891083EA89FB8980818061808326
:10205000EA89FB89808188608083EA89FB898081A5
:1020600080688083EA89FB8980818F7D8083DF910E
:10207000CF911F91FF90EF90DF90CF900895F8944B
:102080000C948010A1E21A2EAA1BBB1BFD010DC0EF
:10209000AA1FBB1FEE1FFF1FA217B307E407F50718
:1020A00020F0A21BB30BE40BF50B661F771F881FF4
:1020B000991F1A9469F760957095809590959B018A
:1020C000AC01BD01CF0108950E947110B7FF0895C2
:1020D000821B930B0895EE0FFF1F0590F491E02DE6
:1020E0000994A29FB001B39FC001A39F700D811DF1
:1020F0001124911DB29F700D811D1124911D089511
:04210000F894FFCF81
:1021040000000000000000000000000000000000CB
:1021140000000000000000000000000000000000BB
:1021240000000000000000000000000000000000AB
:10213400000000000000000000000000000000009B
:10214400000000000000000000000000000000008B
:10215400000000000000000000000000000000007B
:102164000000000000000000FF0000850200003CA9
:1021740003FFFFFFFFFFFFFFFF000030020000002E
:1021840000720B0000720B00000239020000000014
:10219400A1070000A1070000024202000000009411
:1021A4000400009404000002000000030400000086
:1021B4000204000000010401000000FFFF00000110
:1021C4000000000000000000000000000000000407
:1021D40000FF0000730D730DFF4100207265616400
:1021E400793A200020656E6465643A2000202D3E13
:1021F4002052543A2000203C3C3C206E657720411C
:102204002D57435254004200203C3C3C206E6577DD
:1022140020422D57435254004300203C3C3C206E46
:10222400657720432D574352540099018A017B015D
:10223400B701AB083602270600B701AB083F0227F7
:102244000601B701AB084802270602B201AD01A896
:10225400013C03770269025B028502EA03FA040087
:1022640001370A000002030100E803F8030001F645
:102274000A000001020100EC034A060001B50B004C
:102284000000010100F804FA055000170D000003D6
:10229400000100CF01010101010101003D070B070D
:1022A4001407ED0681048A066E04B3068F07300610
:1022B400380648087F078108A807B408F307EB0825
:1022C4002B063D09CB07A009E10912080D0A006E8F
:1022D400616E00696E66006F766600000000006B38
:0E22E4000FC20D3A0FB80F0C0F260F180F0087
:00000001FF
