:100000000C9436000C94C70F0C94EE0F0C945E0009
:100010000C945E000C945E000C945E000C945E00E8
:100020000C945E000C945E000C945E000C945E00D8
:100030000C945E000C945E000C945E000C945E00C8
:100040000C94CC0E0C945E000C94DA100C940C11F1
:100050000C945E000C945E000C945E000C945E00A8
:100060000C945E000C945E00C10F321111241FBE6F
:10007000CFEFD8E0DEBFCDBF13E0A0E0B1E0EAEA09
:10008000F5E202C005900D92A439B107D9F728E036
:10009000A4E9B3E001C01D92A63DB207E1F710E06C
:1000A000C6E3D0E004C02197FE010E94BE12C43313
:1000B000D107C9F70E94B20F0C9492120C94000061
:1000C000E4E10E9415010895E2E10E9415010895FE
:1000D000EAE00E9415010895E1E00E9415010895EB
:1000E000E3E00E9415010895E7E00E9415010895DC
:1000F000E5E00E9415010895E0E00E9415010895D1
:10010000E2E00E9415010895E4E00E9415010895BF
:10011000ECE00E9415010895EBE10E94150108959D
:10012000EEE00E9415010895E8E00E94150108958F
:10013000E0E10E9415010895EAE10E941501089589
:10014000E6E00E9415010895E8E10E941501089576
:10015000E9E00E9415010895EBE00E941501089561
:10016000EDE00E9415010895EFE00E941501089549
:10017000E1E10E9415010895E3E10E94150108954F
:10018000E5E10E9415010895E7E10E941501089537
:10019000E9E10E9415010895E6E10E941501089524
:1001A00021968A929A92AA92BA92CA92DA92EA9284
:1001B000FA920A931A932197E0916A01F0916B01E8
:1001C0000080F181E02DC083D1830895C0916C013E
:1001D000D0916D01E881F981C081D1812196199179
:1001E0000991F990E990D990C990B990A990999006
:1001F0008990219708952F903F90E7E6F1E0CDB7E1
:10020000DEB7EDBFFEBF3F922F9208952F903F9033
:10021000CDBFDEBF3F922F920895E0E80E94150106
:100220000895E0E40E94150108952F923F924F92A5
:100230005F926F927F922FB62F92CF93DF937E2E95
:10024000F894E0910001EF5FE0930001E13011F4D8
:100250000E94FB00E0E0E0937A01E72DE07849F0AE
:100260000E947205F0917B01F17071F00E942504EB
:100270000BC0E72DEC3140F4EE0FF0E0E55CFC4FF5
:100280000190F081E02D0995F0917A01EF2FE17056
:1002900059F0F27011F00E94D0008F938F2F0E94BE
:1002A0006D038F910E94E600209100012150209360
:1002B0000001222311F40E940601DF91CF912F90BB
:1002C0002FBE7F906F905F904F903F902F9008953A
:1002D000809194030895CF92DF92EF92FF920F9353
:1002E0001F93DC01EC91DB012C918E2F8170C82EC5
:1002F000D12CE12CF12C8E2F8F7090E0A0E0B0E09B
:10030000B695A79597958795DC01A754BC4F8C911E
:10031000C81AD108E108F108EE70422F417050E090
:1003200060E070E0822F8F7090E0A0E0B0E0B695C2
:10033000A79597958795DC01A754BC4F8C91481BD6
:10034000510961097109822F8E7097018601017030
:100350001127222733270E2B417055276627772731
:10036000482B81E090E0041715072607370710F0A7
:1003700080E090E01F910F91FF90EF90DF90CF9081
:1003800008958F929F92AF92BF92EF92FF920F9338
:100390001F93CF93DF937C014A015B01B694A7942E
:1003A000979487944230510561057105E0F0440F40
:1003B000551F8701040F151FE401CC0FDD1FCE0D63
:1003C000DF1DB801CE010E946B01892B61F0F8019D
:1003D0009081818128813981318320839883898329
:1003E000B501A401DBCFDF91CF911F910F91FF9059
:1003F000EF90BF90AF909F908F9008954F925F9233
:100400006F927F928F929F92AF92BF92CF92DF9224
:10041000EF92FF920F931F93CF93DF9300D000D002
:1004200000D0CDB7DEB78C016A017B01DC018C9175
:10043000282F30E040E050E029833A834B835C83EF
:1004400046015701880C991CAA1CBB1C29813A81C2
:100450004B815C81281539054A055B0508F442C0CB
:10046000240135013FEF431A530A630A730A898155
:100470009A81AB81BC8184159505A605B70580F0EE
:10048000B201660F771F600F711FC401880F991F9B
:10049000800F911F0E946B01892B11F053014201C3
:1004A0003401660C771C600E711ECC0CDD1CD8016B
:1004B000AC0DBD1DBE83AD83B301CD010E946B01A8
:1004C000892B81F0ED81FE8190818181D3012D9175
:1004D0003C911197318320839C9311968C937501E5
:1004E0006401AECF26960FB6F894DEBF0FBECDBF27
:1004F000DF91CF911F910F91FF90EF90DF90CF9000
:10050000BF90AF909F908F907F906F905F904F9033
:100510000895E8E7F5E040814F5F408350E060E0F8
:1005200070E0E82FEE0FFF0BE352FD4F0190F081DA
:10053000E02D238530E0F901E754FC4F9081915084
:100540009083FA01EE0FFF1FE858FA4F220F331F76
:100550009170292B2083818388E795E00C94C10159
:10056000E8E7F5E040814F5F408350E060E070E0F5
:10057000E82FEE0FFF0BED52FD4F0190F081E02DC3
:100580009381FA01EE0FFF1FE858FA4F90838183A1
:1005900088E795E00C94C101CF93DF93E8E7F5E09D
:1005A00080819FEF980F9083D281C38190E0880F64
:1005B000991FDC01A858BA4F8D919C919383828337
:1005C00041E050E060E070E0CF010E94FE018D2F1D
:1005D0009C2FDF91CF91089580919403811114C0D5
:1005E0008091720190917301A0917401B091750195
:1005F0008F3F2FEF9207A207B20741F00497A105A2
:10060000B10534F481E0089584E0089580E0089510
:1006100082E00895880F990BFC01E352FD4F019091
:10062000F081E02D0084F185E02D3097E9F0228102
:1006300021111AC021E02283DC01AD52BD4F0D9083
:10064000BC91A02D13968C9113978183808190E0AB
:10065000FC01E754FC4F208121502083880F991F13
:100660002170822B13968C930895880F990BFC01AF
:10067000E352FD4F0190F081E02D0084F185E02DE3
:10068000309761F02281213049F412822181FC01EE
:10069000ED52FD4F0190F081E02D2383089580916C
:1006A000760190917701A0917801B0917901409104
:1006B0007201509173016091740170917501481736
:1006C00059076A077B0741F0E0917001F0917101D1
:1006D00021E024830C94B0020895CF93DF93882304
:1006E00091F0C0916A01D0916B01E0916E01F0919F
:1006F0006F018481833049F081E0848380917201AD
:100700000E94B00202C0C0E0D0E0E0917001F09120
:100710007101F0936F01E0936E0180916C019091F3
:100720006D0190936B0180936A0180917601309105
:100730007701209178019091790180937201309333
:100740007301209374019093750192E094830E9449
:100750000A03CE01DF91CF910895809172010E942A
:100760003503E0916E01F0916F018281882319F0C9
:1007700085E08483089514820895CF93DF93282F12
:10078000220F330BF901ED52FD4FC081D1819A81C7
:10079000F901E352FD4F0190F081E02D248592177D
:1007A00070F4911105C095E09C8391E090937B01DA
:1007B0000E9489028A818F5F8A8380E001C084E081
:1007C000DF91CF910895E82FEE0FFF0BED52FD4F13
:1007D0000190F081E02D118210820C946C0F1F9318
:1007E000CF93DF930E94CC02182F892F492F092E17
:1007F000000C550B660B770B4093760150937701F5
:100800006093780170937901292F220F330BF9013E
:10081000ED52FD4FC081D181D0937101C093700121
:10082000F901E352FD4F2081318130936D01209316
:100830006C019C81953019F40E94E3031B83109294
:100840007B01DF91CF911F910895E0917601F091A6
:100850007701EE0FFF1FED52FD4F0190F081E02D6B
:1008600090917A058381891730F40E944F030E948A
:10087000EF0383E001C080E080937A01089581E076
:1008800080937A010C94EF03EF92FF920F931F93E2
:10089000CF93DF93C1E001C0CC0F8A95EAF784E0E3
:1008A0000E94BD0306E313E0D0E0F80181918F01BF
:1008B0008C2319F08D2F0E94BD03DF5FD430A9F780
:1008C00003E313E082EBE82E82E0F82ED1E0F8019A
:1008D00081918F018C2339F0F70180819181FC0196
:1008E000D6870E94AB04F2E0EF0EF11C83E00633E2
:1008F000180769F7DF91CF911F910F91FF90EF904B
:1009000008950E94790781110E949A07E0916E0173
:10091000F0916F0180819181892B21F0809172018A
:100920000E94AB090C94D0080E94790781110E94A3
:100930009A07E0916E01F0916F0180819181892B7E
:1009400021F0809172010E94AB090C94AA0881E009
:10095000809395030895AF92BF92CF92DF92EF926A
:10096000FF920F931F93CF93DF93FC01A081B1817E
:10097000AD90BC90E501AC89BD89109739F04285F6
:1009800053856485758530E020E017C0D501559604
:100990009C938E93549757969C938E93569715825B
:1009A0001482138212825BC012968D919C911397D0
:1009B0003A2F2B2F009779F0DC011A96CD90DD901D
:1009C000ED90FC901D974C155D056E057F0560F759
:1009D000CD01A32FB22F93838283B583A483009785
:1009E00019F0EC01FD83EC83109729F01396FC932A
:1009F000EE93129705C0D5015596FC93EE9354974C
:100A0000E501AE89BF891A968D919D910D90BC919B
:100A1000A02D088919892A893B8980179107A20787
:100A2000B30780F4041715072607370728F048177F
:100A300059076A077B0798F4D5015796FC93EE9304
:100A400056970DC0041715072607370740F44817B7
:100A500059076A077B0718F4E501FF8BEE8BDF91DE
:100A6000CF911F910F91FF90EF90DF90CF90BF90AB
:100A7000AF900895CF93DF93DC01ED91FC91119736
:100A80000190F081E02D848995891296CD91DC91B9
:100A90001397A817B90711F4D58BC48B868997894A
:100AA000A817B90711F4D78BC68B209731F014968D
:100AB0008D919C9115979D838C8314960D90BC917C
:100AC000A02D109721F01396DC93CE931297868970
:100AD0009789892B21F484899589978B868BDF915F
:100AE000CF910895EF92FF920F931F93CF93DF93CF
:100AF000FC0180919503882309F4B5C08485958510
:100B0000A685B7850196A11DB11D84879587A68707
:100B1000B787408151816281738184179507A60749
:100B2000B70709F0A0C040895189628973894F5F76
:100B30005F4F6F4F7F4F84819581A681B781841766
:100B40009507A607B70718F440E050E0BA01408BBC
:100B5000518B628B738B1486158616861786C68911
:100B6000D789209709F47FC08A859B85AC85BD8590
:100B7000481759076A077B0709F075C0CE01DC01E9
:100B80001296ED90FC901397E114F10471F0D701E7
:100B90001A960D911D912D913C911D97401751076B
:100BA0006207730711F4C701EACF2C813D8121153B
:100BB000310529F0D9011396FC92EE921297E114B7
:100BC000F10429F0D70115963C932E9314972489AC
:100BD0003589C217D30711F4F58AE48AE114F104C8
:100BE00019F0F78AE68A04C024893589378B268B69
:100BF0008F01FC0113821282EA80FB80E881F98177
:100C00000280F381E02DCE0109954E815F816885D8
:100C10007985411551056105710509F18A859B8525
:100C2000AC85BD85840F951FA61FB71FF8014481B1
:100C3000558166817781481759076A077B0738F421
:100C4000841B950BA60BB70B0197A109B1098A87E5
:100C50009B87AC87BD87CE010E94AB0401C01E8676
:100C6000E701209749F6DF91CF911F910F91FF90F7
:100C7000EF900895FC0182810C94BD03EF92FF92E6
:100C80000F931F93CF93DF937C018B01FB01C285F0
:100C9000D385CB010A960E9442070097E9F0F8013C
:100CA0002585FC01D701121624F481918D932150E2
:100CB000FACF8881F8019585891B8883998185857C
:100CC000890F89839485891708F019828A8188237E
:100CD00029F01A828CE003C08DE001C080E0DF9132
:100CE000CF911F910F91FF90EF900895DA01109727
:100CF00049F0ED91FC911197309721F0AB01BC01C7
:100D0000CD01099481E0089581E00895EF92FF926A
:100D10000F931F93CF937B01DC0112960D911C91D1
:100D2000139701151105F1F0D8011496ED91FC917E
:100D30001597B701C8010995C82F81110AC0F8019C
:100D400080819181009741F0DC01ED91FC91099542
:100D500003C08E3009F4C0E0F80102811381CC2376
:100D600001F301C0C0E080E00E9406078C2FCF9104
:100D70001F910F91FF90EF900895CF92DF92EF9225
:100D8000FF920F931F93CF93DF93EC016B010A85C2
:100D90001B85E888F98848855985C7010E94760631
:100DA000882351F1CE010A960E940C070097F1F0BA
:100DB0002D85022E000C330BF601A7017C01C60124
:100DC000121613066CF4DC016D91CD01DA016D93FE
:100DD000AD016191D7016D937D0121503109F0CFB3
:100DE000F80190818D85890F808304C081E0D8014E
:100DF00012968C9380E001C08EE0DF91CF911F911D
:100E00000F91FF90EF90DF90CF90089580917B013C
:100E100081110C9425040895CF92DF92EF92FF92F6
:100E2000FC01A081B1818C9190E011962C91AC01D4
:100E3000420F511D9A016A01550FEE08FF084281C9
:100E4000A42FB0E0BD01681B790B8381082E000C34
:100E5000990B681779077CF08481958150E060E0F8
:100E600070E0C416D506E606F70610F02A1B3B0B09
:100E7000820F931F02C080E090E0FF90EF90DF9020
:100E8000CF900895DC01ED91FC91119720812223F0
:100E900041F0218114968D919C911597820F911D9F
:100EA000089580E090E008950E947907809168019C
:100EB0000895CF93C82F0E94EC0281110AC0C093FD
:100EC00068018C2F0E9444040E94A704CF910C94C7
:100ED0003F04CF9108950C946B0FCF93C82F0E94BD
:100EE000EC02811102C00E94A80F8C2FCF910C94AC
:100EF00064008091A2038130D9F080919A0390918F
:100F00009B03A0919C03B0919D03892B8A2B8B2B73
:100F100079F481E040919E0350919F036091A0037A
:100F20007091A103452B462B472B19F480E00895BF
:100F300081E008951092A20310929E0310929F03E5
:100F40001092A0031092A10310929A0310929B0397
:100F500010929C0310929D038091960390919703A9
:100F6000A0919803B09199038093A3039093A40355
:100F7000A093A503B093A60308950E94AB0F8091A0
:100F8000A3039091A403A091A503B091A603019699
:100F9000A11DB11D8093A3039093A403A093A50367
:100FA000B093A60380919E0390919F03A091A0030C
:100FB000B091A1030196A11DB11D80939E03909352
:100FC0009F03A093A003B093A103089580919E0373
:100FD00090919F03A091A003B091A1030097A10558
:100FE000B10569F14091A3035091A4036091A50359
:100FF0007091A60341505109610971094093A303FF
:101000005093A4036093A5037093A6030197A109CD
:10101000B10980939E0390939F03A093A003B09384
:10102000A1038091A3039091A403A091A503B09183
:10103000A603892B8A2B8B2B11F40C94A90F0895EE
:1010400080919E0390919F03A091A003B091A10372
:10105000892B8A2B8B2B89F480919A0390919B0387
:10106000A0919C03B0919D03892B8A2B8B2B29F493
:101070000E94AB0F81E08093A20308958091A203A8
:10108000882321F01092A2030C94A90F08950E94C6
:10109000AF0F8091A3039091A403A091A503B091F9
:1010A000A6030196A11DB11D8093A3039093A403F1
:1010B000A093A503B093A60380919A0390919B03FC
:1010C000A0919C03B0919D030196A11DB11D809339
:1010D0009A0390939B03A0939C03B0939D03089560
:1010E00080919A0390919B03A0919C03B0919D03E2
:1010F0000097A105B10569F14091A3035091A403A4
:101100006091A5037091A6034150510961097109CD
:101110004093A3035093A4036093A5037093A60385
:101120000197A109B10980939A0390939B03A0931F
:101130009C03B0939D038091A3039091A403A0917D
:10114000A503B091A603892B8A2B8B2B11F40C9449
:10115000AD0F08950E947907882311F083E1089567
:1011600082E00895CF93C82F0E947907811106C0AD
:101170000E946801882321F0C2E00FC0C3E10DC0C6
:10118000C43010F0C3E009C08C2F0E94BD03C82FEB
:1011900080917B0181110E9425048C2FCF910895AD
:1011A000CF930E947907811107C00E94EC02C82FDB
:1011B000813021F082E016C083E114C0E0916E011D
:1011C000F0916F0180819181892B11F086E00AC036
:1011D0008281815082830E94AD03C0937A010E9474
:1011E000EF0380E0CF910895CF93DF93C82F0E9443
:1011F0007907811109C00E94EC02D82F813031F4A7
:10120000C43030F0C3E025C0C3E123C0C2E021C038
:10121000E0916E01F0916F0180819181892BC1F481
:101220008281815082838C2F0E94BD03C82F81113F
:1012300007C00E94AD03D0937A010E94EF0309C05A
:10124000E0916E01F0916F0182818F5F828301C016
:10125000C6E08C2FDF91CF9108950E94790781110C
:1012600006C00E94EC02813021F082E0089583E103
:101270000895E0916E01F0916F0180819181892B39
:1012800011F086E00895809172010E9435030E945A
:1012900025048091720190917301A0917401B09125
:1012A00075014091760150917701609178017091BC
:1012B000790184179507A607B70711F40E940A035E
:1012C00080E00895CF93DF93EC010E9479078111AC
:1012D00016C00E946801811114C080917201909122
:1012E0007301A0917401B091750184309105A1053D
:1012F000B10514F08091E001888380E003C083E1B0
:1013000001C082E0DF91CF9108950F931F93CF9397
:10131000C82F8B010E947907811106C00E946801C5
:10132000882321F082E013C083E111C0C43010F0A3
:1013300083E00DC0EC2FEE0FFF0BED52FD4F01903F
:10134000F081E02D84818370F801808380E0CF916B
:101350001F910F910895880F990BFC01ED52FD4FDD
:10136000A081B181ED91FC911197309769F01D92A8
:101370001C922091E0019381848122831482138244
:10138000E92FF82F3097B9F70895CF93C82F0E940F
:101390007907811108C00E946801811106C0CC2321
:1013A00031F083E040C083E13EC082E03CC0E09188
:1013B0002D03F0912E0392818091E001981309C0D2
:1013C000A0916A01B0916B011B969C918081891755
:1013D00010F481E028C0809172018283A0916E0197
:1013E000B0916F018D919C91119794838383119695
:1013F000FC93EE9313968C911397818380811396BF
:101400009C9113979695981768F490E0FC01E75427
:10141000FC4F208121502083880F991F2170822B3F
:1014200013968C9380E0CF910895CF93C82F0E949C
:101430007907811106C00E946801882321F082E0AB
:1014400031C083E12FC0CC2311F083E02BC0E091A9
:101450002D03F0912E03A0916A01B0916B011B96B0
:101460009C9180818917D8F0A0916E01B0916F0195
:101470008D919C911197E817F90799F48181139642
:101480008C931397838194818D939C931482138200
:101490008091E00182830E94250480E003C081E006
:1014A00001C085E0CF910895DC01ED91FC9184812C
:1014B0009581DC01ED91FC9109940F931F93CF93DB
:1014C000DF93C82F8B010E947907811106C00E940B
:1014D0006801882321F082E02FC083E12DC0C33052
:1014E00010F083E029C0EC2FF0E0EE0FFF1FEE5468
:1014F000FD4F0190F081E02D0190F081E02D0190F1
:10150000F081E02D80819181A281B381E8018C83FB
:101510009D83AE83BF8384819581A681B7818883B3
:101520009983AA83BB8380859185A285B3858887AB
:101530009987AA87BB8780E0DF91CF911F910F9198
:101540000895CF92DF92EF92FF920F931F93CF9364
:10155000C82F8B010E947907811107C00E94680182
:10156000811105C0C330C8F504C083E137C082E0F3
:1015700035C0EC2FF0E0EE0FFF1FEE54FD4F019051
:10158000F081E02D8685813031F582859385A485B3
:10159000B5850190F081E02D0190F081E02D40892A
:1015A00051896289738984179507A607B70740F4A4
:1015B000C480D580E680F7808C0D9D1DAE1DBF1DBB
:1015C000841B950BA60BB70BF80180839183A28334
:1015D000B38380E003C085E001C083E0CF911F9119
:1015E0000F91FF90EF90DF90CF9008958F929F9290
:1015F000AF92BF92CF92DF92EF92FF920F931F9321
:10160000CF93DF93C82F6A017B01480159010E94E3
:101610007907811107C00E946801811105C0C3309C
:10162000E8F404C083E15AC082E058C0EC2FF0E037
:10163000EE0FFF1FEE54FD4F0190F081E02DA081D1
:10164000B181CD91DC918C819D81AE81BF818C1562
:101650009D05AE05BF0508F440C002C083E03EC052
:1016600081149104A104B10471F088159905AA05AB
:10167000BB0598F1488559856A857B858416950652
:10168000A606B70650F12685211125C0488959893B
:101690006A897B89C40ED51EE61EF71E8C159D0532
:1016A000AE05BF0548F4C81AD90AEA0AFB0A81E068
:1016B000C81AD108E108F108C286D386E486F58607
:1016C00086829782A086B18681E08687CF010E94BC
:1016D000AB0480E003C087E001C088E0DF91CF91D8
:1016E0001F910F91FF90EF90DF90CF90BF90AF9040
:1016F0009F908F9008958F929F92AF92BF92CF92BA
:10170000DF92EF92FF920F931F93CF93C82F6A013E
:101710007B01480159010E947907811108C00E948C
:101720006801811106C0C33030F083E047C083E117
:1017300045C082E043C0EC2FF0E0EE0FFF1FEE54F7
:10174000FD4F0190F081E02DA081B1810D90BC9101
:10175000A02D14964D915D916D917C9117974C152C
:101760005D056E057F05A8F081149104A104B10404
:1017700091F0481559056A057B0558F018968D912A
:101780009D910D90BC91A02D88169906AA06BB06C6
:1017900010F488E013C0868581110FC0C286D386FD
:1017A000E486F58686829782A086B18681E0868768
:1017B000CF010E94AB0480E001C087E0CF911F9170
:1017C0000F91FF90EF90DF90CF90BF90AF909F90E0
:1017D0008F900895CF93DF93C82F0E9479078111CE
:1017E00006C00E946801882321F082E018C083E1CE
:1017F00016C0C33010F083E012C0EC2FF0E0EE0F03
:10180000FF1FEE54FD4FC081D1818E85813031F4B0
:10181000CE010E943A051E8680E001C085E0DF917E
:10182000CF910895CF93DF93880F991FFC01E25663
:10183000FD4F0190F081E02D8585882369F0C285F8
:10184000D385CF010A960E944207892B39F08A81FD
:10185000882331F08CE005C08AE003C08DE001C030
:1018600080E0DF91CF910895880F991FFC01E85621
:10187000FD4F80819181DC01ED91FC9109949B01E8
:10188000880F991FFC01E256FD4F60817181DB01D9
:101890001696ED91FC911797C9010994880F991F2D
:1018A000FC01E856FD4F80819181DC01ED91FC91B6
:1018B00060E070E0099580E0089526E040E855E298
:1018C00060E070E081ED93E00C942D128F929F9276
:1018D000AF92BF92CF92DF92EF92FF9228EF31E06A
:1018E000DC010E94B7124B015C01C12CD12C7601A6
:1018F000C814D904EA04FB0441F00E94240F8FEFBE
:10190000C81AD80AE80AF80AF3CFFF90EF90DF90E0
:10191000CF90BF90AF909F908F90089561EE71E04F
:1019200081ED93E00E9454100E94240FAB01BC0192
:101930002AE030E081ED93E00E94C81069E671E092
:1019400080912F03909130030E94C00061E072E00B
:1019500081ED93E00E9454100E94240FAB01BC0162
:101960002AE030E081ED93E00E94C8100C948C00D6
:101970000F931F93CF93DF931F92CDB7DEB74091A4
:10198000B7035091B80320EB34E0429FC001439F5E
:10199000900D529F900D1124A0E0B0E08093B3030E
:1019A0009093B403A093B503B093B60363E672E0DB
:1019B00081ED93E00E9454106091B7037091B803D9
:1019C0006F5F7F4F7093B8036093B7034AE050E0B6
:1019D00081ED93E00E94C2106BE272E081ED93E032
:1019E0000E9454104091B3035091B4036091B50329
:1019F0007091B6032AE030E081ED93E00E94C810B8
:101A00000091310310913203BE016F5F7F4FC80117
:101A10000E94C4008D3039F464E372E081ED93E0FC
:101A20000E945A10F1CF67E572E081ED93E00E94C9
:101A300054106091B7037091B8034AE050E081ED13
:101A400093E00E94C21068EF71E081ED93E00E9484
:101A500054100E94240FAB01BC012AE030E081ED5C
:101A600093E00E94C8108CE291E00E94660C67E54A
:101A700072E081ED93E00E9454106091B703709181
:101A8000B8034AE050E081ED93E00E94C21062E2A8
:101A900072E081ED93E00E9454100E94240FAB018C
:101AA000BC012AE030E081ED93E00E94C81081E0A3
:101AB0008983BE016F5F7F4F80912F039091300328
:101AC0000E94C00063E672E081ED93E00E94541032
:101AD0006091B7037091B8034AE050E081ED93E064
:101AE0000E94C21062E272E081ED93E00E94541005
:101AF0000E94240FAB01BC012AE030E081ED93E0AD
:101B00000E94C8100E948C000F90DF91CF911F910E
:101B10000F9108954091B1035091B20320ED37E049
:101B2000429FC001439F900D529F900D1124A0E051
:101B3000B0E08093AD039093AE03A093AF03B09356
:101B4000B00365E672E081ED93E00E94541060916D
:101B5000B1037091B2036F5F7F4F7093B2036093D4
:101B6000B1034AE050E081ED93E00E94C2106BE2C5
:101B700072E081ED93E00E9454104091AD035091CA
:101B8000AE036091AF037091B0032AE030E081EDC5
:101B900093E00E94C81088E592E00E94660C65E61A
:101BA00072E081ED93E00E9454106091B103709156
:101BB000B2034AE050E081ED93E00E94C21062E27D
:101BC00072E081ED93E00E9454100E94240FAB015B
:101BD000BC012AE030E081ED93E00E94C8100C9433
:101BE0008C000F931F93CF93DF931F92CDB7DEB777
:101BF0004091AB035091AC0328EB3BE0429FC00106
:101C0000439F900D529F900D1124A0E0B0E080936F
:101C1000A7039093A803A093A903B093AA0366E92E
:101C200072E081ED93E00E9454106091AB037091DB
:101C3000AC036F5F7F4F7093AC036093AB034AE0DC
:101C400050E081ED93E00E94C2106BE272E081ED02
:101C500093E00E9454104091A7035091A803609113
:101C6000A9037091AA032AE030E081ED93E00E947D
:101C7000C81088EC90E00E94660C0091310310912E
:101C80003203BE016F5F7F4FC8010E94C4008D30D8
:101C900039F467E672E081ED93E00E945A10F1CFCB
:101CA0006AE872E081ED93E00E9454106091AB030A
:101CB0007091AC034AE050E081ED93E00E94C210C5
:101CC00068EF71E081ED93E00E9454100E94240FB0
:101CD000AB01BC012AE030E081ED93E00E94C81026
:101CE0008CE291E00E94660C6AE872E081ED93E07C
:101CF0000E9454106091AB037091AC034AE050E035
:101D000081ED93E00E94C21062E272E081ED93E007
:101D10000E9454100E94240FAB01BC012AE030E065
:101D200081ED93E00E94C81081E08983BE016F5F5E
:101D30007F4F80912F03909130030E94C00066E98D
:101D400072E081ED93E00E9454106091AB037091BA
:101D5000AC034AE050E081ED93E00E94C21062E2E1
:101D600072E081ED93E00E9454100E94240FAB01B9
:101D7000BC012AE030E081ED93E00E94C8100E948F
:101D80008C000F90DF91CF911F910F9108958FEBF1
:101D900091E00C940D0108951F920F920FB60F92CF
:101DA00011242F933F934F935F936F937F938F9360
:101DB0009F93AF93BF93EF93FF938091C80390914C
:101DC000C903A091CA03B091CB033091C70323E0AC
:101DD000230F2D3720F40196A11DB11D05C026E863
:101DE000230F0296A11DB11D2093C7038093C80342
:101DF0009093C903A093CA03B093CB038091CC0303
:101E00009091CD03A091CE03B091CF030196A11D77
:101E1000B11D8093CC039093CD03A093CE03B093D8
:101E2000CF030E94C70EFF91EF91BF91AF919F9199
:101E30008F917F916F915F914F913F912F910F9073
:101E40000FBE0F901F9018952FB7F8946091C8039C
:101E50007091C9038091CA039091CB032FBF08955D
:101E600084B5826084BD84B5816084BD85B582609F
:101E700085BD85B5816085BDEEE6F0E0808181603D
:101E80008083E1E8F0E0108280818260808380813D
:101E900081608083E0E8F0E0808181608083E1EB15
:101EA000F0E0808184608083E0EBF0E080818160FD
:101EB0008083EAE7F0E080818460808380818260B3
:101EC000808380818160808380818068808310929C
:101ED000C1000895FFCFFFCFCF93DF93880F990BF9
:101EE000FC01E352FD4FC081D181AC81BD811197CE
:101EF0008A819B81A80FB91F2D85CD010197FD0116
:101F00003297223019F424E830E002C020EA30E0B1
:101F10002C93DC013C939E818F819083DF018E9313
:101F2000CF0107971E928A179B07E1F780E8DF0130
:101F300018978C93CF0144971E928A179B07E1F75D
:101F4000A881B9817597ED93FC93DF91CF910895A6
:101F5000089578940895F894089578940895F894DD
:101F6000089508950E94300F0E94B10F0E94CB0E79
:101F70000E945D0C8091D0030E946D0780E090E08C
:101F8000089580913A038093D003089508951F9295
:101F90000F920FB60F9211242F933F934F935F939D
:101FA0006F937F938F939F93AF93BF93EF93FF9321
:101FB000E091DC01F091DD010995FF91EF91BF9176
:101FC000AF919F918F917F916F915F914F913F91D1
:101FD0002F910F900FBE0F901F9018951F920F9288
:101FE0000FB60F9211242F933F934F935F936F93EC
:101FF0007F938F939F93AF93BF93EF93FF93E09162
:10200000DE01F091DF010995FF91EF91BF91AF9152
:102010009F918F917F916F915F914F913F912F9100
:102020000F900FBE0F901F901895CF92DF92EF92F6
:10203000FF920F931F93CF93DF936C017A018B0173
:10204000C0E0D0E0CE15DF0581F0D8016D918D01A3
:10205000D601ED91FC910190F081E02DC60109952A
:10206000892B11F02196EECF7E01C701DF91CF9130
:102070001F910F91FF90EF90DF90CF900895611521
:10208000710579F0FB0101900020E9F73197AF016C
:10209000461B570BDC01ED91FC910280F381E02D92
:1020A000099480E090E008950C943F1063E773E09A
:1020B0000C943F100F931F93CF93DF93EC010E947A
:1020C0003F108C01CE010E945610800F911FDF91AE
:1020D000CF911F910F9108958F929F92AF92BF92CF
:1020E000EF92FF920F931F93CF93DF93CDB7DEB79D
:1020F000A1970FB6F894DEBF0FBECDBF7C01FA01E9
:10210000CB0119A2223008F42AE08E010F5D1F4F87
:10211000822E912CA12CB12CBF01A50194010E940B
:102120009512F901CA01015011096A3014F4605D79
:1021300001C0695CD8016C93232B242B252B61F7FC
:10214000B801C7010E943F10A1960FB6F894DEBFF8
:102150000FBECDBFDF91CF911F910F91FF90EF90F8
:10216000BF90AF909F908F9008952115310541F455
:10217000DC01ED91FC910190F081E02D642F099438
:102180000C946C109A01AB0160E070E00C94B510F7
:102190000F931F93CF93DF93EC010E94B5108C0136
:1021A000CE010E945610800F911FDF91CF911F9199
:1021B0000F9108951F920F920FB60F9211242F9333
:1021C0008F939F93EF93FF93E091E103F091E203EC
:1021D0008081E091E703F091E80382FD12C09081D5
:1021E0008091EA038F5F8F732091EB03821751F088
:1021F000E091EA03F0E0EF52FC4F958F8093EA0301
:1022000001C08081FF91EF919F918F912F910F904D
:102210000FBE0F901F9018951F920F920FB60F923E
:1022200011242F933F934F935F936F937F938F93DB
:102230009F93AF93BF93EF93FF9381ED93E00E9441
:102240009C11FF91EF91BF91AF919F918F917F91E1
:102250006F915F914F913F912F910F900FBE0F9013
:102260001F901895E1EDF3E01382128288EE93E05F
:10227000A0E0B0E084839583A683B78386E893E0EB
:102280009183808385EC90E09587848784EC90E04F
:102290009787868780EC90E0918B808B81EC90E033
:1022A000938B828B82EC90E0958B848B86EC90E014
:1022B000978B868B118E128E138E148E0895FC01CF
:1022C000918D228D892F90E0805C9F4F821B910918
:1022D0008F7399270895FC01918D828D981731F0A5
:1022E000828DE80FF11D858D90E008958FEF9FEFAF
:1022F0000895FC01918D828D981761F0828DDF0128
:10230000A80FB11D5D968C91928D9F5F9F73928FE8
:1023100090E008958FEF9FEF0895FC01538D448D59
:10232000252F30E0842F90E0821B930B541710F080
:10233000CF96089501970895FC01848DDF01A80FC1
:10234000B11DA35ABF4F2C91848D90E001968F73DD
:102350009927848FA689B7892C93A089B1898C91FC
:10236000837080648C93938D848D981306C002884B
:10237000F389E02D80818F7D80830895EF92FF9215
:102380000F931F93CF93DF93EC0181E0888F9B8D98
:102390008C8D981305C0E889F989808185FD26C058
:1023A000F62E0B8D10E00F5F1F4F0F731127E02EDD
:1023B0008C8DE8120CC00FB607FCFACFE889F989BA
:1023C000808185FFF5CFCE010E949C11F1CF8B8DCE
:1023D000FE01E80FF11DE35AFF4FF0829FB7F8941A
:1023E0000B8FEA89FB89808180620AC09FB7F894CD
:1023F000EE89FF896083E889F98980818370806430
:1024000080839FBF81E090E0DF91CF911F910F917A
:10241000FF90EF900895CF93DF93EC01888D882390
:10242000C9F0EA89FB89808185FD05C0A889B98941
:102430008C9186FD0FC00FB607FCF5CF808185FF1C
:10244000F2CFA889B9898C9185FFEDCFCE010E948A
:102450009C11E7CFDF91CF910895CF92DF92EF9259
:10246000FF921F93CF93DF93EC016A017B01122F40
:10247000E889F98982E080834115514E6105710533
:10248000B1F060E079E08DE390E0A70196010E9451
:102490009512DA01C9010197A109B109B695A7956D
:1024A000979587959C01211580E13807A8F0E88968
:1024B000F989108260E874E88EE190E0A701960146
:1024C0000E949512DA01C9010197A109B109B695D7
:1024D000A795979587959C01EC85FD853083EE85C2
:1024E000FF852083188EEC89FD891083EA89FB899A
:1024F000808180618083EA89FB8980818860808314
:10250000EA89FB89808180688083EA89FB898081F0
:102510008F7D8083DF91CF911F91FF90EF90DF90AF
:10252000CF900895F8940C94D312A1E21A2EAA1B0E
:10253000BB1BFD010DC0AA1FBB1FEE1FFF1FA21773
:10254000B307E407F50720F0A21BB30BE40BF50B70
:10255000661F771F881F991F1A9469F760957095F9
:10256000809590959B01AC01BD01CF0108950E941B
:10257000C412B7FF0895821B930B0895EE0FFF1F3F
:102580000590F491E02D0994A29FB001B39FC00182
:10259000A39F700D811D1124911DB29F700D811D8F
:0A25A0001124911D0895F894FFCF57
:1025AA000000000000000000000000000000000021
:1025BA000000000000000000000000000000000011
:1025CA000000000000000000000000000000000001
:1025DA0000000000000000000000000000000000F1
:1025EA0000000000000000000000000000000000E1
:1025FA0000000000000000000000000000000000D1
:10260A000000000000000000FF0100001F0300009E
:10261A00C203FFFFFFFFFFFFFFFF00008406B802AF
:10262A0000000000720B0000720B000002C10200E1
:10263A00000000A1070000A107000002CA02000072
:10264A000000940400009404000002000000040446
:10265A00000000030400000002040000000104015D
:10266A00000000FFFF000001000000000000000061
:10267A00000000000000000500FF0000C60FC60FA2
:10268A00FF2D2D3E20496E697469616C697A617407
:10269A00696F6E207461736B20626567756E3A208C
:1026AA00002D2D3E20496E697469616C206D657339
:1026BA00736167652073656E7420616E642074614E
:1026CA00736B20656E6465643A20002072656164EC
:1026DA00793A20005461736B41206861736E2774E4
:1026EA0020726563656976652061206D6573736123
:1026FA006765207965740020202D2D432E532E20E6
:10270A006F6620410042005461736B432068617315
:10271A006E277420726563656976652061206D6530
:10272A007373616765207965740020202D2D432E0F
:10273A00532E206F662043009A028606A002A0024A
:10274A0000000000BD063E067C01BF0301017205C0
:10275A0073059C018D017E01BF01540ABE023A062F
:10276A0000BF01540AC7023A0601BF01540AD00247
:10277A003A0602BA01B501B001AB01C20311030363
:10278A0003F502E7021F037405700400018E0C00B2
:10279A000003040100700586060001B80C0000025F
:1027AA000301006E04840500018A0D000001020184
:1027BA00007605D6070001F10D0000000101008432
:1027CA0006860750006A0F000004000100D70100C6
:1027DA00000000010101010101010070083E0847E3
:1027EA000820089404BD078104E6072D09150A6B21
:1027FA00075D0AB208A10AF408F60A62097B0B59B6
:10280A0007EA0B5407340C120C3F0CC5094E0C8511
:10281A0009D0080D0A006E616E00696E66006F7657
:10282A00660000000000BE1115108D110B125F1119
:04283A0079116B1194
:00000001FF
