:100000000C945E000C944F0E0C94760E0C948600AB
:100010000C9486000C9486000C9486000C94860048
:100020000C9486000C9486000C9486000C94860038
:100030000C9486000C9486000C9486000C94860028
:100040000C94430D0C9486000C94F20E0C94240F27
:100050000C9486000C9486000C9486000C94860008
:100060000C9486000C948600000000080002010039
:100070000003040700000000000000000102040863
:100080001020408001020408102001020408102002
:10009000040404040404040402020202020203032E
:1000A0000303030300000000250028002B000000CC
:1000B0000000240027002A00490E4A0F11241FBE09
:1000C000CFEFD8E0DEBFCDBF13E0A0E0B1E0E2EDBE
:1000D000F7E202C005900D92A230B107D9F726E0F1
:1000E000A2E0B3E001C01D92A034B207E1F710E036
:1000F000CEE5D0E004C02197FE010E94E113CC358B
:10010000D107C9F70E943A0E0C94AA100C94000073
:10011000E2E10E942D010895E9E00E942D01089579
:10012000EAE00E942D010895E1E00E942D0108956A
:10013000E3E00E942D010895E7E00E942D0108955B
:10014000E5E00E942D010895E0E00E942D01089550
:10015000E2E00E942D010895E4E00E942D0108953F
:10016000ECE00E942D010895E8E00E942D01089521
:10017000EEE00E942D010895E4E10E942D01089512
:10018000E0E10E942D010895E7E10E942D0108950C
:10019000E6E00E942D010895EBE00E942D010895F4
:1001A000EDE00E942D010895EFE00E942D010895D9
:1001B000E1E10E942D010895E3E10E942D010895DF
:1001C000E5E10E942D010895E6E10E942D010895C8
:1001D00021968A929A92AA92BA92CA92DA92EA9254
:1001E000FA920A931A932197E0916B01F0916C01B6
:1001F0000080F181E02DC083D1830895C0916D010D
:10020000D0916E01E881F981C081D1812196199147
:100210000991F990E990D990C990B990A9909990D5
:100220008990219708952F903F90E7E6F1E0CDB7B0
:10023000DEB7EDBFFEBF3F922F9208952F903F9003
:10024000CDBFDEBF3F922F920895E0E80E942D01BE
:100250000895E0E40E942D0108952F923F924F925D
:100260005F926F927F922FB62F92CF93DF937E2E65
:10027000F894E0910001EF5FE0930001E13011F4A8
:100280000E941301E0E0E0937B01E72DE07849F064
:100290000E948505F0917C01F17071F00E943D048F
:1002A0000BC0E72DEC3140F4EE0FF0E0EF54FD4FC2
:1002B0000190F081E02D0995F0917B01EF2FE17025
:1002C00059F0F27011F00E94E8008F938F2F0E9476
:1002D00085038F910E94FE00209100012150209300
:1002E0000001222311F40E941E01DF91CF912F9073
:1002F0002FBE7F906F905F904F903F902F9008950A
:10030000809102030895CF92DF92EF92FF920F93B4
:100310001F93DC01EC91DB012C918E2F8170C82E94
:10032000D12CE12CF12C8E2F8F7090E0A0E0B0E06A
:10033000B695A79597958795DC01A15DBC4F8C91EB
:10034000C81AD108E108F108EE70422F417050E060
:1003500060E070E0822F8F7090E0A0E0B0E0B69592
:10036000A79597958795DC01A15DBC4F8C91481BA3
:10037000510961097109822F8E7097018601017000
:100380001127222733270E2B417055276627772701
:10039000482B81E090E0041715072607370710F077
:1003A00080E090E01F910F91FF90EF90DF90CF9051
:1003B00008958F929F92AF92BF92EF92FF920F9308
:1003C0001F93CF93DF937C014A015B01B694A794FE
:1003D000979487944230510561057105E0F0440F10
:1003E000551F8701040F151FE401CC0FDD1FCE0D33
:1003F000DF1DB801CE010E948301892B61F0F80155
:1004000090818181288139813183208398838983F8
:10041000B501A401DBCFDF91CF911F910F91FF9028
:10042000EF90BF90AF909F908F9008954F925F9202
:100430006F927F928F929F92AF92BF92CF92DF92F4
:10044000EF92FF920F931F93CF93DF9300D000D0D2
:1004500000D0CDB7DEB78C016A017B01DC018C9145
:10046000282F30E040E050E029833A834B835C83BF
:1004700046015701880C991CAA1CBB1C29813A8192
:100480004B815C81281539054A055B0508F442C09B
:10049000240135013FEF431A530A630A730A898125
:1004A0009A81AB81BC8184159505A605B70580F0BE
:1004B000B201660F771F600F711FC401880F991F6B
:1004C000800F911F0E948301892B11F0530142017B
:1004D0003401660C771C600E711ECC0CDD1CD8013B
:1004E000AC0DBD1DBE83AD83B301CD010E94830160
:1004F000892B81F0ED81FE8190818181D3012D9145
:100500003C911197318320839C9311968C937501B4
:100510006401AECF26960FB6F894DEBF0FBECDBFF6
:10052000DF91CF911F910F91FF90EF90DF90CF90CF
:10053000BF90AF909F908F907F906F905F904F9003
:100540000895E2EEF4E040814F5F408350E060E0C8
:1005500070E0E82FEE0FFF0BE958FD4F0190F0819E
:10056000E02D238530E0F901E15DFC4F9081915051
:100570009083FA01EE0FFF1FEE51FB4F220F331F46
:100580009170292B2083818382EE94E00C94D90111
:10059000E2EEF4E040814F5F408350E060E070E0C5
:1005A000E82FEE0FFF0BEF58FD4F0190F081E02D8B
:1005B0009381FA01EE0FFF1FEE51FB4F9083818371
:1005C00082EE94E00C94D901CF93DF93E2EEF4E055
:1005D00080819FEF980F9083D281C38190E0880F34
:1005E000991FDC01AE51BB4F8D919C919383828307
:1005F00041E050E060E070E0CF010E9416028D2FD4
:100600009C2FDF91CF91089580910203811114C036
:100610008091730190917401A0917501B091760160
:100620008F3F2FEF9207A207B20741F00297A10573
:10063000B10534F481E0089584E0089580E00895E0
:1006400082E00895880F990BFC01E958FD4F019055
:10065000F081E02D0084F185E02D3097E9F02281D2
:1006600021111AC021E02283DC01AF58BD4F0D904B
:10067000BC91A02D13968C9113978183808190E07B
:10068000FC01E15DFC4F208121502083880F991FE0
:100690002170822B13968C930895880F990BFC017F
:1006A000E958FD4F0190F081E02D0084F185E02DA7
:1006B000309761F02281213049F412822181FC01BE
:1006C000EF58FD4F0190F081E02D23830895809134
:1006D000770190917801A0917901B0917A014091D0
:1006E0007301509174016091750170917601481702
:1006F00059076A077B0741F0E0917101F09172019F
:1007000021E024830C94C8020895CF93DF938823BB
:1007100091F0C0916B01D0916C01E0916F01F0916B
:1007200070018481833049F081E08483809173017A
:100730000E94C80202C0C0E0D0E0E0917101F091D7
:100740007201F0937001E0936F0180916D019091BF
:100750006E0190936C0180936B01809177013091D1
:1007600078012091790190917A01809373013093FF
:100770007401209375019093760192E094830E9416
:100780002203CE01DF91CF910895809173010E94E1
:100790004D03E0916F01F09170018281882319F07F
:1007A00085E08483089514820895CF93DF93282FE2
:1007B000220F330BF901EF58FD4FC081D1819A818F
:1007C000F901E958FD4F0190F081E02D2485921741
:1007D00070F4911105C095E09C8391E090937C01A9
:1007E0000E94A1028A818F5F8A8380E001C084E039
:1007F000DF91CF910895E82FEE0FFF0BEF58FD4FDB
:100800000190F081E02D118210820C94F40D1F9361
:10081000CF93DF930E94E402182F892F492F092ECE
:10082000000C550B660B770B4093770150937801C2
:100830006093790170937A01292F220F330BF9010C
:10084000EF58FD4FC081D181D0937201C0937101E7
:10085000F901E958FD4F2081318130936E012093D9
:100860006D019C81953019F40E94FB031B8310924B
:100870007C01DF91CF911F910895E0917701F09174
:100880007801EE0FFF1FEF58FD4F0190F081E02D32
:100890009091E4048381891730F40E9467030E94D9
:1008A000070483E001C080E080937B01089581E02C
:1008B00080937B010C940704CF93DF93C1E0D0E0D9
:1008C00001C0CC0F8A95EAF782E00E94D50380919F
:1008D000AE028C2319F080E00E94D5038091AF0214
:1008E0008C2319F081E00E94D5038091AC028C2307
:1008F00049F080915B0290915C0221E0FC01268727
:100900000E94BE048091AD02C82359F080915D021F
:1009100090915E0221E0FC012687DF91CF910C943B
:10092000BE04DF91CF9108950E94760681110E9446
:100930009706E0916F01F091700180819181892B80
:1009400021F0809173010E94A8080C94CD070E94A9
:10095000760681110E949706E0916F01F091700177
:1009600080819181892B21F0809173010E94A808D8
:100970000C94A70781E0809303030895AF92BF9280
:10098000CF92DF92EF92FF920F931F93CF93DF935B
:10099000FC01A081B181AD90BC90E501AC89BD891D
:1009A000109739F0428553856485758530E020E0E5
:1009B00017C0D50155969C938E93549757969C9348
:1009C0008E93569715821482138212825BC0129600
:1009D0008D919C9113973A2F2B2F009779F0DC0182
:1009E0001A96CD90DD90ED90FC901D974C155D050D
:1009F0006E057F0560F7CD01A32FB22F938382830D
:100A0000B583A483009719F0EC01FD83EC83109764
:100A100029F01396FC93EE93129705C0D5015596D5
:100A2000FC93EE935497E501AE89BF891A968D9198
:100A30009D910D90BC91A02D088919892A893B8927
:100A400080179107A207B30780F40417150726073C
:100A5000370728F0481759076A077B0798F4D5012C
:100A60005796FC93EE9356970DC00417150726076B
:100A7000370740F4481759076A077B0718F4E50160
:100A8000FF8BEE8BDF91CF911F910F91FF90EF9035
:100A9000DF90CF90BF90AF900895CF93DF93DC01AC
:100AA000ED91FC9111970190F081E02D8489958959
:100AB0001296CD91DC911397A817B90711F4D58B35
:100AC000C48B86899789A817B90711F4D78BC68B71
:100AD000209731F014968D919C9115979D838C836E
:100AE00014960D90BC91A02D109721F01396DC93D5
:100AF000CE93129786899789892B21F484899589C9
:100B0000978B868BDF91CF910895EF92FF920F9391
:100B10001F93CF93DF93FC0180910303882309F493
:100B2000B5C084859585A685B7850196A11DB11DA3
:100B300084879587A687B7874081518162817381B9
:100B400084179507A607B70709F0A0C04089518907
:100B5000628973894F5F5F4F6F4F7F4F84819581AB
:100B6000A681B78184179507A607B70718F440E058
:100B700050E0BA01408B518B628B738B14861586C3
:100B800016861786C689D789209709F47FC08A857B
:100B90009B85AC85BD85481759076A077B0709F017
:100BA00075C0CE01DC011296ED90FC901397E11414
:100BB000F10471F0D7011A960D911D912D913C9180
:100BC0001D97401751076207730711F4C701EACF59
:100BD0002C813D812115310529F0D9011396FC9214
:100BE000EE921297E114F10429F0D70115963C9387
:100BF0002E93149724893589C217D30711F4F58AE7
:100C0000E48AE114F10419F0F78AE68A04C0248921
:100C10003589378B268B8F01FC0113821282EA8083
:100C2000FB80E881F9810280F381E02DCE010995F6
:100C30004E815F8168857985411551056105710592
:100C400009F18A859B85AC85BD85840F951FA61FFC
:100C5000B71FF8014481558166817781481759078C
:100C60006A077B0738F4841B950BA60BB70B01971B
:100C7000A109B1098A879B87AC87BD87CE010E94F5
:100C8000BE0401C01E86E701209749F6DF91CF918F
:100C90001F910F91FF90EF900895FC0182810C94B9
:100CA000D5030E947606809168010895CF93C82FDE
:100CB0000E94040381110AC0C09368018C2F0E9416
:100CC0005C040E94BA04CF910C945704CF9108950C
:100CD0000C94F30DCF93C82F0E940403811102C01E
:100CE0000E94300E8C2FCF910C948C0080911003B9
:100CF0008130D9F08091080390910903A0910A03F3
:100D0000B0910B03892B8A2B8B2B79F481E04091D6
:100D10000C0350910D0360910E0370910F03452B4E
:100D2000462B472B19F480E0089581E00895109236
:100D3000100310920C0310920D0310920E031092E8
:100D40000F03109208031092090310920A031092E5
:100D50000B038091040390910503A0910603B091C9
:100D600007038093110390931203A0931303B0938E
:100D7000140308950E94330E809111039091120381
:100D8000A0911303B09114030196A11DB11D80938E
:100D9000110390931203A0931303B0931403809153
:100DA0000C0390910D03A0910E03B0910F030196D7
:100DB000A11DB11D80930C0390930D03A0930E030E
:100DC000B0930F03089580910C0390910D03A091AF
:100DD0000E03B0910F030097A105B10569F1409191
:100DE0001103509112036091130370911403415049
:100DF00051096109710940931103509312036093E3
:100E00001303709314030197A109B10980930C0394
:100E100090930D03A0930E03B0930F0380911103E1
:100E200090911203A0911303B0911403892B8A2B84
:100E30008B2B11F40C94310E089580910C0390913A
:100E40000D03A0910E03B0910F03892B8A2B8B2BDE
:100E500089F48091080390910903A0910A03B0914D
:100E60000B03892B8A2B8B2B29F40E94330E81E0F4
:100E700080931003089580911003882321F010922D
:100E800010030C94310E08950E94370E80911103C7
:100E900090911203A0911303B09114030196A11D28
:100EA000B11D8093110390931203A0931303B09389
:100EB00014038091080390910903A0910A03B09153
:100EC0000B030196A11DB11D8093080390930903A4
:100ED000A0930A03B0930B030895809108039091A7
:100EE0000903A0910A03B0910B030097A105B10576
:100EF00069F14091110350911203609113037091B5
:100F00001403415051096109710940931103509331
:100F1000120360931303709314030197A109B1099D
:100F20008093080390930903A0930A03B0930B03E3
:100F30008091110390911203A0911303B0911403B7
:100F4000892B8A2B8B2B11F40C94350E08950E945B
:100F50007606882311F083E1089582E00895CF9307
:100F6000C82F0E947606811106C00E948001882346
:100F700021F0C2E00FC0C3E10DC0C23010F0C3E0E9
:100F800009C08C2F0E94D503C82F80917C0181114C
:100F90000E943D048C2FCF910895CF930E94760636
:100FA000811107C00E940403C82F813021F082E024
:100FB00016C083E114C0E0916F01F091700180814F
:100FC0009181892B11F086E00AC082818150828351
:100FD0000E94C503C0937B010E94070480E0CF916B
:100FE0000895CF93DF93C82F0E947606811109C020
:100FF0000E940403D82F813031F4C23030F0C3E0B6
:1010000025C0C3E123C0C2E021C0E0916F01F0918F
:10101000700180819181892BC1F48281815082830A
:101020008C2F0E94D503C82F811107C00E94C503D1
:10103000D0937B010E94070409C0E0916F01F091F9
:10104000700182818F5F828301C0C6E08C2FDF91A7
:10105000CF9108950E947606811106C00E94040374
:10106000813021F082E0089583E10895E0916F01DD
:10107000F091700180819181892B11F086E00895B3
:10108000809173010E944D030E943D048091730181
:1010900090917401A0917501B09176014091770112
:1010A000509178016091790170917A0184179507C8
:1010B000A607B70711F40E94220380E00895CF939A
:1010C000DF93EC010E947606811116C00E94800118
:1010D000811114C08091730190917401A0917501E8
:1010E000B091760182309105A105B10514F080918F
:1010F000CC01888380E003C083E101C082E0DF91FE
:10110000CF9108950F931F93CF93C82F8B010E9407
:101110007606811106C00E948001882321F082E0BA
:1011200013C083E111C0C23010F083E00DC0EC2F7A
:10113000EE0FFF0BEF58FD4F0190F081E02D848101
:101140008370F801808380E0CF911F910F91089503
:10115000880F990BFC01EF58FD4FA081B181ED91F3
:10116000FC911197309769F01D921C922091CC014F
:1011700093818481228314821382E92FF82F309780
:10118000B9F70895CF93C82F0E947606811108C041
:101190000E948001811106C0C23030F083E045C05A
:1011A00083E143C082E041C0EC2FF0E0EE0FFF1F6F
:1011B000E955FD4F0190F081E02D92818091CC01A5
:1011C000981309C0A0916B01B0916C011B969C9182
:1011D0008081891710F481E028C080917301828397
:1011E000A0916F01B09170018D919C9111979483A2
:1011F00083831196FC93EE9313968C9113978183BE
:10120000808113969C9113979695981768F490E0B7
:10121000FC01E15DFC4F208121502083880F991F44
:101220002170822B13968C9380E0CF910895CF93F9
:10123000C82F0E947606811106C00E948001882373
:1012400021F082E036C083E134C0C23010F083E088
:1012500030C0EC2FF0E0EE0FFF1FE955FD4F01907D
:10126000F081E02DA0916B01B0916C011B969C91D7
:1012700080818917D8F0A0916F01B09170018D9194
:101280009C911197E817F90799F4818113968C9333
:101290001397838194818D939C9314821382809100
:1012A000CC0182830E943D0480E003C081E001C044
:1012B00085E0CF910895DC01ED91FC9184819581C9
:1012C000DC01ED91FC9109940F931F93CF93DF9371
:1012D000C82F8B010E947606811106C00E948001F2
:1012E000882321F082E02FC083E12DC0C23010F0AE
:1012F00083E029C0EC2FF0E0EE0FFF1FE55AFD4F11
:101300000190F081E02D0190F081E02D0190F081BD
:10131000E02D80819181A281B381E8018C839D833E
:10132000AE83BF8384819581A681B78188839983A9
:10133000AA83BB8380859185A285B3858887998799
:10134000AA87BB8780E0DF91CF911F910F9108950D
:10135000CF92DF92EF92FF920F931F93CF93C82FFC
:101360008B010E947606811107C00E9480018111C5
:1013700005C0C230C8F504C083E137C082E035C083
:10138000EC2FF0E0EE0FFF1FE55AFD4F0190F081CA
:10139000E02D8685813031F582859385A485B585DC
:1013A0000190F081E02D0190F081E02D408951897C
:1013B0006289738984179507A607B70740F4C4802C
:1013C000D580E680F7808C0D9D1DAE1DBF1D841B52
:1013D000950BA60BB70BF80180839183A283B3838F
:1013E00080E003C085E001C083E0CF911F910F91A1
:1013F000FF90EF90DF90CF9008958F929F92AF92E1
:10140000BF92CF92DF92EF92FF920F931F93CF93F1
:10141000DF93C82F6A017B01480159010E947606BB
:10142000811107C00E948001811105C0C230E8F41B
:1014300004C083E15AC082E058C0EC2FF0E0EE0F08
:10144000FF1FE55AFD4F0190F081E02DA081B18191
:10145000CD91DC918C819D81AE81BF818C159D05E4
:10146000AE05BF0508F440C002C083E03EC0811451
:101470009104A104B10471F088159905AA05BB0572
:1014800098F1488559856A857B8584169506A60658
:10149000B70650F12685211125C0488959896A89E6
:1014A0007B89C40ED51EE61EF71E8C159D05AE0564
:1014B000BF0548F4C81AD90AEA0AFB0A81E0C81A2B
:1014C000D108E108F108C286D386E486F5868682D3
:1014D0009782A086B18681E08687CF010E94BE04F4
:1014E00080E003C087E001C088E0DF91CF911F91C9
:1014F0000F91FF90EF90DF90CF90BF90AF909F90B3
:101500008F9008958F929F92AF92BF92CF92DF9269
:10151000EF92FF920F931F93CF93C82F6A017B0125
:10152000480159010E947606811108C00E9480017D
:10153000811106C0C23030F083E047C083E145C06E
:1015400082E043C0EC2FF0E0EE0FFF1FE55AFD4FA5
:101550000190F081E02DA081B1810D90BC91A02D72
:1015600014964D915D916D917C9117974C155D0589
:101570006E057F05A8F081149104A104B10491F0D7
:10158000481559056A057B0558F018968D919D916F
:101590000D90BC91A02D88169906AA06BB0610F4E2
:1015A00088E013C0868581110FC0C286D386E48689
:1015B000F58686829782A086B18681E08687CF01F4
:1015C0000E94BE0480E001C087E0CF911F910F917F
:1015D000FF90EF90DF90CF90BF90AF909F908F9053
:1015E0000895CF93DF93C82F0E947606811106C01D
:1015F0000E948001882321F082E018C083E116C098
:10160000C23010F083E012C0EC2FF0E0EE0FFF1FAD
:10161000E55AFD4FC081D1818E85813031F4CE01F4
:101620000E944D051E8680E001C085E0DF91CF91CC
:10163000089560E08EE00E94D80C61E08DE00E9489
:10164000D80C26E040E855E260E070E083E493E0E7
:101650000C944510BF92CF92DF92EF92FF920F93BE
:101660001F93CF93DF93CDB7DEB7C058D1090FB624
:10167000F894DEBF0FBECDBF8EE00E94D50D9093D3
:101680002A0380932903B090AB028B2D0E94CC00DB
:101690008091290390912A039C012A5031098E01DF
:1016A0000F5B1F4F2C3E334058F021E030E0309369
:1016B0002E0320932D039F938F938DEC91E008C010
:1016C00010922E0310922D039F938F9384EE91E03E
:1016D0009F938F931F930F930E94AD100F900F90C5
:1016E0000F900F900F900F908B2D0E94D000809143
:1016F00027039091280305973CF062EF71E083E4A3
:1017000093E00E94E00E29C0E0912503F0912603AA
:10171000EE0FFF1FE55EFC4F8091290390912A0395
:1017200091838083B80183E493E00E94E00E80916E
:101730002703909128030196909328038093270311
:101740008091250390912603019665E070E00E9448
:1017500060139093260380932503209127033091F3
:101760002803253031050CF46DC080911903909148
:101770001A03E5E0F0E00FE017E251EFE52E58ED37
:10178000F52E65E0C62ED12C12161306ACF4DC0142
:10179000AA0FBB1FA55EBC4F4D915C91E416F506E8
:1017A0000CF47A01401751070CF48A0121503109D9
:1017B0000196B6010E946013319731F730932803E8
:1017C0002093270390931A03809319038B2D0E9473
:1017D000CC00C701801B910B9E012F5F3F4F690119
:1017E000853F31E093077CF021E030E030932C031B
:1017F00020932B039F938F93FF92EF921F930F934E
:1018000088E092E00CC010922C0310922B039F935F
:101810008F93FF92EF921F930F9386E392E09F9333
:101820008F93DF92CF920E94AD100FB6F894DEBF77
:101830000FBECDBF8B2D0E94D000B60183E493E094
:101840000E94E00E0E94B400C058DF4F0FB6F8941B
:10185000DEBF0FBECDBFDF91CF911F910F91FF90E3
:10186000EF90DF90CF90BF900895EF92FF920F938B
:101870001F93CF93C091AB028C2F0E94CC00E090BD
:101880002D03F0902E0300912B0310912C038C2F2D
:101890000E94D000EF28A1F0609117038DE00E9414
:1018A000140D81E090E02091170330911803232B51
:1018B00011F080E090E0909318038093170334C0F8
:1018C000012B71F18091150390911603049794F107
:1018D0008091690190916A01892B31F081E090E05B
:1018E0009093180380931703609117038DE00E9473
:1018F000140D81E090E02091170330911803232B01
:1019000011F080E090E090931803809317031092F9
:1019100016031092150310926A01109269010AC011
:1019200060E08DE00E94140D81E090E090936A01E8
:10193000809369018091150390911603019690930D
:10194000160380931503CF911F910F91FF90EF9095
:101950000C94B40085EA91E00C942501089583303D
:1019600081F028F4813099F08230A1F00895873019
:10197000A9F08830B9F08430D1F4809180008F7D57
:1019800003C0809180008F7780938000089584B594
:101990008F7702C084B58F7D84BD08958091B0009B
:1019A0008F7703C08091B0008F7D8093B000089541
:1019B000CF93DF9390E0FC01E458FF4F2491FC01AA
:1019C000E057FF4F8491882361F190E0880F991FC1
:1019D000FC01E255FF4FC591D491FC01EC55FF4F3E
:1019E000A591B491611109C09FB7F89488812095A1
:1019F00082238883EC912E230BC0623061F49FB761
:101A0000F8948881322F309583238883EC912E2B94
:101A10002C939FBF06C08FB7F894E8812E2B2883A4
:101A20008FBFDF91CF9108951F93CF93DF93282F1E
:101A300030E0F901E859FF4F8491F901E458FF4F74
:101A4000D491F901E057FF4FC491CC23C1F0162F78
:101A500081110E94AF0CEC2FF0E0EE0FFF1FEC5550
:101A6000FF4FA591B4919FB7F894111104C08C91C8
:101A7000D095D82302C0EC91DE2BDC939FBFDF9181
:101A8000CF911F9108951F920F920FB60F921124BC
:101A90002F933F934F935F936F937F938F939F9376
:101AA000AF93BF93EF93FF9380913A0390913B03E1
:101AB000A0913C03B0913D033091390323E0230F03
:101AC0002D3720F40196A11DB11D05C026E8230F76
:101AD0000296A11DB11D2093390380933A03909380
:101AE0003B03A0933C03B0933D0380913E03909150
:101AF0003F03A0914003B09141030196A11DB11D88
:101B000080933E0390933F03A0934003B09341031F
:101B10000E94AA0CFF91EF91BF91AF919F918F917D
:101B20007F916F915F914F913F912F910F900FBED9
:101B30000F901F90189584B5826084BD84B5816034
:101B400084BD85B5826085BD85B5816085BDEEE6C5
:101B5000F0E0808181608083E1E8F0E010828081A4
:101B600082608083808181608083E0E8F0E0808112
:101B700081608083E1EBF0E0808184608083E0EB32
:101B8000F0E0808181608083EAE7F0E0808184601A
:101B90008083808182608083808181608083808176
:101BA000806880831092C10008958E3008F08E50B6
:101BB0002091C70190E4299F900111248770822B06
:101BC00080937C0080917A00806480937A00809179
:101BD0007A0086FDFCCF809178002091790090E01A
:101BE000922B0895FFCFFFCFCF93DF93880F990BF0
:101BF000FC01E958FD4FC081D181AC81BD811197B5
:101C00008A819B81A80FB91F2D85CD010197FD0108
:101C10003297223019F42CEA30E002C028EC30E090
:101C20002C93DC013C939E818F819083DF018E9306
:101C3000CF0107971E928A179B07E1F780E8DF0123
:101C400018978C93CF0144971E928A179B07E1F750
:101C5000A881B9817597ED93FC93DF91CF91089599
:101C6000089578940895F894089578940895F894D0
:101C7000089508950E949B0D0E94390E0E94AE0C9B
:101C80000E94190B809142030E946A0680E090E056
:101C900008958091B00280934203089508951F92A1
:101CA0000F920FB60F9211242F933F934F935F9390
:101CB0006F937F938F939F93AF93BF93EF93FF9314
:101CC000E091C801F091C9010995FF91EF91BF9191
:101CD000AF919F918F917F916F915F914F913F91C4
:101CE0002F910F900FBE0F901F9018951F920F927B
:101CF0000FB60F9211242F933F934F935F936F93DF
:101D00007F938F939F93AF93BF93EF93FF93E09154
:101D1000CA01F091CB010995FF91EF91BF91AF916D
:101D20009F918F917F916F915F914F913F912F91F3
:101D30000F900FBE0F901F901895CF92DF92EF92E9
:101D4000FF920F931F93CF93DF936C017A018B0166
:101D5000C0E0D0E0CE15DF0581F0D8016D918D0196
:101D6000D601ED91FC910190F081E02DC60109951D
:101D7000892B11F02196EECF7E01C701DF91CF9123
:101D80001F910F91FF90EF90DF90CF900895611514
:101D9000710579F0FB0101900020E9F73197AF015F
:101DA000461B570BDC01ED91FC910280F381E02D85
:101DB000099480E090E0089561EE72E00C94C70E03
:101DC0000F931F93CF93DF93EC010E94C70E8C01FA
:101DD000CE010E94DC0E800F911FDF91CF911F91E9
:101DE0000F9108951F920F920FB60F9211242F9307
:101DF0008F939F93EF93FF93E0915303F0915403DC
:101E00008081E0915903F0915A0382FD12C09081C4
:101E100080915C038F5F8F7320915D03821751F077
:101E2000E0915C03F0E0ED5BFC4F958F80935C03E9
:101E300001C08081FF91EF919F918F912F910F9021
:101E40000FBE0F901F9018951F920F920FB60F9212
:101E500011242F933F934F935F936F937F938F93AF
:101E60009F93AF93BF93EF93FF9383E493E00E941C
:101E7000B40FFF91EF91BF91AF919F918F917F919F
:101E80006F915F914F913F912F910F900FBE0F90E7
:101E90001F901895E3E4F3E01382128288EE93E03A
:101EA000A0E0B0E084839583A683B78384EF92E0BB
:101EB0009183808385EC90E09587848784EC90E023
:101EC0009787868780EC90E0918B808B81EC90E007
:101ED000938B828B82EC90E0958B848B86EC90E0E8
:101EE000978B868B118E128E138E148E0895FC01A3
:101EF000918D228D892F90E0805C9F4F821B9109EC
:101F00008F7399270895FC01918D828D981731F078
:101F1000828DE80FF11D858D90E008958FEF9FEF82
:101F20000895FC01918D828D981761F0828DDF01FB
:101F3000A80FB11D5D968C91928D9F5F9F73928FBC
:101F400090E008958FEF9FEF0895FC01538D448D2D
:101F5000252F30E0842F90E0821B930B541710F054
:101F6000CF96089501970895FC01848DDF01A80F95
:101F7000B11DA35ABF4F2C91848D90E001968F73B1
:101F80009927848FA689B7892C93A089B1898C91D0
:101F9000837080648C93938D848D981306C002881F
:101FA000F389E02D80818F7D80830895EF92FF92E9
:101FB0000F931F93CF93DF93EC0181E0888F9B8D6C
:101FC0008C8D981305C0E889F989808185FD26C02C
:101FD000F62E0B8D10E00F5F1F4F0F731127E02EB1
:101FE0008C8DE8120CC00FB607FCFACFE889F9898E
:101FF000808185FFF5CFCE010E94B40FF1CF8B8D8C
:10200000FE01E80FF11DE35AFF4FF0829FB7F894ED
:102010000B8FEA89FB89808180620AC09FB7F894A0
:10202000EE89FF896083E889F98980818370806403
:1020300080839FBF81E090E0DF91CF911F910F914E
:10204000FF90EF900895CF93DF93EC01888D882364
:10205000C9F0EA89FB89808185FD05C0A889B98915
:102060008C9186FD0FC00FB607FCF5CF808185FFF0
:10207000F2CFA889B9898C9185FFEDCFCE010E945E
:10208000B40FE7CFDF91CF910895CF92DF92EF9217
:10209000FF921F93CF93DF93EC016A017B01122F14
:1020A000E889F98982E080834115514E6105710507
:1020B000B1F060E079E08DE390E0A70196010E9425
:1020C0007413DA01C9010197A109B109B695A79561
:1020D000979587959C01211580E13807A8F0E8893C
:1020E000F989108260E874E88EE190E0A70196011A
:1020F0000E947413DA01C9010197A109B109B695CB
:10210000A795979587959C01EC85FD853083EE8595
:10211000FF852083188EEC89FD891083EA89FB896D
:10212000808180618083EA89FB89808188608083E7
:10213000EA89FB89808180688083EA89FB898081C4
:102140008F7D8083DF91CF911F91FF90EF90DF9083
:10215000CF900895F8940C94E713AEE0B0E0E3EB71
:10216000F0E10C94A4130D891E8986E08C831A83F8
:1021700009838FEF9FE79E838D83AE01475E5F4F9C
:102180006F89788DCE0101960E94CF10EF81F8857E
:10219000E00FF11F10822E96E4E00C94C013ABE028
:1021A000B0E0E5EDF0E10C9496136C017B018A013F
:1021B000FC0117821682838181FFCCC1CE0101967A
:1021C0003C01F6019381F70193FD859193FF819185
:1021D0007F01882309F4BAC1853239F493FD8591D2
:1021E00093FF81917F01853229F4B60190E00E942E
:1021F000C612E7CF912C212C312CFFE1F315D8F03A
:102200008B3279F038F4803279F08332A1F4232DC7
:1022100020611DC08D3261F0803369F4232D21606F
:1022200016C0832D8260382EE32DE4603E2E2AC036
:10223000F32DF8601DC037FC2DC020ED280F2A308B
:1022400040F08E32B9F436FC81C1232D2064322E49
:1022500019C036FE06C08AE0989E200D1124922EE9
:1022600011C0EAE02E9E200D1124222EF32DF062E3
:102270003F2E08C08C3621F4832D8068382E02C092
:10228000883641F4F70193FD859193FF81917F0199
:102290008111B3CF982F9F7D9554933028F40C5F14
:1022A0001F4F9FE399830DC0833631F0833771F060
:1022B000833509F059C021C0F801808189830E5F00
:1022C0001F4F88248394912C530113C02801F2E0FE
:1022D0004F0E511CF801A080B18036FE03C0692D5D
:1022E00070E002C06FEF7FEFC5010E94BB124C018E
:1022F0008201F32DFF773F2E16C0280122E0420E07
:10230000511CF801A080B18036FE03C0692D70E039
:1023100002C06FEF7FEFC5010E94B0124C01F32D98
:10232000F0683F2E820133FC1BC0822D90E088169E
:102330009906B0F4B60180E290E00E94C6122A9499
:10234000F4CFF50137FC859137FE81915F01B6012D
:1023500090E00E94C61221102A9421E0821A91086E
:102360008114910471F7E8C0843611F0893641F583
:10237000F80137FE07C060817181828193810C5F13
:102380001F4F08C060817181072E000C880B990BCC
:102390000E5F1F4FF32DFF763F2E97FF09C09095DC
:1023A0008095709561957F4F8F4F9F4FF0683F2EBE
:1023B0002AE030E0A3010E940213882E861845C04F
:1023C000853731F4232D2F7EB22E2AE030E025C050
:1023D000932D997FB92E8F36C1F018F4883579F096
:1023E000B5C0803719F0883721F0B0C0E92FE0611F
:1023F000BE2EB4FE0DC0FB2DF460BF2E09C034FE0E
:102400000AC0292F2660B22E06C028E030E005C0A1
:1024100020E130E002C020E132E0F801B7FE07C061
:1024200060817181828193810C5F1F4F06C0608142
:10243000718180E090E00E5F1F4FA3010E940213A4
:10244000882E8618FB2DFF773F2E36FE0DC0232DDC
:102450002E7FA22E891458F434FE0BC032FC09C022
:10246000832D8E7EA82E05C0B82CA32C03C0B82CBB
:1024700001C0B92CA4FE0FC0FE01E80DF11D808142
:10248000803321F49A2D997EA92E09C0A2FE06C0A0
:10249000B394B39404C08A2D867809F0B394A3FC56
:1024A00011C0A0FE06C0B21488F4280C922C9B1810
:1024B0000EC0B21460F4B60180E290E00E94C61231
:1024C000B394F7CFB21418F42B1802C0982C212C17
:1024D000A4FE10C0B60180E390E00E94C612A2FEE6
:1024E00017C0A1FC03C088E790E002C088E590E037
:1024F000B6010CC08A2D867859F0A1FE02C08BE28D
:1025000001C080E2A7FC8DE2B60190E00E94C612F5
:10251000891438F4B60180E390E00E94C6129A94C0
:10252000F7CF8A94F301E80DF11D8081B60190E0A8
:102530000E94C6128110F5CF222009F442CEB601C6
:1025400080E290E00E94C6122A94F6CFF6018681BE
:10255000978102C08FEF9FEF2B96E2E10C94B213AC
:10256000FC010590615070400110D8F7809590955E
:102570008E0F9F1F0895FC01615070400190011063
:10258000D8F7809590958E0F9F1F08950F931F93F6
:10259000CF93DF93FB01238121FD03C08FEF9FEFDA
:1025A0002CC022FF16C046815781248135814217F5
:1025B000530744F4A081B1819D012F5F3F4F3183C8
:1025C00020838C93268137812F5F3F4F378326836B
:1025D00014C08B01EC01FB010084F185E02D09950D
:1025E000892BE1F6D80116968D919C91179701964B
:1025F00017969C938E931697CE01DF91CF911F91E2
:102600000F910895FA01AA27283051F1203181F164
:10261000E8946F936E7F6E5F7F4F8F4F9F4FAF4FEA
:10262000B1E03ED0B4E03CD0670F781F891F9A1FFD
:10263000A11D680F791F8A1F911DA11D6A0F711DB1
:10264000811D911DA11D20D009F468943F912AE0BD
:10265000269F11243019305D3193DEF6CF010895A5
:10266000462F4770405D4193B3E00FD0C9F7F6CFD6
:10267000462F4F70405D4A3318F0495D31FD40529E
:10268000419302D0A9F7EACFB4E0A6959795879534
:1026900077956795BA95C9F7009761057105089513
:1026A0009B01AC010A2E06945795479537952795BF
:1026B000BA95C9F7620F731F841F951FA01D089557
:1026C00097FB072E16F4009407D077FD09D00E94DF
:1026D000CD1307FC05D03EF4909581959F4F08954A
:1026E000709561957F4F0895A1E21A2EAA1BBB1B1E
:1026F000FD010DC0AA1FBB1FEE1FFF1FA217B307CE
:10270000E407F50720F0A21BB30BE40BF50B661FE3
:10271000771F881F991F1A9469F7609570958095A7
:1027200090959B01AC01BD01CF0108952F923F927E
:102730004F925F926F927F928F929F92AF92BF92D1
:10274000CF92DF92EF92FF920F931F93CF93DF937D
:10275000CDB7DEB7CA1BDB0B0FB6F894DEBF0FBEDA
:10276000CDBF09942A88398848885F846E847D8427
:102770008C849B84AA84B984C884DF80EE80FD8029
:102780000C811B81AA81B981CE0FD11D0FB6F8949F
:10279000DEBF0FBECDBFED010895AA1BBB1B51E1EB
:1027A00007C0AA1FBB1FA617B70710F0A61BB70BC1
:1027B000881F991F5A95A9F780959095BC01CD0166
:1027C0000895EE0FFF1F0590F491E02D0994F89401
:0227D000FFCF39
:1027D20000000000000000000000000000000000F7
:1027E20000000000000000000000000000000000E7
:1027F20000000000000000000000000000000000D7
:1028020000000000000000000000000000000000C6
:1028120000000000000000000000000000000000B6
:1028220000000000000000000000000000000000A6
:102832000000000000000000FF01000000990200FB
:10284200003403FFFFFFFFFFFFFFFF00005F0200F6
:102852000000006200000062000000026802000046
:1028620000007A0000007A0000000200000002046A
:10287200000000010401000000FFFF000001000051
:10288200000000000000000000000000000300FF44
:1028920000000300FF0000014E0E4E0EFF533A20CF
:1028A2004E65772058203D202564202D3E2045523C
:1028B200524F5200533A204E65772058203D202532
:1028C20064004552524F523A205175657565204F4A
:1028D200766572666C6F77000909423A204E203D98
:1028E20020256420207C20204D203D2025640A09DB
:1028F200092020204D2D4E203D202564202D3E20F4
:10290200414C41524D000909423A204E203D2025BA
:102912006420207C20204D203D2025640A090920C6
:1029220020204D2D4E203D202564008C017D01A5E7
:10293200015B0965024D0601A5015B096E024D06A8
:1029420000A0019B0134038B027D029902E003E2A5
:102952000300012A0B0000010201003E063E0500B1
:1029620001350C000000010100EC04EE045000F2FD
:102972000D000002000100C201BD010001010101C0
:10298200006D073B0744071D07A704BA069404E33A
:1029920006CD0756066806C208AF071709F1076495
:1029A200095F08A8095106FD092A08820AF10A826C
:1029B200080D0A006E616E00696E66006F76660031
:1029C20000000000D60F9D0EA50F2310770F910F68
:0229D200830F71
:00000001FF
