:100000000C9463000C94E90D0C94100E0C948B006E
:100010000C948B000C948B000C948B000C948B0034
:100020000C948B000C948B000C948B000C948B0024
:100030000C948B000C948B000C948B000C948B0014
:100040000C94DD0C0C948B000C94520F0C94840FC8
:100050000C948B000C948B000C948B000C948B00F4
:100060000C948B000C948B0000000008000201002F
:100070000003040700000000000000000102040863
:100080001020408001020408102001020408102002
:10009000040404040404040402020202020203032E
:1000A00003030303000000002300260029000000D2
:1000B0000000250028002B0000000000240027007D
:1000C0002A00E30DAA0F11241FBECFEFD8E0DEBF38
:1000D000CDBF13E0A0E0B1E0EEE6F2E202C0059091
:1000E0000D92A031B107D9F727E0A0E1B3E001C03C
:1000F0001D92AA34B207E1F710E0C3E6D0E004C0D5
:100100002197FE010E942F11C136D107C9F70E9425
:10011000D40D0C940A110C940000E4E10E944201F9
:100120000895E2E10E9442010895EAE00E9442013E
:100130000895E1E00E9442010895E3E00E94420137
:100140000895E7E00E9442010895E5E00E9442011F
:100150000895E0E00E9442010895E2E00E94420119
:100160000895E4E00E9442010895ECE00E944201FB
:100170000895EBE10E9442010895EEE00E944201E1
:100180000895E8E00E9442010895E0E10E944201E2
:100190000895EAE10E9442010895E6E00E944201CA
:1001A0000895E8E10E9442010895E9E00E944201B9
:1001B0000895EBE00E9442010895EDE00E944201A3
:1001C0000895EFE00E9442010895E1E10E9442019A
:1001D0000895E3E10E9442010895E5E10E94420191
:1001E0000895E7E10E9442010895E9E10E94420179
:1001F0000895E6E10E944201089521968A929A921A
:10020000AA92BA92CA92DA92EA92FA920A931A934C
:100210002197E0916B01F0916C010080F181E02D5C
:10022000C083D1830895C0916D01D0916E01E881A2
:10023000F981C081D181219619910991F990E990B4
:10024000D990C990B990A9909990899021970895D3
:100250002F903F90E7E6F1E0CDB7DEB7EDBFFEBFF0
:100260003F922F9208952F903F90CDBFDEBF3F92D7
:100270002F920895E0E80E9442010895E0E40E9470
:10028000420108952F923F924F925F926F927F9218
:100290002FB62F92CF93DF937E2EF894E09100013A
:1002A000EF5FE0930001E13011F40E942801E0E0EB
:1002B000E0937B01E72DE07849F00E949C05F091E6
:1002C0007C01F17071F00E944F040BC0E72DEC31FE
:1002D00040F4EE0FF0E0E954FD4F0190F081E02D85
:1002E0000995F0917B01EF2FE17059F0F27011F058
:1002F0000E94FD008F938F2F0E9497038F910E9481
:10030000130120910001215020930001222311F4B8
:100310000E943301DF91CF912F902FBE7F906F907D
:100320005F904F903F902F900895CF92DF92EF9281
:10033000FF920F931F93DC01EC91DB012C918E2F28
:100340008170C82ED12CE12CF12C8E2F8F7090E073
:10035000A0E0B0E0B695A79597958795DC01A15DE3
:10036000BC4F8C91C81AD108E108F108EE70422FF9
:10037000417050E060E070E0822F8F7090E0A0E06C
:10038000B0E0B695A79597958795DC01A15DBC4F28
:100390008C91481B510961097109822F8E70970158
:1003A000860101701127222733270E2B4170552714
:1003B00066277727482B81E090E00417150726076A
:1003C000370710F080E090E01F910F91FF90EF90C1
:1003D000DF90CF9008958F929F92AF92BF92EF924D
:1003E000FF920F931F93CF93DF937C014A015B0130
:1003F000B694A7949794879442305105610571058E
:10040000E0F0440F551F8701040F151FE401CC0FC6
:10041000DD1FCE0DDF1DB801CE010E949501892B95
:1004200061F0F801908181812881398131832083B5
:1004300098838983B501A401DBCFDF91CF911F9110
:100440000F91FF90EF90BF90AF909F908F90089585
:100450004F925F926F927F928F929F92AF92BF92D4
:10046000CF92DF92EF92FF920F931F93CF93DF9380
:1004700000D000D000D0CDB7DEB78C016A017B017F
:10048000DC018C91282F30E040E050E029833A8352
:100490004B835C8346015701880C991CAA1CBB1C2A
:1004A00029813A814B815C81281539054A055B0514
:1004B00008F442C0240135013FEF431A530A630A8E
:1004C000730A89819A81AB81BC8184159505A60543
:1004D000B70580F0B201660F771F600F711FC4016E
:1004E000880F991F800F911F0E949501892B11F091
:1004F000530142013401660C771C600E711ECC0C56
:10050000DD1CD801AC0DBD1DBE83AD83B301CD0193
:100510000E949501892B81F0ED81FE81908181817E
:10052000D3012D913C911197318320839C93119697
:100530008C9375016401AECF26960FB6F894DEBF9A
:100540000FBECDBFDF91CF911F910F91FF90EF9024
:10055000DF90CF90BF90AF909F908F907F906F90E3
:100560005F904F900895EAEEF4E040814F5F408342
:1005700050E060E070E0E82FEE0FFF0BE659FD4F12
:100580000190F081E02D238530E0F901E15DFC4F21
:10059000908191509083FA01EE0FFF1FE651FB4FBF
:1005A000220F331F9170292B208381838AEE94E0E0
:1005B0000C94EB01EAEEF4E040814F5F408350E0A1
:1005C00060E070E0E82FEE0FFF0BEE59FD4F019059
:1005D000F081E02D9381FA01EE0FFF1FE651FB4FF2
:1005E000908381838AEE94E00C94EB01CF93DF93A8
:1005F000EAEEF4E080819FEF980F9083D281C3816F
:1006000090E0880F991FDC01A651BB4F8D919C9102
:100610009383828341E050E060E070E0CF010E946C
:1006200028028D2F9C2FDF91CF9108958091100388
:10063000811114C08091730190917401A091750192
:10064000B09176018F3F2FEF9207A207B20741F0DA
:100650000397A105B10534F481E0089584E008957D
:1006600080E0089582E00895880F990BFC01E65917
:10067000FD4F0190F081E02D0084F185E02D309751
:10068000E9F0228121111AC021E02283DC01AE5958
:10069000BD4F0D90BC91A02D13968C911397818323
:1006A000808190E0FC01E15DFC4F2081215020839E
:1006B000880F991F2170822B13968C930895880FB1
:1006C000990BFC01E659FD4F0190F081E02D00846B
:1006D000F185E02D309761F02281213049F41282BA
:1006E0002181FC01EE59FD4F0190F081E02D238323
:1006F00008958091770190917801A0917901B0914E
:100700007A0140917301509174016091750170916B
:100710007601481759076A077B0741F0E09171019C
:10072000F091720121E024830C94DA020895CF93B2
:10073000DF93882391F0C0916B01D0916C01E0911F
:100740006F01F09170018481833049F081E08483EE
:10075000809173010E94DA0202C0C0E0D0E0E09113
:100760007101F0917201F0937001E0936F0180913B
:100770006D0190916E0190936C0180936B0180915B
:100780007701309178012091790190917A018093DD
:10079000730130937401209375019093760192E078
:1007A00094830E943403CE01DF91CF91089580910C
:1007B00073010E945F03E0916F01F09170018281EB
:1007C000882319F085E08483089514820895CF93D7
:1007D000DF93282F220F330BF901EE59FD4FC08113
:1007E000D1819A81F901E659FD4F0190F081E02D08
:1007F0002485921770F4911105C095E09C8391E0D7
:1008000090937C010E94B3028A818F5F8A8380E08B
:1008100001C084E0DF91CF910895E82FEE0FFF0B28
:10082000EE59FD4F0190F081E02D118210820C9461
:100830008E0D1F93CF93DF930E94F602182F892FFE
:10084000492F092E000C550B660B770B409377014F
:10085000509378016093790170937A01292F220FC8
:10086000330BF901EE59FD4FC081D181D093720154
:10087000C0937101F901E659FD4F20813181309318
:100880006E0120936D019C81953019F40E940D0436
:100890001B8310927C01DF91CF911F910895E0910D
:1008A0007701F0917801EE0FFF1FEE59FD4F019097
:1008B000F081E02D9091EC048381891730F40E943F
:1008C00079030E94190483E001C080E080937B01DA
:1008D000089581E080937B010C941904EF92FF92BC
:1008E0000F931F93CF93DF93C1E001C0CC0F8A9584
:1008F000EAF783E00E94E70303EB12E0D0E0F8019F
:1009000081918F018C2319F08D2F0E94E703DF5F07
:10091000D330A9F700EB12E081E4E82E82E0F82E54
:10092000D1E0F80181918F018C2339F0F7018081AA
:100930009181FC01D6870E94D504F2E0EF0EF11CF4
:1009400082E0033B180769F7DF91CF911F910F9168
:10095000FF90EF9008950E94230781110E944407A1
:10096000E0916F01F091700180819181892B21F0DC
:10097000809173010E940B090C946C080E9423075C
:1009800081110E944407E0916F01F0917001808114
:100990009181892B21F0809173010E940B090C94A5
:1009A000540881E0809311030895AF92BF92CF92D3
:1009B000DF92EF92FF920F931F93CF93DF93FC018F
:1009C000A081B181AD90BC90E501AC89BD89109743
:1009D00039F0428553856485758530E020E017C085
:1009E000D50155969C938E93549757969C938E93CE
:1009F000569715821482138212825BC012968D91D3
:100A00009C9113973A2F2B2F009779F0DC011A96BF
:100A1000CD90DD90ED90FC901D974C155D056E0519
:100A20007F0560F7CD01A32FB22F93838283B58317
:100A3000A483009719F0EC01FD83EC83109729F053
:100A40001396FC93EE93129705C0D5015596FC932F
:100A5000EE935497E501AE89BF891A968D919D91C9
:100A60000D90BC91A02D088919892A893B8980178E
:100A70009107A207B30780F4041715072607370765
:100A800028F0481759076A077B0798F4D50157964D
:100A9000FC93EE9356970DC00417150726073707EA
:100AA00040F4481759076A077B0718F4E501FF8BE4
:100AB000EE8BDF91CF911F910F91FF90EF90DF9020
:100AC000CF90BF90AF900895CF93DF93DC01ED916D
:100AD000FC9111970190F081E02D848995891296FF
:100AE000CD91DC911397A817B90711F4D58BC48B5E
:100AF00086899789A817B90711F4D78BC68B2097D9
:100B000031F014968D919C9115979D838C8314964A
:100B10000D90BC91A02D109721F01396DC93CE93ED
:100B2000129786899789892B21F484899589978BD7
:100B3000868BDF91CF910895EF92FF920F931F93D1
:100B4000CF93DF93FC0180911103882309F4B5C092
:100B500084859585A685B7850196A11DB11D8487DD
:100B60009587A687B78740815181628173818417F9
:100B70009507A607B70709F0A0C040895189628987
:100B800073894F5F5F4F6F4F7F4F84819581A6813F
:100B9000B78184179507A607B70718F440E050E01F
:100BA000BA01408B518B628B738B14861586168627
:100BB0001786C689D789209709F47FC08A859B85C7
:100BC000AC85BD85481759076A077B0709F075C0D2
:100BD000CE01DC011296ED90FC901397E114F10424
:100BE00071F0D7011A960D911D912D913C911D9791
:100BF000401751076207730711F4C701EACF2C8130
:100C00003D812115310529F0D9011396FC92EE9210
:100C10001297E114F10429F0D70115963C932E9315
:100C2000149724893589C217D30711F4F58AE48A09
:100C3000E114F10419F0F78AE68A04C024893589A1
:100C4000378B268B8F01FC0113821282EA80FB8096
:100C5000E881F9810280F381E02DCE0109954E8172
:100C60005F8168857985411551056105710509F137
:100C70008A859B85AC85BD85840F951FA61FB71FF0
:100C8000F8014481558166817781481759076A07C1
:100C90007B0738F4841B950BA60BB70B0197A109B2
:100CA000B1098A879B87AC87BD87CE010E94D50496
:100CB00001C01E86E701209749F6DF91CF911F9171
:100CC0000F91FF90EF900895FC0182810C94E7034F
:100CD000FB014485A285B385FC01042E000C550B55
:100CE0009A012E1B3F0B280F391F121613061CF4F6
:100CF0002D912193F5CF80E00895DA01109749F006
:100D0000ED91FC911197309721F0AB01BC01CD0121
:100D1000099481E00895EF92FF920F931F93CF9370
:100D20007B01DC0112960D911C91139701151105A1
:100D3000F1F0D8011496ED91FC911597B701C80117
:100D40000995C82F81110AC0F8018081918100970F
:100D500041F0DC01ED91FC91099503C08E3009F45E
:100D6000C0E0F80102811381CC2301F301C0C0E08F
:100D700080E00E94F0068C2FCF911F910F91FF9081
:100D8000EF900895EF92FF920F931F93CF93DF930D
:100D90008C017B01FC01C285D38540855185CE0144
:100DA0000E947D068823A1F0F8012485F701DE0169
:100DB000022E000C330BC9018A1B9B0B8C0F9D1F4D
:100DC000181619061CF481918D93F5CF80E001C0AF
:100DD0008EE0DF91CF911F910F91FF90EF900895DA
:100DE00080917C0181110C944F040895DC01ED91F8
:100DF000FC9111972081222341F0218114968D913D
:100E00009C911597820F911D089580E090E00895C0
:100E10000E942307809168010895809368010E94D1
:100E20006E040E94D1040C9469040C948D0DCF9330
:100E3000C82F0E941603811102C00E94CA0D8C2F78
:100E4000CF910C94910080911E038130D9F0809154
:100E5000160390911703A0911803B0911903892BE1
:100E60008A2B8B2B79F481E040911A0350911B035C
:100E700060911C0370911D03452B462B472B19F4E1
:100E800080E0089581E0089510921E0310921A03E5
:100E900010921B0310921C0310921D031092160354
:100EA00010921703109218031092190380911203E5
:100EB00090911303A0911403B091150380931F0325
:100EC00090932003A0932103B093220308950E94DE
:100ED000CD0D80911F0390912003A0912103B0912B
:100EE00022030196A11DB11D80931F03909320033F
:100EF000A0932103B093220380911A0390911B03C6
:100F0000A0911C03B0911D030196A11DB11D8093FA
:100F10001A0390931B03A0931C03B0931D03089521
:100F200080911A0390911B03A0911C03B0911D03A3
:100F30000097A105B10569F140911F03509120036D
:100F40006091210370912203415051096109710997
:100F500040931F0350932003609321037093220357
:100F60000197A109B10980931A0390931B03A093E1
:100F70001C03B0931D0380911F0390912003A09147
:100F80002103B0912203892B8A2B8B2B11F40C9413
:100F9000CB0D089580911A0390911B03A0911C031F
:100FA000B0911D03892B8A2B8B2B89F4809116031A
:100FB00090911703A0911803B0911903892B8A2BE4
:100FC0008B2B29F40E94CD0D81E080931E030895A0
:100FD00080911E03882321F010921E030C94CB0DE8
:100FE00008950E94D10D80911F0390912003A0913C
:100FF0002103B09122030196A11DB11D80931F030F
:1010000090932003A0932103B093220380911603B1
:1010100090911703A0911803B09119030196A11D97
:10102000B11D8093160390931703A0931803B093F8
:10103000190308958091160390911703A091180346
:10104000B09119030097A105B10569F140911F0303
:101050005091200360912103709122034150510966
:101060006109710940931F0350932003609321038A
:10107000709322030197A109B109809316039093FD
:101080001703A0931803B093190380911F03909145
:101090002003A0912103B0912203892B8A2B8B2B53
:1010A00011F40C94CF0D08950E942307882311F0AA
:1010B00083E1089580E00895CF93C82F0E9423070D
:1010C0008C2F0E94E703C82F80917C0181110E9420
:1010D0004F048C2FCF910895CF930E94230788232C
:1010E00011F0C3E101C0C0E0E0916F01F091700127
:1010F0008281815082830E94D70381E080937B01AB
:101100000E9419048C2FCF910895CF93C82F0E946D
:101110002307E0916F01F0917001828181508283F9
:101120008C2F0E94E703C82F811108C00E94D703AB
:1011300081E080937B010E94190407C0E0916F0158
:10114000F091700182818F5F82838C2FCF910895FF
:10115000CF930E942307882311F0C3E101C0C0E0B0
:10116000809173010E945F030E944F04809173017C
:1011700090917401A0917501B09176014091770131
:10118000509178016091790170917A0184179507E7
:10119000A607B70711F40E9434038C2FCF9108954E
:1011A000CF93DF93EC010E942307882311F083E1A2
:1011B00001C080E04091730150917401609175010C
:1011C00070917601433051056105710514F448832F
:1011D00003C09091DF019883DF91CF9108950F9321
:1011E0001F93CF93C82F8B010E942307882311F0F0
:1011F00083E101C080E0EC2FEE0FFF0BEE59FD4FB5
:101200000190F081E02D94819370F8019083CF914B
:101210001F910F910895880F990BFC01EE59FD4F16
:10122000A081B181ED91FC911197309769F01D92E9
:101230001C922091DF019381848122831482138286
:10124000E92FF82F3097B9F70895CF93C82F0E9450
:101250002307882311F083E101C080E0EC2FF0E048
:10126000EE0FFF1FE655FD4FA081B18190917301F4
:1012700012969C931297E0916F01F091700120817A
:10128000318114963C932E931397B183A08393815D
:1012900011969C9311972C9193819695921760F4D7
:1012A00030E0D901A15DBC4F9C9191509C93220FDD
:1012B000331F9170292B2383CF910895CF93DF9310
:1012C000C82F0E942307882311F0D3E101C0D0E08A
:1012D000EC2FF0E0EE0FFF1FE655FD4F0190F0817F
:1012E000E02DA0916F01B0917001818113968C93D4
:1012F0001397838194818D939C93148213828091A0
:10130000DF0182830E944F048D2FDF91CF910895DA
:10131000DC01ED91FC9184819581DC01ED91FC91E2
:1013200009941F93CF93DF93182FEB010E9423079B
:10133000882311F083E101C080E0E12FF0E0EE0F9F
:10134000FF1FEF5BFD4F0190F081E02D0190F081D8
:10135000E02D0190F081E02D408151816281738107
:101360004C835D836E837F83448155816681778161
:10137000488359836A837B83408551856285738561
:10138000488759876A877B87DF91CF911F9108959E
:101390008F929F92AF92BF92CF92DF92EF92FF9285
:1013A0000F931F93CF93C82F8B010E94230788238D
:1013B00011F083E101C080E0EC2FF0E0EE0FFF1FA1
:1013C000EF5BFD4F0190F081E02D9685913029F57E
:1013D00042855385648575850190F081E02D0190EB
:1013E000F081E02DC088D188E288F3884C155D0536
:1013F0006E057F0540F484809580A680B780480DF7
:10140000591D6A1D7B1D4C195D096E097F09F80184
:10141000408351836283738301C085E0CF911F9124
:101420000F91FF90EF90DF90CF90BF90AF909F9083
:101430008F9008958F929F92AF92BF92CF92DF923A
:10144000EF92FF920F931F93CF93DF93D82F4A0110
:101450005B01680179010E942307882311F0C3E131
:1014600001C0C0E0ED2FF0E0EE0FFF1FEF5BFD4F7E
:101470000190F081E02D8685811130C0A081B1817D
:101480000D90BC91A02D50964D915D916D917C91E8
:101490005397480D591D6A1D7B1D14968D919D9182
:1014A0000D90BC91A02D84179507A607B70740F4AF
:1014B000481B590B6A0B7B0B41505109610971099B
:1014C0004287538764877587C682D782E086F18614
:1014D00081E08687CF010E94D50401C0C7E08C2F30
:1014E000DF91CF911F910F91FF90EF90DF90CF9000
:1014F000BF90AF909F908F9008958F929F92AF92E0
:10150000BF92CF92DF92EF92FF920F931F93CF93F0
:10151000DF93C82F4A015B01680179010E9423070C
:10152000882311F0D3E101C0D0E0EC2FF0E0EE0F02
:10153000FF1FEF5BFD4F0190F081E02D868581114B
:101540000EC082869386A486B586C682D782E08640
:10155000F18681E08687CF010E94D50401C0D7E0E3
:101560008D2FDF91CF911F910F91FF90EF90DF9022
:10157000CF90BF90AF909F908F9008950F931F933F
:10158000CF93DF93C82F0E942307882311F0D3E164
:1015900001C0D0E0EC2FF0E0EE0FFF1FEF5BFD4F3E
:1015A00000811181F8018685813031F4C8010E94E3
:1015B0006405F801168601C0D5E08D2FDF91CF912B
:1015C0001F910F910895CF93DF93880F991FFC010E
:1015D000E35EFD4F0190F081E02D8585882369F061
:1015E000C285D385CF010A960E94F606892B39F071
:1015F0008A81882331F08CE005C08AE003C08DE049
:1016000001C080E0DF91CF910895880F991FFC0100
:10161000EF5EFD4F80819181DC01ED91FC91099499
:101620009B01880F991FFC01E35EFD4F6081718172
:10163000DB011696ED91FC911797C9010994880F6B
:10164000991FFC01EF5EFD4F80819181DC01ED91DE
:10165000FC9160E070E0099580E0089560E08EE024
:101660000E94780C62E08CE00E94780C61E08DE0D2
:101670000E94780C26E040E052EC61E070E08BE4E0
:1016800093E00C94A5108EE00E946F0D90932E03B2
:1016900080932D038CE00E94B40C892B91F48091EF
:1016A0002B0390912C03019690932C0380932B0392
:1016B0000A977CF081E090E090932A0380932903BD
:1016C00008C010922C0310922B0310922A03109240
:1016D00029038091290320E030E0382F3295307FB4
:1016E00080912D0390912E03822B932B90932803AE
:1016F0008093270367E273E08091AC029091AD0282
:101700000E94ED000C94B900EF92FF920F931F938B
:10171000CF93DF9300D0CDB7DEB7BE016F5F7F4FB1
:101720008091AE029091AF020E94F10009811A816E
:10173000C801892F992782958F70EE24E394F12CAC
:10174000009711F4E12CF12C1370892B21F01093E8
:101750006A01009369012091690130916A01C80111
:10176000821B930B97FF03C09195819591099093EC
:101770002603809325032F3F3F4F19F483E090E029
:1017800012C0843691052CF4109224031092230386
:101790000EC0845691098436910518F481E090E0DA
:1017A00002C082E090E0909324038093230360EED4
:1017B00071E08BE493E00E94760E4AE050E0B701BE
:1017C0008BE493E00E94400F69EE71E08BE493E0BC
:1017D0000E94760E4AE050E0B8018BE493E00E944C
:1017E000400F61EF71E08BE493E00E94760E609110
:1017F000690170916A014AE050E08BE493E00E9435
:10180000400F64EF71E08BE493E00E94760E6091EC
:101810002503709126034AE050E08BE493E00E9498
:10182000400F67EF71E08BE493E00E94760E6091C9
:101830002303709124034AE050E08BE493E00E947C
:10184000DF0E6DEF71E08BE493E00E94760E0E9454
:10185000B9000F900F90DF91CF911F910F91FF90E2
:10186000EF9008950C94B9000F931F9381E0FA0153
:101870000081118122813381FB014081518162818C
:101880007381041715072607370709F480E01F91B5
:101890000F9108958DEB91E00C943A0108958330F7
:1018A00081F028F4813099F08230A1F008958730DA
:1018B000A9F08830B9F08430D1F4809180008F7D18
:1018C00003C0809180008F7780938000089584B555
:1018D0008F7702C084B58F7D84BD08958091B0005C
:1018E0008F7703C08091B0008F7D8093B000089502
:1018F000CF93DF9390E0FC01E458FF4F2491FC016B
:10190000E057FF4F8491882361F190E0880F991F81
:10191000FC01E854FF4FC591D491FC01E255FF4F03
:10192000A591B491611109C09FB7F8948881209561
:1019300082238883EC912E230BC0623061F49FB721
:10194000F8948881322F309583238883EC912E2B55
:101950002C939FBF06C08FB7F894E8812E2B288365
:101960008FBFDF91CF910895CF93DF93282F30E081
:10197000F901E859FF4F8491F901E458FF4FD491E0
:10198000F901E057FF4FC491CC2391F081110E94DF
:101990004F0CEC2FF0E0EE0FFF1FEC55FF4FA59121
:1019A000B491EC91ED2381E090E021F480E002C05D
:1019B00080E090E0DF91CF9108951F920F920FB6D3
:1019C0000F9211242F933F934F935F936F937F93C5
:1019D0008F939F93AF93BF93EF93FF9380914203B5
:1019E00090914303A0914403B0914503309141038A
:1019F00023E0230F2D3720F40196A11DB11D05C052
:101A000026E8230F0296A11DB11D20934103809368
:101A1000420390934303A0934403B0934503809102
:101A2000460390914703A0914803B0914903019662
:101A3000A11DB11D8093460390934703A0934803D3
:101A4000B09349030E944A0CFF91EF91BF91AF916F
:101A50009F918F917F916F915F914F913F912F91C6
:101A60000F900FBE0F901F90189584B5826084BDB3
:101A700084B5816084BD85B5826085BD85B5816092
:101A800085BDEEE6F0E0808181608083E1E8F0E0F2
:101A90001082808182608083808181608083E0E821
:101AA000F0E0808181608083E1EBF0E08081846000
:101AB0008083E0EBF0E0808181608083EAE7F0E002
:101AC0008081846080838081826080838081816066
:101AD00080838081806880831092C10008958E3059
:101AE00008F08E502091DA0190E4299F9001112492
:101AF0008770822B80937C0080917A008064809331
:101B00007A0080917A0086FDFCCF80917800209148
:101B1000790090E0922B0895FFCFFFCFCF93DF9312
:101B2000880F990BFC01E659FD4FC081D181AC8132
:101B3000BD8111978A819B81A80FB91F2D85CD0189
:101B40000197FD013297223019F421EB30E002C0F9
:101B50002DEC30E02C93DC013C939E818F819083AF
:101B6000DF018E93CF0107971E928A179B07E1F73B
:101B700080E8DF0118978C93CF0144971E928A1753
:101B80009B07E1F7A881B9817597ED93FC93DF91ED
:101B9000CF910895089578940895F89408957894CD
:101BA0000895F894089508950E94350D0E94D30D6C
:101BB0000E944E0C0E942E0B80914A030E94170730
:101BC00080E090E008958091B60280934A030895E2
:101BD00008951F920F920FB60F9211242F933F93E7
:101BE0004F935F936F937F938F939F93AF93BF9325
:101BF000EF93FF93E091DB01F091DC010995FF91F8
:101C0000EF91BF91AF919F918F917F916F915F9174
:101C10004F913F912F910F900FBE0F901F901895ED
:101C20001F920F920FB60F9211242F933F934F9351
:101C30005F936F937F938F939F93AF93BF93EF9334
:101C4000FF93E091DD01F091DE010995FF91EF91A5
:101C5000BF91AF919F918F917F916F915F914F91C4
:101C60003F912F910F900FBE0F901F901895CF921C
:101C7000DF92EF92FF920F931F93CF93DF936C014C
:101C80007A018B01C0E0D0E0CE15DF0581F0D801EC
:101C90006D918D01D601ED91FC910190F081E02DC7
:101CA000C6010995892B11F02196EECF7E01C7015F
:101CB000DF91CF911F910F91FF90EF90DF90CF9028
:101CC00008956115710579F0FB0101900020E9F795
:101CD0003197AF01461B570BDC01ED91FC9102805F
:101CE000F381E02D099480E090E008950C94610E5A
:101CF000DC01ED91FC910190F081E02D09946FEEF3
:101D000072E00C94610E8F929F92AF92BF92EF920D
:101D1000FF920F931F93CF93DF93CDB7DEB7A197B9
:101D20000FB6F894DEBF0FBECDBF7C01FA01CB0128
:101D300019A2223008F42AE08E010F5D1F4F822E77
:101D4000912CA12CB12CBF01A50194010E940D1171
:101D5000F901CA01015011096A3014F4605D01C033
:101D6000695CD8016C93232B242B252B61F7B801D8
:101D7000C7010E94610EA1960FB6F894DEBF0FBE98
:101D8000CDBFDF91CF911F910F91FF90EF90BF904A
:101D9000AF909F908F9008952115310541F4DC019B
:101DA000ED91FC910190F081E02D642F09940C9449
:101DB000830E9A01AB0160E070E00C94CC0E0F939F
:101DC0001F93CF93DF93EC010E94D90E8C01CE01BB
:101DD0000E947F0E800F911FDF91CF911F910F9175
:101DE0000895CF92DF92EF92FF920F931F93CF93BC
:101DF000DF932115310581F4DC01ED91FC91019017
:101E0000F081E02D642FDF91CF911F910F91FF9012
:101E1000EF90DF90CF9009942A30310501F577FFDC
:101E20001DC06A017B01EC016DE20E94780E8C01FD
:101E300044275527BA014C195D096E097F092AE02C
:101E4000CE010E94830E800F911FDF91CF911F91D1
:101E50000F91FF90EF90DF90CF9008952AE0DF91EF
:101E6000CF911F910F91FF90EF90DF90CF900C9446
:101E7000830E9A01AB01770F660B770B0C94F10E72
:101E80000F931F93CF93DF93EC010E94390F8C01C6
:101E9000CE010E947F0E800F911FDF91CF911F9185
:101EA0000F9108951F920F920FB60F9211242F9346
:101EB0008F939F93EF93FF93E0915B03F0915C030B
:101EC0008081E0916103F091620382FD12C09081F4
:101ED000809164038F5F8F7320916503821751F0A7
:101EE000E0916403F0E0E55BFC4F958F8093640321
:101EF00001C08081FF91EF919F918F912F910F9061
:101F00000FBE0F901F9018951F920F920FB60F9251
:101F100011242F933F934F935F936F937F938F93EE
:101F20009F93AF93BF93EF93FF938BE493E00E9453
:101F30001410FF91EF91BF91AF919F918F917F917D
:101F40006F915F914F913F912F910F900FBE0F9026
:101F50001F901895EBE4F3E01382128288EE93E071
:101F6000A0E0B0E084839583A683B78382E093E00A
:101F70009183808385EC90E09587848784EC90E062
:101F80009787868780EC90E0918B808B81EC90E046
:101F9000938B828B82EC90E0958B848B86EC90E027
:101FA000978B868B118E128E138E148E0895FC01E2
:101FB000918D228D892F90E0805C9F4F821B91092B
:101FC0008F7399270895FC01918D828D981731F0B8
:101FD000828DE80FF11D858D90E008958FEF9FEFC2
:101FE0000895FC01918D828D981761F0828DDF013B
:101FF000A80FB11D5D968C91928D9F5F9F73928FFC
:1020000090E008958FEF9FEF0895FC01538D448D6C
:10201000252F30E0842F90E0821B930B541710F093
:10202000CF96089501970895FC01848DDF01A80FD4
:10203000B11DA35ABF4F2C91848D90E001968F73F0
:102040009927848FA689B7892C93A089B1898C910F
:10205000837080648C93938D848D981306C002885E
:10206000F389E02D80818F7D80830895EF92FF9228
:102070000F931F93CF93DF93EC0181E0888F9B8DAB
:102080008C8D981305C0E889F989808185FD26C06B
:10209000F62E0B8D10E00F5F1F4F0F731127E02EF0
:1020A0008C8DE8120CC00FB607FCFACFE889F989CD
:1020B000808185FFF5CFCE010E941410F1CF8B8D6A
:1020C000FE01E80FF11DE35AFF4FF0829FB7F8942D
:1020D0000B8FEA89FB89808180620AC09FB7F894E0
:1020E000EE89FF896083E889F98980818370806443
:1020F00080839FBF81E090E0DF91CF911F910F918E
:10210000FF90EF900895CF93DF93EC01888D8823A3
:10211000C9F0EA89FB89808185FD05C0A889B98954
:102120008C9186FD0FC00FB607FCF5CF808185FF2F
:10213000F2CFA889B9898C9185FFEDCFCE010E949D
:102140001410E7CFDF91CF910895CF92DF92EF92F5
:10215000FF921F93CF93DF93EC016A017B01122F53
:10216000E889F98982E080834115514E6105710546
:10217000B1F060E079E08DE390E0A70196010E9464
:102180000D11DA01C9010197A109B109B695A79509
:10219000979587959C01211580E13807A8F0E8897B
:1021A000F989108260E874E88EE190E0A701960159
:1021B0000E940D11DA01C9010197A109B109B69573
:1021C000A795979587959C01EC85FD853083EE85D5
:1021D000FF852083188EEC89FD891083EA89FB89AD
:1021E000808180618083EA89FB8980818860808327
:1021F000EA89FB89808180688083EA89FB89808104
:102200008F7D8083DF91CF911F91FF90EF90DF90C2
:10221000CF900895F8940C943511A1E21A2EAA1BC0
:10222000BB1BFD010DC0AA1FBB1FEE1FFF1FA21786
:10223000B307E407F50720F0A21BB30BE40BF50B83
:10224000661F771F881F991F1A9469F7609570950C
:10225000809590959B01AC01BD01CF010895EE0FD3
:0E226000FF1F0590F491E02D0994F894FFCF34
:10226E000000000000000000000000000000000060
:10227E000000000000000000000000000000000050
:10228E000000000000000000000000000000000040
:10229E000000000000000000000000000000000030
:1022AE000000000000000000000000000000000020
:1022BE000000000000000000000000000000000010
:1022CE000000000000000000FFFFFF00009C020065
:1022DE00003C03FFFFFFFFFFFFFFFF0000340C3445
:1022EE000C470200000000E8010000E801000002B7
:1022FE00500200000000E8010000E8010000025951
:10230E0002000000006200000062000000020000F7
:10231E00000304000000020400000001040100009C
:10232E0000FFFF00000100000000000000000000A0
:10233E0000000000000400FF000001E80DE80DFFA2
:10234E00535F73746174653A0041305F76616C3A25
:10235E0000523A00583A006D73674D3A002D2D2DFC
:10236E002D2D2D2D2D2D2D2D2D2D2D2D2D2D2D0AB2
:10237E0000190215028B0621028B06310231022151
:10238E00022E020000C20668067D013403046406B4
:10239E00003E020000C20668067F01380304640690
:1023AE00019F0190018101BD0188094D0264060063
:1023BE00BD0188095602640601BD0188095F0264E9
:1023CE000602B801B301AE013C038E028002720216
:1023DE009C02E80448060001430B000002030100C2
:1023EE004606E8030001840B0000010201004807C5
:1023FE0046050001320C000000010100F404F60451
:10240E0050008C0D000003000100D50100000000FB
:10241E00010101010101001A08E807F107CA07BE10
:10242E00046707AB049007A8085E09150791095CBD
:10243E0008C80985081A0AD0087D0A0D07BE0A08C1
:10244E0007050BE30A100B25091F0BEF086C080D8F
:10245E000A006E616E00696E66006F76660000009F
:10246E0000003610370E05108310D70FF10FE30F53
:00000001FF
