:100000000C9454000C944A0D0C94710D0C947C00CB
:100010000C947C000C947C000C947C000C947C0070
:100020000C947C000C947C000C947C000C947C0060
:100030000C947C000C947C000C947C000C947C0050
:100040000C945B0C0C947C000C94A00E0C94D20EBF
:100050000C947C000C947C000C947C000C947C0030
:100060000C947C000C947C00010204081020408059
:1000700001020408102001020408102004040404F2
:100080000404040402020202020203030303030342
:1000900000000000250028002B00000000002400C4
:1000A00027002A00440DF80E11241FBECFEFD8E020
:1000B000DEBFCDBF13E0A0E0B1E0EAE5F1E202C0AF
:1000C00005900D92A631B107D9F727E0A6E1B3E07C
:1000D00001C01D92A135B207E1F710E0C4E5D0E000
:1000E00004C02197FE010E94A510C235D107C9F7AF
:1000F0000E94350D0C9458100C940000E2E10E940F
:1001000023010895E9E00E9423010895EAE00E9496
:1001100023010895E1E00E9423010895E3E00E9495
:1001200023010895E7E00E9423010895E5E00E947D
:1001300023010895E0E00E9423010895E2E00E9477
:1001400023010895E4E00E9423010895ECE00E9459
:1001500023010895E8E00E9423010895EEE00E9443
:1001600023010895E4E10E9423010895E0E10E9443
:1001700023010895E7E10E9423010895E6E00E942B
:1001800023010895EBE00E9423010895EDE00E9411
:1001900023010895EFE00E9423010895E1E10E9408
:1001A00023010895E3E10E9423010895E5E10E94FF
:1001B00023010895E6E10E942301089521968A9281
:1001C0009A92AA92BA92CA92DA92EA92FA920A930E
:1001D0001A932197E0916901F0916A010080F18101
:1001E000E02DC083D1830895C0916B01D0916C0143
:1001F000E881F981C081D181219619910991F99005
:10020000E990D990C990B990A99099908990219737
:1002100008952F903F90E7E6F1E0CDB7DEB7EDBF50
:10022000FEBF3F922F9208952F903F90CDBFDEBF2B
:100230003F922F920895E0E80E9423010895E0E4A0
:100240000E94230108952F923F924F925F926F92E6
:100250007F922FB62F92CF93DF937E2EF894E0916A
:100260000001EF5FE0930001E13011F40E94090109
:10027000E0E0E0937901E72DE07849F00E94800505
:10028000F0917A01F17071F00E9433040BC0E72DF8
:10029000EC3140F4EE0FF0E0EC53FD4F0190F081B3
:1002A000E02D0995F0917901EF2FE17059F0F2708E
:1002B00011F00E94DE008F938F2F0E947B038F919D
:1002C0000E94F4002091000121502093000122237C
:1002D00011F40E941401DF91CF912F902FBE7F90D7
:1002E0006F905F904F903F902F90089580911603EC
:1002F0000895CF92DF92EF92FF920F931F93DC014C
:10030000EC91DB012C918E2F8170C82ED12CE12C29
:10031000F12C8E2F8F7090E0A0E0B0E0B695A795FD
:1003200097958795DC01A55CBC4F8C91C81AD108C4
:10033000E108F108EE70422F417050E060E070E09B
:10034000822F8F7090E0A0E0B0E0B695A7959795CA
:100350008795DC01A55CBC4F8C91481B5109610954
:100360007109822F8E709701860101701127222753
:1003700033270E2B4170552766277727482B81E0BE
:1003800090E0041715072607370710F080E090E08B
:100390001F910F91FF90EF90DF90CF9008958F9273
:1003A0009F92AF92BF92EF92FF920F931F93CF93C2
:1003B000DF937C014A015B01B694A79497948794DC
:1003C0004230510561057105E0F0440F551F87016A
:1003D000040F151FE401CC0FDD1FCE0DDF1DB8018A
:1003E000CE010E947901892B61F0F8019081818111
:1003F000288139813183208398838983B501A401C1
:10040000DBCFDF91CF911F910F91FF90EF90BF90C5
:10041000AF909F908F9008954F925F926F927F92CE
:100420008F929F92AF92BF92CF92DF92EF92FF9204
:100430000F931F93CF93DF9300D000D000D0CDB7A0
:10044000DEB78C016A017B01DC018C91282F30E042
:1004500040E050E029833A834B835C834601570197
:10046000880C991CAA1CBB1C29813A814B815C8198
:10047000281539054A055B0508F442C024013501F9
:100480003FEF431A530A630A730A89819A81AB8149
:10049000BC8184159505A605B70580F0B201660FED
:1004A000771F600F711FC401880F991F800F911F64
:1004B0000E947901892B11F0530142013401660C2D
:1004C000771C600E711ECC0CDD1CD801AC0DBD1D5F
:1004D000BE83AD83B301CD010E947901892B81F0E8
:1004E000ED81FE8190818181D3012D913C91119705
:1004F000318320839C9311968C9375016401AECF58
:1005000026960FB6F894DEBF0FBECDBFDF91CF9118
:100510001F910F91FF90EF90DF90CF90BF90AF9021
:100520009F908F907F906F905F904F900895EFEE27
:10053000F4E040814F5F408350E060E070E0E82FDE
:10054000EE0FFF0BE858FD4F0190F081E02D238561
:1005500030E0F901E55CFC4F908191509083FA0105
:10056000EE0FFF1FE151FB4F220F331F9170292B1C
:10057000208381838FEE94E00C94CF01EFEEF4E0C2
:1005800040814F5F408350E060E070E0E82FEE0F65
:10059000FF0BE059FD4F0190F081E02D9381FA01AE
:1005A000EE0FFF1FE151FB4F908381838FEE94E0AC
:1005B0000C94CF01CF93DF93EFEEF4E080819FEFB7
:1005C000980F9083D281C38190E0880F991FDC013E
:1005D000A151BB4F8D919C919383828341E050E068
:1005E00060E070E0CF010E940C028D2F9C2FDF9104
:1005F000CF91089580911603811114C080917101EB
:1006000090917201A0917301B09174018F3F2FEF0F
:100610009207A207B20741F00397A105B10534F490
:1006200081E0089584E0089580E0089582E00895CF
:10063000880F990BFC01E858FD4F0190F081E02DE7
:100640000084F185E02D3097E9F0228121111AC054
:1006500021E02283DC01A059BD4F0D90BC91A02D5B
:1006600013968C9113978183808190E0FC01E55C67
:10067000FC4F208121502083880F991F2170822BED
:1006800013968C930895880F990BFC01E858FD4F41
:100690000190F081E02D0084F185E02D309761F02C
:1006A0002281213049F412822181FC01E059FD4F61
:1006B0000190F081E02D2383089580917501909140
:1006C0007601A0917701B09178014091710150912C
:1006D00072016091730170917401481759076A079C
:1006E0007B0741F0E0916F01F091700121E02483DC
:1006F0000C94BE020895CF93DF93882391F0C091AC
:100700006901D0916A01E0916D01F0916E018481DF
:10071000833049F081E08483809171010E94BE02A0
:1007200002C0C0E0D0E0E0916F01F0917001F09361
:100730006E01E0936D0180916B0190916C0190933B
:100740006A01809369018091750130917601209151
:100750007701909178018093710130937201209319
:1007600073019093740192E094830E941803CE0168
:10077000DF91CF910895809171010E944303E09130
:100780006D01F0916E018281882319F085E08483E8
:10079000089514820895CF93DF93282F220F330BEF
:1007A000F901E059FD4FC081D1819A81F901E858E2
:1007B000FD4F0190F081E02D2485921770F4911186
:1007C00005C095E09C8391E090937A010E94970286
:1007D0008A818F5F8A8380E001C084E0DF91CF91BE
:1007E0000895E82FEE0FFF0BE059FD4F0190F081C7
:1007F000E02D118210820C94EF0C1F93CF93DF93A6
:100800000E94DA02182F892F492F092E000C550B50
:10081000660B770B409375015093760160937701D7
:1008200070937801292F220F330BF901E059FD4F06
:10083000C081D181D0937001C0936F01F901E85854
:10084000FD4F2081318130936C0120936B019C819D
:10085000953019F40E94F1031B8310927A01DF9105
:10086000CF911F910895E0917501F0917601EE0FFF
:10087000FF1FE059FD4F0190F081E02D9091F104B0
:100880008381891730F40E945D030E94FD0383E099
:1008900001C080E080937901089581E0809379011F
:1008A0000C94FD03EF92FF920F931F93CF93DF936E
:1008B000C1E001C0CC0F8A95EAF783E00E94CB0328
:1008C00000EC12E0D0E0F80181918F018C2319F047
:1008D0008D2F0E94CB03DF5FD330A9F70DEB12E021
:1008E0008FE4E82E82E0F82ED1E0F80181918F01AB
:1008F0008C2339F0F70180819181FC01D6870E9419
:10090000B904F2E0EF0EF11C82E0003C180769F731
:10091000DF91CF911F910F91FF90EF9008950E946A
:10092000710681110E949206E0916D01F0916E01B5
:1009300080819181892B21F0809171010E94A3080F
:100940000C94C8070E94710681110E949206E091E2
:100950006D01F0916E0180819181892B21F0809150
:1009600071010E94A3080C94A20781E080931703F1
:100970000895AF92BF92CF92DF92EF92FF920F93C2
:100980001F93CF93DF93FC01A081B181AD90BC9008
:10099000E501AC89BD89109739F04285538564859E
:1009A000758530E020E017C0D50155969C938E9355
:1009B000549757969C938E93569715821482138260
:1009C00012825BC012968D919C9113973A2F2B2F18
:1009D000009779F0DC011A96CD90DD90ED90FC90B7
:1009E0001D974C155D056E057F0560F7CD01A32FA2
:1009F000B22F93838283B583A483009719F0EC010F
:100A0000FD83EC83109729F01396FC93EE931297D5
:100A100005C0D5015596FC93EE935497E501AE8938
:100A2000BF891A968D919D910D90BC91A02D08893A
:100A300019892A893B8980179107A207B30780F497
:100A4000041715072607370728F0481759076A07BC
:100A50007B0798F4D5015796FC93EE9356970DC0FB
:100A6000041715072607370740F4481759076A0780
:100A70007B0718F4E501FF8BEE8BDF91CF911F917F
:100A80000F91FF90EF90DF90CF90BF90AF900895BF
:100A9000CF93DF93DC01ED91FC9111970190F081F0
:100AA000E02D848995891296CD91DC911397A81732
:100AB000B90711F4D58BC48B86899789A817B90714
:100AC00011F4D78BC68B209731F014968D919C91A1
:100AD00015979D838C8314960D90BC91A02D109733
:100AE00021F01396DC93CE93129786899789892BF0
:100AF00021F484899589978B868BDF91CF91089516
:100B0000EF92FF920F931F93CF93DF93FC0180919D
:100B10001703882309F4B5C084859585A685B78514
:100B20000196A11DB11D84879587A687B78740814F
:100B300051816281738184179507A607B70709F071
:100B4000A0C040895189628973894F5F5F4F6F4FA1
:100B50007F4F84819581A681B78184179507A60769
:100B6000B70718F440E050E0BA01408B518B628B1C
:100B7000738B1486158616861786C689D7892097A3
:100B800009F47FC08A859B85AC85BD8548175907C8
:100B90006A077B0709F075C0CE01DC011296ED9063
:100BA000FC901397E114F10471F0D7011A960D919E
:100BB0001D912D913C911D974017510762077307B6
:100BC00011F4C701EACF2C813D812115310529F0AF
:100BD000D9011396FC92EE921297E114F10429F0D8
:100BE000D70115963C932E93149724893589C21703
:100BF000D30711F4F58AE48AE114F10419F0F78AB5
:100C0000E68A04C024893589378B268B8F01FC0145
:100C100013821282EA80FB80E881F9810280F381ED
:100C2000E02DCE0109954E815F816885798541155A
:100C300051056105710509F18A859B85AC85BD85E6
:100C4000840F951FA61FB71FF80144815581668147
:100C50007781481759076A077B0738F4841B950B7F
:100C6000A60BB70B0197A109B1098A879B87AC87AF
:100C7000BD87CE010E94B90401C01E86E7012097FE
:100C800049F6DF91CF911F910F91FF90EF9008955A
:100C9000FC0182810C94CB030E9471068091680153
:100CA0000895CF93C82F0E94FA0281110AC0C09301
:100CB00068018C2F0E9452040E94B504CF910C94BD
:100CC0004D04CF9108950C94EE0CCF93C82F0E9441
:100CD000FA02811102C00E942B0D8C2FCF910C942F
:100CE0008200809124038130D9F080911C0390917F
:100CF0001D03A0911E03B0911F03892B8A2B8B2B00
:100D000079F481E040912003509121036091220306
:100D100070912303452B462B472B19F480E008954F
:100D200081E0089510922403109220031092210371
:100D3000109222031092230310921C0310921D03A1
:100D400010921E0310921F038091180390911903B3
:100D5000A0911A03B0911B0380932503909326035F
:100D6000A0932703B093280308950E942E0D80912D
:100D7000250390912603A0912703B09128030196A3
:100D8000A11DB11D8093250390932603A0932703F3
:100D9000B09328038091200390912103A091220316
:100DA000B09123030196A11DB11D80932003909360
:100DB0002103A0932203B09323030895809120037D
:100DC00090912103A0912203B09123030097A105E4
:100DD000B10569F1409125035091260360912703E5
:100DE000709128034150510961097109409325030D
:100DF0005093260360932703709328030197A1095A
:100E0000B1098093200390932103A0932203B09310
:100E100023038091250390912603A0912703B0918D
:100E20002803892B8A2B8B2B11F40C942C0D0895FD
:100E30008091200390912103A0912203B09123037C
:100E4000892B8A2B8B2B89F480911C0390911D0395
:100E5000A0911E03B0911F03892B8A2B8B2B29F4A1
:100E60000E942E0D81E08093240308958091240335
:100E7000882321F0109224030C942C0D08950E94D5
:100E8000320D8091250390912603A0912703B09104
:100E900028030196A11DB11D80932503909326037D
:100EA000A0932703B093280380911C0390911D0306
:100EB000A0911E03B0911F030196A11DB11D809347
:100EC0001C0390931D03A0931E03B0931F0308956A
:100ED00080911C0390911D03A0911E03B0911F03EC
:100EE0000097A105B10569F14091250350912603B2
:100EF00060912703709128034150510961097109DC
:100F0000409325035093260360932703709328038F
:100F10000197A109B10980931C0390931D03A0932D
:100F20001E03B0931F038091250390912603A09187
:100F30002703B0912803892B8A2B8B2B11F40C9457
:100F4000300D08950E947106882311F083E1089501
:100F500082E00895CF93C82F0E947106811106C0C8
:100F60000E947601882321F0C2E00FC0C3E10DC0CA
:100F7000C33010F0C3E009C08C2F0E94CB03C82FF0
:100F800080917A0181110E9433048C2FCF910895B2
:100F9000CF930E947106811107C00E94FA02C82FE8
:100FA000813021F082E016C083E114C0E0916D0130
:100FB000F0916E0180819181892B11F086E00AC049
:100FC0008281815082830E94BB03C09379010E9479
:100FD000FD0380E0CF910895CF93DF93C82F0E9447
:100FE0007106811109C00E94FA02D82F813031F4B4
:100FF000C33030F0C3E025C0C3E123C0C2E021C04C
:10100000E0916D01F0916E0180819181892BC1F495
:101010008281815082838C2F0E94CB03C82F811143
:1010200007C00E94BB03D09379010E94FD0309C051
:10103000E0916D01F0916E0182818F5F828301C02A
:10104000C6E08C2FDF91CF9108950E947106811127
:1010500006C00E94FA02813021F082E0089583E107
:101060000895E0916D01F0916E0180819181892B4D
:1010700011F086E00895809171010E9443030E945F
:1010800033048091710190917201A0917301B0912C
:1010900074014091750150917601609177017091D2
:1010A000780184179507A607B70711F40E94180363
:1010B00080E00895CF93DF93EC010E9471068111C7
:1010C00016C00E947601811114C080917101909127
:1010D0007201A0917301B091740183309105A10553
:1010E000B10514F08091DD01888380E003C083E1C5
:1010F00001C082E0DF91CF9108950F931F93CF93AA
:10110000C82F8B010E947106811106C00E947601D2
:10111000882321F082E013C083E111C0C33010F0B6
:1011200083E00DC0EC2FEE0FFF0BE059FD4F019057
:10113000F081E02D84818370F801808380E0CF917D
:101140001F910F910895880F990BFC01E059FD4FF5
:10115000A081B181ED91FC911197309769F01D92BA
:101160001C922091DD019381848122831482138259
:10117000E92FF82F3097B9F70895CF93C82F0E9421
:101180007106811108C00E947601811106C0C2302B
:1011900030F083E045C083E143C082E041C0EC2FE2
:1011A000F0E0EE0FFF1FE854FD4F0190F081E02DBD
:1011B00092818091DD01981309C0A0916901B091DD
:1011C0006A011B969C918081891710F481E028C0E8
:1011D000809171018283A0916D01B0916E018D911A
:1011E0009C911197948383831196FC93EE931396AD
:1011F0008C9113978183808113969C911397969578
:10120000981768F490E0FC01E55CFC4F20812150C8
:101210002083880F991F2170822B13968C9380E076
:10122000CF910895CF93C82F0E947106811106C0F7
:101230000E947601882321F082E036C083E134C029
:10124000C23010F083E030C0EC2FF0E0EE0FFF1F53
:10125000E854FD4F0190F081E02DA0916901B0911B
:101260006A011B969C9180818917D8F0A0916D012D
:10127000B0916E018D919C911197E817F90799F43F
:10128000818113968C931397838194818D939C9382
:10129000148213828091DD0182830E94330480E0F6
:1012A00003C081E001C085E0CF910895DC01ED919C
:1012B000FC9184819581DC01ED91FC9109940F935F
:1012C0001F93CF93DF93C82F8B010E94710681116A
:1012D00006C00E947601882321F082E02FC083E1BE
:1012E0002DC0C33010F083E029C0EC2FF0E0EE0FEA
:1012F000FF1FE15BFD4F0190F081E02D0190F08137
:10130000E02D0190F081E02D80819181A281B38157
:10131000E8018C839D83AE83BF8384819581A68100
:10132000B78188839983AA83BB8380859185A285B1
:10133000B38588879987AA87BB8780E0DF91CF91A3
:101340001F910F910895CF92DF92EF92FF920F932A
:101350001F93CF93C82F8B010E947106811107C084
:101360000E947601811105C0C330C8F504C083E135
:1013700037C082E035C0EC2FF0E0EE0FFF1FE15BDD
:10138000FD4F0190F081E02D8685813031F5828519
:101390009385A485B5850190F081E02D0190F081C1
:1013A000E02D408951896289738984179507A607C2
:1013B000B70740F4C480D580E680F7808C0D9D1D72
:1013C000AE1DBF1D841B950BA60BB70BF8018083C8
:1013D0009183A283B38380E003C085E001C083E0F2
:1013E000CF911F910F91FF90EF90DF90CF900895D4
:1013F0008F929F92AF92BF92CF92DF92EF92FF9225
:101400000F931F93CF93DF93C82F6A017B0148018D
:1014100059010E947106811107C00E947601811155
:1014200005C0C330E8F404C083E15AC082E058C06C
:10143000EC2FF0E0EE0FFF1FE15BFD4F0190F0811C
:10144000E02DA081B181CD91DC918C819D81AE8117
:10145000BF818C159D05AE05BF0508F440C002C0D4
:1014600083E03EC081149104A104B10471F0881599
:101470009905AA05BB0598F1488559856A857B853C
:1014800084169506A606B70650F12685211125C0BB
:10149000488959896A897B89C40ED51EE61EF71EC4
:1014A0008C159D05AE05BF0548F4C81AD90AEA0A8D
:1014B000FB0A81E0C81AD108E108F108C286D38688
:1014C000E486F58686829782A086B18681E086874B
:1014D000CF010E94B90480E003C087E001C088E02A
:1014E000DF91CF911F910F91FF90EF90DF90CF9000
:1014F000BF90AF909F908F9008958F929F92AF92E0
:10150000BF92CF92DF92EF92FF920F931F93CF93F0
:10151000C82F6A017B01480159010E94710681119F
:1015200008C00E947601811106C0C33030F083E00C
:1015300047C083E145C082E043C0EC2FF0E0EE0FEE
:10154000FF1FE15BFD4F0190F081E02DA081B18193
:101550000D90BC91A02D14964D915D916D917C9153
:1015600017974C155D056E057F05A8F08114910451
:10157000A104B10491F0481559056A057B0558F09E
:1015800018968D919D910D90BC91A02D881699066D
:10159000AA06BB0610F488E013C0868581110FC02F
:1015A000C286D386E486F58686829782A086B18637
:1015B00081E08687CF010E94B90480E001C087E006
:1015C000CF911F910F91FF90EF90DF90CF90BF9040
:1015D000AF909F908F900895CF93DF93C82F0E9474
:1015E0007106811106C00E947601882321F082E0F5
:1015F00018C083E116C0C33010F083E012C0EC2F96
:10160000F0E0EE0FFF1FE15BFD4FC081D1818E85C1
:10161000813031F4CE010E9448051E8680E001C071
:1016200085E0DF91CF91089560E08EE00E941F0C6D
:1016300061E08DE00E941F0C26E040E855E260E08A
:1016400070E080E593E00C94F30FCF938091290331
:1016500090912A03019690932A0380932903809105
:101660002B0390912C0305973CF06EED71E080E523
:1016700093E00E94E40D59C0C091BC028C2F0E94DF
:10168000C200E0912F03F0913003EE0FFF1FEF5CDB
:10169000FC4F8091290390912A039183808365E117
:1016A00072E080E593E00E94D70D6091290370916C
:1016B0002A034AE050E080E593E00E94870E6CE147
:1016C00072E080E593E00E94D70D60912F03709146
:1016D00030034AE050E080E593E00E94870E60E32B
:1016E00072E080E593E00E94D70D80912F039091E6
:1016F0003003019665E070E00E945B109093300328
:1017000080932F0360912B0370912C036F5F7F4FA9
:1017100070932C0360932B034AE050E080E593E044
:101720000E948E0E8C2F0E94C600CF910C94AA00AE
:10173000BF92CF92DF92EF92FF920F931F93CF93BE
:10174000DF9395E0C92ED12C0FE017E2C1EFD8ED61
:1017500025E0E22EF12CB090BC0280912B039091F9
:101760002C0318161906D4F5E0912D03F0912E03E1
:10177000EE0FFF1FEF5CFC4F80819181C817D907E6
:101780000CF4EC01801791070CF48C016AE272E012
:1017900080E593E00E94D70D80912D0390912E0358
:1017A0000196B7010E945B1090932E0380932D0346
:1017B0008B2D0E94C20060912B0370912C0361500D
:1017C000710970932C0360932B034AE050E080E58D
:1017D00093E00E948E0E8B2D0E94C60081E0C81AF5
:1017E000D10809F0BACF6DE372E080E593E00E9482
:1017F000D70D4AE050E0B80180E593E00E94870EE3
:1018000064E472E080E593E00E94D70D4AE050E086
:10181000BE0180E593E00E948E0EDF91CF911F9173
:101820000F91FF90EF90DF90CF90BF900C94AA00A3
:101830000C94AA0087EB91E00C941B010895CF93C0
:10184000DF9390E0FC01E859FF4F2491FC01E4583C
:10185000FF4F8491882361F190E0880F991FFC016C
:10186000E656FF4FC591D491FC01E057FF4FA5917B
:10187000B491611109C09FB7F894888120958223A3
:101880008883EC912E230BC0623061F49FB7F894EB
:101890008881322F309583238883EC912E2B2C93D3
:1018A0009FBF06C08FB7F894E8812E2B28838FBF87
:1018B000DF91CF9108951F920F920FB60F921124CE
:1018C0002F933F934F935F936F937F938F939F9348
:1018D000AF93BF93EF93FF93809147039091480399
:1018E000A0914903B0914A033091460323E0230FAE
:1018F0002D3720F40196A11DB11D05C026E8230F48
:101900000296A11DB11D2093460380934703909337
:101910004803A0934903B0934A0380914B039091ED
:101920004C03A0914D03B0914E030196A11DB11D32
:1019300080934B0390934C03A0934D03B0934E03BD
:101940000E941A0CFF91EF91BF91AF919F918F91DF
:101950007F916F915F914F913F912F910F900FBEAB
:101960000F901F90189584B5826084BD84B5816006
:1019700084BD85B5826085BD85B5816085BDEEE697
:10198000F0E0808181608083E1E8F0E01082808176
:1019900082608083808181608083E0E8F0E08081E4
:1019A00081608083E1EBF0E0808184608083E0EB04
:1019B000F0E0808181608083EAE7F0E080818460EC
:1019C0008083808182608083808181608083808148
:1019D000806880831092C1000895FFCFFFCFCF931E
:1019E000DF93880F990BFC01E858FD4FC081D1812E
:1019F000AC81BD8111978A819B81A80FB91F2D856C
:101A0000CD010197FD013297223019F422EA30E02E
:101A100002C02EEB30E02C93DC013C939E818F8141
:101A20009083DF018E93CF0107971E928A179B0741
:101A3000E1F780E8DF0118978C93CF0144971E925D
:101A40008A179B07E1F7A881B9817597ED93FC93FD
:101A5000DF91CF910895089578940895F8940895AA
:101A600078940895F894089508950E94B30C0E9404
:101A7000340D0E941E0C0E94140B80914F030E9493
:101A8000650680E090E008958091C30280934F0343
:101A9000089508951F920F920FB60F9211242F935D
:101AA0003F934F935F936F937F938F939F93AF93E6
:101AB000BF93EF93FF93E091D901F091DA0109957B
:101AC000FF91EF91BF91AF919F918F917F916F9116
:101AD0005F914F913F912F910F900FBE0F901F90EC
:101AE00018951F920F920FB60F9211242F933F93C8
:101AF0004F935F936F937F938F939F93AF93BF9316
:101B0000EF93FF93E091DB01F091DC010995FF91E8
:101B1000EF91BF91AF919F918F917F916F915F9165
:101B20004F913F912F910F900FBE0F901F901895DE
:101B3000CF92DF92EF92FF920F931F93CF93DF9399
:101B40006C017A018B01C0E0D0E0CE15DF0581F099
:101B5000D8016D918D01D601ED91FC910190F0813C
:101B6000E02DC6010995892B11F02196EECF7E015B
:101B7000C701DF91CF911F910F91FF90EF90DF9000
:101B8000CF9008956115710579F0FB010190002057
:101B9000E9F73197AF01461B570BDC01ED91FC9142
:101BA0000280F381E02D099480E090E008950C9488
:101BB000C20DDC01ED91FC910190F081E02D0994C2
:101BC00064EF72E00C94C20D0F931F93CF93DF93D9
:101BD000EC010E94C20D8C01CE010E94E00D800F2D
:101BE000911FDF91CF911F910F9108958F929F9236
:101BF000AF92BF92EF92FF920F931F93CF93DF9319
:101C0000CDB7DEB7A1970FB6F894DEBF0FBECDBF3C
:101C10007C01FA01CB0119A2223008F42AE08E01DE
:101C20000F5D1F4F822E912CA12CB12CBF01A5015D
:101C300094010E946F10F901CA01015011096A3024
:101C400014F4605D01C0695CD8016C93232B242BD4
:101C5000252B61F7B801C7010E94C20DA1960FB6EE
:101C6000F894DEBF0FBECDBFDF91CF911F910F91D2
:101C7000FF90EF90BF90AF909F908F900895CF927C
:101C8000DF92EF92FF920F931F93CF93DF93211573
:101C9000310581F4DC01ED91FC910190F081E02DA2
:101CA000642FDF91CF911F910F91FF90EF90DF9004
:101CB000CF9009942A30310501F577FF1DC06A01E4
:101CC0007B01EC016DE20E94D90D8C014427552760
:101CD000BA014C195D096E097F092AE0CE010E9404
:101CE000F60D800F911FDF91CF911F910F91FF9003
:101CF000EF90DF90CF9008952AE0DF91CF911F9170
:101D00000F91FF90EF90DF90CF900C94F60D9A0119
:101D1000AB01770F660B770B0C943F0E0F931F935D
:101D2000CF93DF93EC010E94870E8C01CE010E94BD
:101D3000E00D800F911FDF91CF911F910F910895BA
:101D40001F920F920FB60F9211242F938F939F9390
:101D5000EF93FF93E0916003F09161038081E09144
:101D60006603F091670382FD12C090818091690340
:101D70008F5F8F7320916A03821751F0E09169039E
:101D8000F0E0E05BFC4F958F8093690301C0808198
:101D9000FF91EF919F918F912F910F900FBE0F9018
:101DA0001F9018951F920F920FB60F9211242F9328
:101DB0003F934F935F936F937F938F939F93AF93D3
:101DC000BF93EF93FF9380E593E00E94620FFF9132
:101DD000EF91BF91AF919F918F917F916F915F91A3
:101DE0004F913F912F910F900FBE0F901F9018951C
:101DF000E0E5F3E01382128288EE93E0A0E0B0E029
:101E000084839583A683B78387E093E0918380835F
:101E100085EC90E09587848784EC90E097878687AF
:101E200080EC90E0918B808B81EC90E0938B828BA7
:101E300082EC90E0958B848B86EC90E0978B868B80
:101E4000118E128E138E148E0895FC01918D228DA9
:101E5000892F90E0805C9F4F821B91098F73992797
:101E60000895FC01918D828D981731F0828DE80FD5
:101E7000F11D858D90E008958FEF9FEF0895FC018F
:101E8000918D828D981761F0828DDF01A80FB11DB1
:101E90005D968C91928D9F5F9F73928F90E00895D5
:101EA0008FEF9FEF0895FC01538D448D252F30E077
:101EB000842F90E0821B930B541710F0CF96089557
:101EC00001970895FC01848DDF01A80FB11DA35A6D
:101ED000BF4F2C91848D90E001968F739927848F4A
:101EE000A689B7892C93A089B1898C91837080646D
:101EF0008C93938D848D981306C00288F389E02D0E
:101F000080818F7D80830895EF92FF920F931F93BE
:101F1000CF93DF93EC0181E0888F9B8D8C8D98139C
:101F200005C0E889F989808185FD26C0F62E0B8DD4
:101F300010E00F5F1F4F0F731127E02E8C8DE812FA
:101F40000CC00FB607FCFACFE889F989808185FFBC
:101F5000F5CFCE010E94620FF1CF8B8DFE01E80F0D
:101F6000F11DE35AFF4FF0829FB7F8940B8FEA8977
:101F7000FB89808180620AC09FB7F894EE89FF894F
:101F80006083E889F98980818370806480839FBF42
:101F900081E090E0DF91CF911F910F91FF90EF9042
:101FA0000895CF93DF93EC01888D8823C9F0EA89E7
:101FB000FB89808185FD05C0A889B9898C9186FD42
:101FC0000FC00FB607FCF5CF808185FFF2CFA8893F
:101FD000B9898C9185FFEDCFCE010E94620FE7CFCA
:101FE000DF91CF910895CF92DF92EF92FF921F93EE
:101FF000CF93DF93EC016A017B01122FE889F98905
:1020000082E080834115514E61057105B1F060E0B9
:1020100079E08DE390E0A70196010E946F10DA014C
:10202000C9010197A109B109B695A795979587951B
:102030009C01211580E13807A8F0E889F989108210
:1020400060E874E88EE190E0A70196010E946F10AD
:10205000DA01C9010197A109B109B695A79597952C
:1020600087959C01EC85FD853083EE85FF85208377
:10207000188EEC89FD891083EA89FB898081806153
:102080008083EA89FB89808188608083EA89FB8973
:10209000808180688083EA89FB8980818F7D80834D
:1020A000DF91CF911F91FF90EF90DF90CF90089537
:1020B000F8940C94AB1097FB072E16F4009407D0FD
:1020C00077FD09D00E94911007FC05D03EF4909551
:1020D00081959F4F0895709561957F4F0895A1E276
:1020E0001A2EAA1BBB1BFD010DC0AA1FBB1FEE1F92
:1020F000FF1FA217B307E407F50720F0A21BB30BDD
:10210000E40BF50B661F771F881F991F1A9469F758
:1021100060957095809590959B01AC01BD01CF01B4
:102120000895AA1BBB1B51E107C0AA1FBB1FA6171E
:10213000B70710F0A61BB70B881F991F5A95A9F770
:1021400080959095BC01CD010895EE0FFF1F05907D
:0A215000F491E02D0994F894FFCFFC
:10215A000000000000000000000000000000000075
:10216A000000000000000000000000000000000065
:10217A000000000000000000000000000000000055
:10218A000000000000000000000000000000000045
:10219A000000000000000000000000000000000035
:1021AA000000000000000000000000000000000025
:1021BA000000000000000000FF0000AA0200004129
:1021CA0003FFFFFFFFFFFFFFFF00005502000000B3
:1021DA00007A0000007A000000025E02000000009F
:1021EA00620000006200000002670200000000E8CE
:1021FA00010000E8010000020000000304000000E2
:10220A000204000000010401000000FFFF000001B9
:10221A0000000000000000000000000000000004B0
:10222A0000FF00000400FF0000490D490DFF3D3D7D
:10223A003D3D3D3D3D3D3D3D3D3D3D3D3D3D3D3DC4
:10224A0020205175657565204F766572666C6F77CB
:10225A0020203D3D3D3D3D3D3D3D3D3D3D3D3D3DDE
:10226A003D3D3D3D004164646564200020696E2067
:10227A00706F736974696F6E200009090952656D80
:10228A00202D3E20616D6F756E743A200009090990
:10229A004E3A20002020207C2020204D3A20009910
:1022AA00018A017B01B70156095B02480600B701A2
:1022BA0056096402480602B70156096D024806012A
:1022CA00B201AD01A80141039C028E028002AA025A
:1022DA004D07EF030001250B000002030100ED0387
:1022EA00FB040001980B0000010201004F074D0694
:1022FA000001180C000000010100FB05FD0550005B
:10230A00ED0C000003000100D401CF01000101011E
:10231A0001010100680736073F071807A204B5063E
:10232A008F04DE06C80751066306BD08AA0712090C
:10233A00EC075F095A08A3094C06F80925087D0A23
:10234A00EC0A7D080D0A006E616E00696E66006F08
:10235A0076660000000000840F980D530FD10F25F8
:06236A000F3F0F310F00D0
:00000001FF
