:100000000C945E000C94540E0C947B0E0C948600A1
:100010000C9486000C9486000C9486000C94860048
:100020000C9486000C9486000C9486000C94860038
:100030000C9486000C9486000C9486000C94860028
:100040000C94480D0C9486000C94F70E0C94290F18
:100050000C9486000C9486000C9486000C94860008
:100060000C9486000C948600000000080002010039
:100070000003040700000000000000000102040863
:100080001020408001020408102001020408102002
:10009000040404040404040402020202020203032E
:1000A0000303030300000000250028002B000000CC
:1000B0000000240027002A004E0E4F0F11241FBEFF
:1000C000CFEFD8E0DEBFCDBF13E0A0E0B1E0ECEDB4
:1000D000F7E202C005900D92A630B107D9F727E0EC
:1000E000A6E0B3E001C01D92A934B207E1F710E029
:1000F000CEE5D0E004C02197FE010E94E613CC3586
:10010000D107C9F70E943F0E0C94AF100C94000069
:10011000E2E10E942D010895E9E00E942D01089579
:10012000EAE00E942D010895E1E00E942D0108956A
:10013000E3E00E942D010895E7E00E942D0108955B
:10014000E5E00E942D010895E0E00E942D01089550
:10015000E2E00E942D010895E4E00E942D0108953F
:10016000ECE00E942D010895E8E00E942D01089521
:10017000EEE00E942D010895E4E10E942D01089512
:10018000E0E10E942D010895E7E10E942D0108950C
:10019000E6E00E942D010895EBE00E942D010895F4
:1001A000EDE00E942D010895EFE00E942D010895D9
:1001B000E1E10E942D010895E3E10E942D010895DF
:1001C000E5E10E942D010895E6E10E942D010895C8
:1001D00021968A929A92AA92BA92CA92DA92EA9254
:1001E000FA920A931A932197E0916901F0916A01BA
:1001F0000080F181E02DC083D1830895C0916B010F
:10020000D0916C01E881F981C081D1812196199149
:100210000991F990E990D990C990B990A9909990D5
:100220008990219708952F903F90E7E6F1E0CDB7B0
:10023000DEB7EDBFFEBF3F922F9208952F903F9003
:10024000CDBFDEBF3F922F920895E0E80E942D01BE
:100250000895E0E40E942D0108952F923F924F925D
:100260005F926F927F922FB62F92CF93DF937E2E65
:10027000F894E0910001EF5FE0930001E13011F4A8
:100280000E941301E0E0E0937901E72DE07849F066
:100290000E948A05F0917A01F17071F00E943D048C
:1002A0000BC0E72DEC3140F4EE0FF0E0EB54FD4FC6
:1002B0000190F081E02D0995F0917901EF2FE17027
:1002C00059F0F27011F00E94E8008F938F2F0E9476
:1002D00085038F910E94FE00209100012150209300
:1002E0000001222311F40E941E01DF91CF912F9073
:1002F0002FBE7F906F905F904F903F902F9008950A
:10030000809106030895CF92DF92EF92FF920F93B0
:100310001F93DC01EC91DB012C918E2F8170C82E94
:10032000D12CE12CF12C8E2F8F7090E0A0E0B0E06A
:10033000B695A79597958795DC01AD5CBC4F8C91E0
:10034000C81AD108E108F108EE70422F417050E060
:1003500060E070E0822F8F7090E0A0E0B0E0B69592
:10036000A79597958795DC01AD5CBC4F8C91481B98
:10037000510961097109822F8E7097018601017000
:100380001127222733270E2B417055276627772701
:10039000482B81E090E0041715072607370710F077
:1003A00080E090E01F910F91FF90EF90DF90CF9051
:1003B00008958F929F92AF92BF92EF92FF920F9308
:1003C0001F93CF93DF937C014A015B01B694A794FE
:1003D000979487944230510561057105E0F0440F10
:1003E000551F8701040F151FE401CC0FDD1FCE0D33
:1003F000DF1DB801CE010E948301892B61F0F80155
:1004000090818181288139813183208398838983F8
:10041000B501A401DBCFDF91CF911F910F91FF9028
:10042000EF90BF90AF909F908F9008954F925F9202
:100430006F927F928F929F92AF92BF92CF92DF92F4
:10044000EF92FF920F931F93CF93DF9300D000D0D2
:1004500000D0CDB7DEB78C016A017B01DC018C9145
:10046000282F30E040E050E029833A834B835C83BF
:1004700046015701880C991CAA1CBB1C29813A8192
:100480004B815C81281539054A055B0508F442C09B
:10049000240135013FEF431A530A630A730A898125
:1004A0009A81AB81BC8184159505A605B70580F0BE
:1004B000B201660F771F600F711FC401880F991F6B
:1004C000800F911F0E948301892B11F0530142017B
:1004D0003401660C771C600E711ECC0CDD1CD8013B
:1004E000AC0DBD1DBE83AD83B301CD010E94830160
:1004F000892B81F0ED81FE8190818181D3012D9145
:100500003C911197318320839C9311968C937501B4
:100510006401AECF26960FB6F894DEBF0FBECDBFF6
:10052000DF91CF911F910F91FF90EF90DF90CF90CF
:10053000BF90AF909F908F907F906F905F904F9003
:100540000895E7EEF4E040814F5F408350E060E0C3
:1005500070E0E82FEE0FFF0BE759FD4F0190F0819F
:10056000E02D238530E0F901ED5CFC4F9081915046
:100570009083FA01EE0FFF1FE951FB4F220F331F4B
:100580009170292B2083818387EE94E00C94D9010C
:10059000E7EEF4E040814F5F408350E060E070E0C0
:1005A000E82FEE0FFF0BEF59FD4F0190F081E02D8A
:1005B0009381FA01EE0FFF1FE951FB4F9083818376
:1005C00087EE94E00C94D901CF93DF93E7EEF4E04B
:1005D00080819FEF980F9083D281C38190E0880F34
:1005E000991FDC01A951BB4F8D919C91938382830C
:1005F00041E050E060E070E0CF010E9416028D2FD4
:100600009C2FDF91CF91089580910603811114C032
:100610008091710190917201A0917301B091740168
:100620008F3F2FEF9207A207B20741F00397A10572
:10063000B10534F481E0089584E0089580E00895E0
:1006400082E00895880F990BFC01E759FD4F019056
:10065000F081E02D0084F185E02D3097E9F02281D2
:1006600021111AC021E02283DC01AF59BD4F0D904A
:10067000BC91A02D13968C9113978183808190E07B
:10068000FC01ED5CFC4F208121502083880F991FD5
:100690002170822B13968C930895880F990BFC017F
:1006A000E759FD4F0190F081E02D0084F185E02DA8
:1006B000309761F02281213049F412822181FC01BE
:1006C000EF59FD4F0190F081E02D23830895809133
:1006D000750190917601A0917701B09178014091D8
:1006E000710150917201609173017091740148170A
:1006F00059076A077B0741F0E0916F01F0917001A3
:1007000021E024830C94C8020895CF93DF938823BB
:1007100091F0C0916901D0916A01E0916D01F09171
:100720006E018481833049F081E08483809171017E
:100730000E94C80202C0C0E0D0E0E0916F01F091D9
:100740007001F0936E01E0936D0180916B019091C7
:100750006C0190936A0180936901809175013091D9
:100760007601209177019091780180937101309307
:100770007201209373019093740192E094830E941C
:100780002203CE01DF91CF910895809171010E94E3
:100790004D03E0916D01F0916E018281882319F083
:1007A00085E08483089514820895CF93DF93282FE2
:1007B000220F330BF901EF59FD4FC081D1819A818E
:1007C000F901E759FD4F0190F081E02D2485921742
:1007D00070F4911105C095E09C8391E090937A01AB
:1007E0000E94A1028A818F5F8A8380E001C084E039
:1007F000DF91CF910895E82FEE0FFF0BEF59FD4FDA
:100800000190F081E02D118210820C94F90D1F935C
:10081000CF93DF930E94E402182F892F492F092ECE
:10082000000C550B660B770B4093750150937601C6
:100830006093770170937801292F220F330BF90110
:10084000EF59FD4FC081D181D0937001C0936F01EA
:10085000F901E759FD4F2081318130936C012093DC
:100860006B019C81953019F40E94FB031B8310924D
:100870007A01DF91CF911F910895E0917501F09178
:100880007601EE0FFF1FEF59FD4F0190F081E02D33
:100890009091E9048381891730F40E9467030E94D4
:1008A000070483E001C080E080937901089581E02E
:1008B000809379010C940704EF92FF920F931F939A
:1008C000CF93DF93C1E001C0CC0F8A95EAF783E0B4
:1008D0000E94D50301EB12E0D0E0F80181918F0175
:1008E0008C2319F08D2F0E94D503DF5FD330A9F739
:1008F0000EEA12E080E4E82E82E0F82ED1E0F80162
:1009000081918F018C2339F0F70180819181FC0165
:10091000D6870E94C304F2E0EF0EF11C82E0013B97
:10092000180769F7DF91CF911F910F91FF90EF901A
:1009300008950E947B0681110E949C06E0916D0142
:10094000F0916E0180819181892B21F0809171015C
:100950000E94AD080C94D2070E947B0681110E9470
:100960009C06E0916D01F0916E0180819181892B4F
:1009700021F0809171010E94AD080C94AC0781E0D8
:10098000809307030895AF92BF92CF92DF92EF92C8
:10099000FF920F931F93CF93DF93FC01A081B1814E
:1009A000AD90BC90E501AC89BD89109739F04285C6
:1009B00053856485758530E020E017C0D5015596D4
:1009C0009C938E93549757969C938E93569715822B
:1009D0001482138212825BC012968D919C911397A0
:1009E0003A2F2B2F009779F0DC011A96CD90DD90ED
:1009F000ED90FC901D974C155D056E057F0560F729
:100A0000CD01A32FB22F93838283B583A483009754
:100A100019F0EC01FD83EC83109729F01396FC93F9
:100A2000EE93129705C0D5015596FC93EE9354971B
:100A3000E501AE89BF891A968D919D910D90BC916B
:100A4000A02D088919892A893B8980179107A20757
:100A5000B30780F4041715072607370728F048174F
:100A600059076A077B0798F4D5015796FC93EE93D4
:100A700056970DC0041715072607370740F4481787
:100A800059076A077B0718F4E501FF8BEE8BDF91AE
:100A9000CF911F910F91FF90EF90DF90CF90BF907B
:100AA000AF900895CF93DF93DC01ED91FC91119706
:100AB0000190F081E02D848995891296CD91DC9189
:100AC0001397A817B90711F4D58BC48B868997891A
:100AD000A817B90711F4D78BC68B209731F014965D
:100AE0008D919C9115979D838C8314960D90BC914C
:100AF000A02D109721F01396DC93CE931297868940
:100B00009789892B21F484899589978B868BDF912E
:100B1000CF910895EF92FF920F931F93CF93DF939E
:100B2000FC0180910703882309F4B5C0848595856D
:100B3000A685B7850196A11DB11D84879587A687D7
:100B4000B787408151816281738184179507A60719
:100B5000B70709F0A0C040895189628973894F5F46
:100B60005F4F6F4F7F4F84819581A681B781841736
:100B70009507A607B70718F440E050E0BA01408B8C
:100B8000518B628B738B1486158616861786C689E1
:100B9000D789209709F47FC08A859B85AC85BD8560
:100BA000481759076A077B0709F075C0CE01DC01B9
:100BB0001296ED90FC901397E114F10471F0D701B7
:100BC0001A960D911D912D913C911D97401751073B
:100BD0006207730711F4C701EACF2C813D8121150B
:100BE000310529F0D9011396FC92EE921297E11487
:100BF000F10429F0D70115963C932E93149724897C
:100C00003589C217D30711F4F58AE48AE114F10497
:100C100019F0F78AE68A04C024893589378B268B38
:100C20008F01FC0113821282EA80FB80E881F98146
:100C30000280F381E02DCE0109954E815F816885A8
:100C40007985411551056105710509F18A859B85F5
:100C5000AC85BD85840F951FA61FB71FF801448181
:100C6000558166817781481759076A077B0738F4F1
:100C7000841B950BA60BB70B0197A109B1098A87B5
:100C80009B87AC87BD87CE010E94C30401C01E862E
:100C9000E701209749F6DF91CF911F910F91FF90C7
:100CA000EF900895FC0182810C94D5030E947B068D
:100CB000809168010895CF93C82F0E940403811189
:100CC0000AC0C09368018C2F0E945C040E94BF047C
:100CD000CF910C945704CF9108950C94F80DCF93B5
:100CE000C82F0E940403811102C00E94350E8C2F70
:100CF000CF910C948C00809114038130D9F08091B5
:100D00000C0390910D03A0910E03B0910F03892B5A
:100D10008A2B8B2B79F481E04091100350911103C1
:100D20006091120370911303452B462B472B19F446
:100D300080E0089581E0089510921403109210034A
:100D400010921103109212031092130310920C03CD
:100D500010920D0310920E0310920F03809108035E
:100D600090910903A0910A03B0910B03809315039E
:100D700090931603A0931703B093180308950E944D
:100D8000380E8091150390911603A0911703B0912E
:100D900018030196A11DB11D8093150390931603AE
:100DA000A0931703B093180380911003909111033F
:100DB000A0911203B09113030196A11DB11D809360
:100DC000100390931103A0931203B093130308959B
:100DD0008091100390911103A0911203B09113031D
:100DE0000097A105B10569F14091150350911603D3
:100DF00060911703709118034150510961097109FD
:100E000040931503509316036093170370931803D0
:100E10000197A109B1098093100390931103A09346
:100E20001203B09313038091150390911603A091C0
:100E30001703B0911803892B8A2B8B2B11F40C9478
:100E4000360E08958091100390911103A091120322
:100E5000B0911303892B8A2B8B2B89F480910C037F
:100E600090910D03A0910E03B0910F03892B8A2B53
:100E70008B2B29F40E94380E81E08093140308958F
:100E800080911403882321F0109214030C94360EE1
:100E900008950E943C0E8091150390911603A09135
:100EA0001703B09118030196A11DB11D809315037E
:100EB00090931603A0931703B093180380910C032B
:100EC00090910D03A0910E03B0910F030196A11D07
:100ED000B11D80930C0390930D03A0930E03B09368
:100EE0000F03089580910C0390910D03A0910E03C0
:100EF000B0910F030097A105B10569F14091150369
:100F000050911603609117037091180341505109D5
:100F100061097109409315035093160360931703F9
:100F2000709318030197A109B10980930C03909362
:100F30000D03A0930E03B0930F03809115039091BE
:100F40001603A0911703B0911803892B8A2B8B2BC2
:100F500011F40C943A0E08950E947B06882311F038
:100F600083E1089582E00895CF93C82F0E947B0605
:100F7000811106C00E948001882321F0C2E00FC0C9
:100F8000C3E10DC0C33010F0C3E009C08C2F0E9434
:100F9000D503C82F80917A0181110E943D048C2FC6
:100FA000CF910895CF930E947B06811107C00E94C4
:100FB0000403C82F813021F082E016C083E114C001
:100FC000E0916D01F0916E0180819181892B11F08A
:100FD00086E00AC08281815082830E94C503C0934B
:100FE00079010E94070480E0CF910895CF93DF93A9
:100FF000C82F0E947B06811109C00E940403D82FCC
:10100000813031F4C33030F0C3E025C0C3E123C0E8
:10101000C2E021C0E0916D01F0916E01808191816B
:10102000892BC1F48281815082838C2F0E94D50349
:10103000C82F811107C00E94C503D09379010E9477
:10104000070409C0E0916D01F0916E0182818F5F0C
:10105000828301C0C6E08C2FDF91CF9108950E945A
:101060007B06811106C00E940403813021F082E0DA
:10107000089583E10895E0916D01F0916E01808102
:101080009181892B11F086E00895809171010E9471
:101090004D030E943D048091710190917201A091D5
:1010A0007301B09174014091750150917601609186
:1010B00077017091780184179507A607B70711F497
:1010C0000E94220380E00895CF93DF93EC010E94F9
:1010D0007B06811116C00E948001811114C080918D
:1010E000710190917201A0917301B09174018330EC
:1010F0009105A105B10514F08091DE01888380E09F
:1011000003C083E101C082E0DF91CF9108950F9386
:101110001F93CF93C82F8B010E947B06811106C0BD
:101120000E948001882321F082E013C083E111C076
:10113000C33010F083E00DC0EC2FEE0FFF0BEF5922
:10114000FD4F0190F081E02D84818370F801808350
:1011500080E0CF911F910F910895880F990BFC01AA
:10116000EF59FD4FA081B181ED91FC91119730971E
:1011700069F01D921C922091DE019381848122836B
:1011800014821382E92FF82F3097B9F70895CF937F
:10119000C82F0E947B06811108C00E948001811126
:1011A00006C0C23030F083E045C083E143C082E036
:1011B00041C0EC2FF0E0EE0FFF1FE755FD4F01900F
:1011C000F081E02D92818091DE01981309C0A091F9
:1011D0006901B0916A011B969C918081891710F476
:1011E00081E028C0809171018283A0916D01B0914E
:1011F0006E018D919C911197948383831196FC933A
:10120000EE9313968C9113978183808113969C9112
:1012100013979695981768F490E0FC01ED5CFC4FED
:10122000208121502083880F991F2170822B1396D3
:101230008C9380E0CF910895CF93C82F0E947B06B6
:10124000811106C00E948001882321F082E036C00F
:1012500083E134C0C23010F083E030C0EC2FF0E006
:10126000EE0FFF1FE755FD4F0190F081E02DA0919B
:101270006901B0916A011B969C9180818917D8F011
:10128000A0916D01B0916E018D919C911197E8171D
:10129000F90799F4818113968C9313978381948134
:1012A0008D939C93148213828091DE0182830E942D
:1012B0003D0480E003C081E001C085E0CF91089546
:1012C000DC01ED91FC9184819581DC01ED91FC9133
:1012D00009940F931F93CF93DF93C82F8B010E9424
:1012E0007B06811106C00E948001882321F082E0E4
:1012F0002FC083E12DC0C33010F083E029C0EC2F54
:10130000F0E0EE0FFF1FE05CFD4F0190F081E02D5B
:101310000190F081E02D0190F081E02D808191819C
:10132000A281B381E8018C839D83AE83BF838481D6
:101330009581A681B78188839983AA83BB838085A1
:101340009185A285B38588879987AA87BB8780E026
:10135000DF91CF911F910F910895CF92DF92EF927D
:10136000FF920F931F93CF93C82F8B010E947B0690
:10137000811107C00E948001811105C0C330C8F5EA
:1013800004C083E137C082E035C0EC2FF0E0EE0FFF
:10139000FF1FE05CFD4F0190F081E02D86858130DC
:1013A00031F582859385A485B5850190F081E02D86
:1013B0000190F081E02D40895189628973898417F9
:1013C0009507A607B70740F4C480D580E680F7806C
:1013D0008C0D9D1DAE1DBF1D841B950BA60BB70B61
:1013E000F80180839183A283B38380E003C085E00A
:1013F00001C083E0CF911F910F91FF90EF90DF909C
:10140000CF9008958F929F92AF92BF92CF92DF922A
:10141000EF92FF920F931F93CF93DF93C82F6A0130
:101420007B01480159010E947B06811107C00E947F
:101430008001811105C0C330E8F404C083E15AC0C3
:1014400082E058C0EC2FF0E0EE0FFF1FE05CFD4F94
:101450000190F081E02DA081B181CD91DC918C8152
:101460009D81AE81BF818C159D05AE05BF0508F439
:1014700040C002C083E03EC081149104A104B104C5
:1014800071F088159905AA05BB0598F1488559851D
:101490006A857B8584169506A606B70650F12685D3
:1014A000211125C0488959896A897B89C40ED51EB6
:1014B000E61EF71E8C159D05AE05BF0548F4C81A3B
:1014C000D90AEA0AFB0A81E0C81AD108E108F10842
:1014D000C286D386E486F58686829782A086B18608
:1014E00081E08687CF010E94C30480E003C087E0CB
:1014F00001C088E0DF91CF911F910F91FF90EF9095
:10150000DF90CF90BF90AF909F908F9008958F9273
:101510009F92AF92BF92CF92DF92EF92FF920F9382
:101520001F93CF93C82F6A017B01480159010E9484
:101530007B06811108C00E948001811106C0C33062
:1015400030F083E047C083E145C082E043C0EC2F28
:10155000F0E0EE0FFF1FE05CFD4F0190F081E02D09
:10156000A081B1810D90BC91A02D14964D915D91FB
:101570006D917C9117974C155D056E057F05A8F060
:1015800081149104A104B10491F0481559056A052C
:101590007B0558F018968D919D910D90BC91A02DD2
:1015A00088169906AA06BB0610F488E013C0868543
:1015B00081110FC0C286D386E486F5868682978223
:1015C000A086B18681E08687CF010E94C30480E0B7
:1015D00001C087E0CF911F910F91FF90EF90DF90B6
:1015E000CF90BF90AF909F908F900895CF93DF934F
:1015F000C82F0E947B06811106C00E9480018823AB
:1016000021F082E018C083E116C0C33010F083E0FF
:1016100012C0EC2FF0E0EE0FFF1FE05CFD4FC08129
:10162000D1818E85813031F4CE010E9452051E8613
:1016300080E001C085E0DF91CF91089560E08EE009
:101640000E94DD0C61E08DE00E94DD0C26E040E8A8
:1016500055E260E070E088E493E00C944A10EF9269
:10166000FF921F93CF93DF93CDB7DEB7C054D1095C
:101670000FB6F894DEBF0FBECDBF8EE00E94DA0D2C
:1016800090931E0380931D030A978C3E934038F07D
:1016900081E090E0909328038093270304C0109288
:1016A00028031092270380911F0390912003059730
:1016B0003CF06FED71E088E493E00E94E50E49C0D4
:1016C0001091AD02812F0E94CC0080911D0390915A
:1016D0001E03E0912303F0912403EE0FFF1FE75D4B
:1016E000FC4F80839183209128032F93209127031F
:1016F0002F939F938F9385EF91E09F938F93CE01CC
:1017000001967C019F938F930E94B210B70188E4E9
:1017100093E00E94E50E80911F03909120030196B3
:101720009093200380931F03812F0E94D00080910B
:10173000230390912403019665E070E00E946513F5
:1017400090932403809323030FB6F894DEBF0FBE5B
:10175000CDBF0E94B400C05CDF4F0FB6F894DEBF6F
:101760000FBECDBFDF91CF911F91FF90EF900895F5
:101770009F92AF92BF92CF92DF92EF92FF920F9320
:101780001F93CF93DF93CDB7DEB7C054D1090FB607
:10179000F894DEBF0FBECDBF95E0C92ED12C0FE06F
:1017A00017E221EFE22E28EDF22E9090AD0235E007
:1017B000A32EB12C80911F039091200318161906B7
:1017C0006CF5E0912103F0912203EE0FFF1FE75D1E
:1017D000FC4F80819181E816F9060CF47C0180179A
:1017E00091070CF48C01892D0E94CC0080911F037D
:1017F0009091200301979093200380931F03892DDC
:101800000E94D00080912103909122030196B5019E
:101810000E946513909322038093210321E0C21A52
:10182000D10841F6C701801B910B853F91403CF0E8
:1018300081E090E0909326038093250304C01092EA
:10184000260310922503809126038F938091250310
:101850008F93C8018E199F099F938F93FF92EF92E8
:101860001F930F938EE092E09F938F938E010F5FF3
:101870001F4F1F930F930E94B210B80188E493E0AA
:101880000E94E50E0E94B4000FB6F894DEBF0FBEB2
:10189000CDBFC05CDF4F0FB6F894DEBF0FBECDBF2B
:1018A000DF91CF911F910F91FF90EF90DF90CF903C
:1018B000BF90AF909F900895809127039091280347
:1018C00081309105A1F460911B038DE00E94190DF8
:1018D00081E090E020911B0330911C03232B11F039
:1018E00080E090E090931C0380931B032DC0892B14
:1018F00059F5809125039091260381309105F1F4EB
:101900008091190390911A030497F4F060911B03DE
:101910008DE00E94190D81E090E020911B03309131
:101920001C03232B11F080E090E090931C03809324
:101930001B0310921A031092190306C0892B21F47D
:1019400060E08DE00E94190D8091190390911A03B7
:10195000019690931A03809319030C94B40087EBBB
:1019600091E00C9425010895833081F028F48130B2
:1019700099F08230A1F008958730A9F08830B9F04D
:101980008430D1F4809180008F7D03C080918000ED
:101990008F7780938000089584B58F7702C084B5D7
:1019A0008F7D84BD08958091B0008F7703C08091B2
:1019B000B0008F7D8093B0000895CF93DF9390E0C7
:1019C000FC01E458FF4F2491FC01E057FF4F849144
:1019D000882361F190E0880F991FFC01E255FF4FC9
:1019E000C591D491FC01EC55FF4FA591B4916111C3
:1019F00009C09FB7F8948881209582238883EC9151
:101A00002E230BC0623061F49FB7F8948881322F87
:101A1000309583238883EC912E2B2C939FBF06C097
:101A20008FB7F894E8812E2B28838FBFDF91CF9159
:101A300008951F93CF93DF93282F30E0F901E859E1
:101A4000FF4F8491F901E458FF4FD491F901E05719
:101A5000FF4FC491CC23C1F0162F81110E94B40C0A
:101A6000EC2FF0E0EE0FFF1FEC55FF4FA591B49166
:101A70009FB7F894111104C08C91D095D82302C05F
:101A8000EC91DE2BDC939FBFDF91CF911F910895E6
:101A90001F920F920FB60F9211242F933F934F93E3
:101AA0005F936F937F938F939F93AF93BF93EF93C6
:101AB000FF9380913F0390914003A0914103B09127
:101AC000420330913E0323E0230F2D3720F401968B
:101AD000A11DB11D05C026E8230F0296A11DB11D51
:101AE00020933E0380933F0390934003A0934103D0
:101AF000B09342038091430390914403A091450326
:101B0000B09146030196A11DB11D809343039093AC
:101B10004403A0934503B09346030E94AF0CFF918A
:101B2000EF91BF91AF919F918F917F916F915F9155
:101B30004F913F912F910F900FBE0F901F901895CE
:101B400084B5826084BD84B5816084BD85B58260C2
:101B500085BD85B5816085BDEEE6F0E08081816060
:101B60008083E1E8F0E01082808182608083808160
:101B700081608083E0E8F0E0808181608083E1EB38
:101B8000F0E0808184608083E0EBF0E08081816020
:101B90008083EAE7F0E080818460808380818260D6
:101BA00080838081816080838081806880831092BF
:101BB000C10008958E3008F08E502091D90190E434
:101BC000299F900111248770822B80937C00809143
:101BD0007A00806480937A0080917A0086FDFCCF41
:101BE000809178002091790090E0922B0895FFCFAA
:101BF000FFCFCF93DF93880F990BFC01E759FD4F7F
:101C0000C081D181AC81BD8111978A819B81A80F50
:101C1000B91F2D85CD010197FD013297223019F4AE
:101C20002CEA30E002C028EC30E02C93DC013C933D
:101C30009E818F819083DF018E93CF0107971E9243
:101C40008A179B07E1F780E8DF0118978C93CF0193
:101C500044971E928A179B07E1F7A881B98175976F
:101C6000ED93FC93DF91CF910895089578940895B2
:101C7000F894089578940895F894089508950E942A
:101C8000A00D0E943E0E0E94B30C0E941E0B80917C
:101C900047030E946F0680E090E008958091B402AF
:101CA00080934703089508951F920F920FB60F92E5
:101CB00011242F933F934F935F936F937F938F9351
:101CC0009F93AF93BF93EF93FF93E091DA01F0916D
:101CD000DB010995FF91EF91BF91AF919F918F919A
:101CE0007F916F915F914F913F912F910F900FBE18
:101CF0000F901F9018951F920F920FB60F921124FC
:101D00002F933F934F935F936F937F938F939F9303
:101D1000AF93BF93EF93FF93E091DC01F091DD016E
:101D20000995FF91EF91BF91AF919F918F917F9115
:101D30006F915F914F913F912F910F900FBE0F9038
:101D40001F901895CF92DF92EF92FF920F931F93FF
:101D5000CF93DF936C017A018B01C0E0D0E0CE1508
:101D6000DF0581F0D8016D918D01D601ED91FC91D7
:101D70000190F081E02DC6010995892B11F0219683
:101D8000EECF7E01C701DF91CF911F910F91FF90A0
:101D9000EF90DF90CF9008956115710579F0FB0108
:101DA00001900020E9F73197AF01461B570BDC018A
:101DB000ED91FC910280F381E02D099480E090E0A8
:101DC000089565EE72E00C94CC0E0F931F93CF93A1
:101DD000DF93EC010E94CC0E8C01CE010E94E10E3B
:101DE000800F911FDF91CF911F910F9108951F9246
:101DF0000F920FB60F9211242F938F939F93EF930F
:101E0000FF93E0915803F09159038081E0915E03C4
:101E1000F0915F0382FD12C09081809161038F5F1A
:101E20008F7320916203821751F0E0916103F0E01B
:101E3000E85BFC4F958F8093610301C08081FF9127
:101E4000EF919F918F912F910F900FBE0F901F9048
:101E500018951F920F920FB60F9211242F933F9354
:101E60004F935F936F937F938F939F93AF93BF93A2
:101E7000EF93FF9388E493E00E94B90FFF91EF91F5
:101E8000BF91AF919F918F917F916F915F914F9192
:101E90003F912F910F900FBE0F901F901895E8E47F
:101EA000F3E01382128288EE93E0A0E0B0E0848336
:101EB0009583A683B78388EF92E09183808385EC36
:101EC00090E09587848784EC90E09787868780EC04
:101ED00090E0918B808B81EC90E0938B828B82ECF5
:101EE00090E0958B848B86EC90E0978B868B118E9F
:101EF000128E138E148E0895FC01918D228D892FE0
:101F000090E0805C9F4F821B91098F739927089501
:101F1000FC01918D828D981731F0828DE80FF11DB3
:101F2000858D90E008958FEF9FEF0895FC01918DCE
:101F3000828D981761F0828DDF01A80FB11D5D962B
:101F40008C91928D9F5F9F73928F90E008958FEF99
:101F50009FEF0895FC01538D448D252F30E0842F91
:101F600090E0821B930B541710F0CF9608950197C1
:101F70000895FC01848DDF01A80FB11DA35ABF4F46
:101F80002C91848D90E001968F739927848FA68978
:101F9000B7892C93A089B1898C91837080648C93CC
:101FA000938D848D981306C00288F389E02D80817B
:101FB0008F7D80830895EF92FF920F931F93CF93AD
:101FC000DF93EC0181E0888F9B8D8C8D981305C089
:101FD000E889F989808185FD26C0F62E0B8D10E0F9
:101FE0000F5F1F4F0F731127E02E8C8DE8120CC06E
:101FF0000FB607FCFACFE889F989808185FFF5CF14
:10200000CE010E94B90FF1CF8B8DFE01E80FF11DBB
:10201000E35AFF4FF0829FB7F8940B8FEA89FB8950
:10202000808180620AC09FB7F894EE89FF8960833F
:10203000E889F98980818370806480839FBF81E013
:1020400090E0DF91CF911F910F91FF90EF90089555
:10205000CF93DF93EC01888D8823C9F0EA89FB894F
:10206000808185FD05C0A889B9898C9186FD0FC046
:102070000FB607FCF5CF808185FFF2CFA889B9891B
:102080008C9185FFEDCFCE010E94B90FE7CFDF9194
:10209000CF910895CF92DF92EF92FF921F93CF934B
:1020A000DF93EC016A017B01122FE889F98982E054
:1020B00080834115514E61057105B1F060E079E012
:1020C0008DE390E0A70196010E947913DA01C9011E
:1020D0000197A109B109B695A795979587959C0198
:1020E000211580E13807A8F0E889F989108260E8B5
:1020F00074E88EE190E0A70196010E947913DA015D
:10210000C9010197A109B109B695A795979587953A
:102110009C01EC85FD853083EE85FF852083188E3C
:10212000EC89FD891083EA89FB8980818061808345
:10213000EA89FB89808188608083EA89FB898081C4
:1021400080688083EA89FB8980818F7D8083DF912D
:10215000CF911F91FF90EF90DF90CF900895F8946A
:102160000C94EC13AEE0B0E0E8EBF0E10C94A913B2
:102170000D891E8986E08C831A8309838FEF9FE780
:102180009E838D83AE01475E5F4F6F89788DCE0150
:1021900001960E94D410EF81F885E00FF11F1082A4
:1021A0002E96E4E00C94C513ABE0B0E0EAEDF0E16C
:1021B0000C949B136C017B018A01FC01178216822F
:1021C000838181FFCCC1CE0101963C01F601938150
:1021D000F70193FD859193FF81917F01882309F495
:1021E000BAC1853239F493FD859193FF81917F01C6
:1021F000853229F4B60190E00E94CB12E7CF912CF2
:10220000212C312CFFE1F315D8F08B3279F038F422
:10221000803279F08332A1F4232D20611DC08D32EC
:1022200061F0803369F4232D216016C0832D826014
:10223000382EE32DE4603E2E2AC0F32DF8601DC039
:1022400037FC2DC020ED280F2A3040F08E32B9F433
:1022500036FC81C1232D2064322E19C036FE06C003
:102260008AE0989E200D1124922E11C0EAE02E9E45
:10227000200D1124222EF32DF0623F2E08C08C3643
:1022800021F4832D8068382E02C0883641F4F7018E
:1022900093FD859193FF81917F018111B3CF982F99
:1022A0009F7D9554933028F40C5F1F4F9FE39983D3
:1022B0000DC0833631F0833771F0833509F059C092
:1022C00021C0F801808189830E5F1F4F8824839489
:1022D000912C530113C02801F2E04F0E511CF8015C
:1022E000A080B18036FE03C0692D70E002C06FEFA0
:1022F0007FEFC5010E94C0124C018201F32DFF77D0
:102300003F2E16C0280122E0420E511CF801A08089
:10231000B18036FE03C0692D70E002C06FEF7FEF21
:10232000C5010E94B5124C01F32DF0683F2E8201C9
:1023300033FC1BC0822D90E088169906B0F4B601DC
:1023400080E290E00E94CB122A94F4CFF50137FC92
:10235000859137FE81915F01B60190E00E94CB121A
:1023600021102A9421E0821A91088114910471F7B6
:10237000E8C0843611F0893641F5F80137FE07C010
:1023800060817181828193810C5F1F4F08C06081E1
:102390007181072E000C880B990B0E5F1F4FF32DD8
:1023A000FF763F2E97FF09C09095809570956195B7
:1023B0007F4F8F4F9F4FF0683F2E2AE030E0A30100
:1023C0000E940713882E861845C0853731F4232DC7
:1023D0002F7EB22E2AE030E025C0932D997FB92EB2
:1023E0008F36C1F018F4883579F0B5C0803719F010
:1023F000883721F0B0C0E92FE061BE2EB4FE0DC0D9
:10240000FB2DF460BF2E09C034FE0AC0292F2660C0
:10241000B22E06C028E030E005C020E130E002C066
:1024200020E132E0F801B7FE07C06081718182814E
:1024300093810C5F1F4F06C06081718180E090E046
:102440000E5F1F4FA3010E940713882E8618FB2DD5
:10245000FF773F2E36FE0DC0232D2E7FA22E89142E
:1024600058F434FE0BC032FC09C0832D8E7EA82E9A
:1024700005C0B82CA32C03C0B82C01C0B92CA4FEF5
:102480000FC0FE01E80DF11D8081803321F49A2DEB
:10249000997EA92E09C0A2FE06C0B394B39404C0CD
:1024A0008A2D867809F0B394A3FC11C0A0FE06C063
:1024B000B21488F4280C922C9B180EC0B21460F44D
:1024C000B60180E290E00E94CB12B394F7CFB21431
:1024D00018F42B1802C0982C212CA4FE10C0B601B1
:1024E00080E390E00E94CB12A2FE17C0A1FC03C0C3
:1024F00088E790E002C088E590E0B6010CC08A2D24
:10250000867859F0A1FE02C08BE201C080E2A7FCF0
:102510008DE2B60190E00E94CB12891438F4B60126
:1025200080E390E00E94CB129A94F7CF8A94F30153
:10253000E80DF11D8081B60190E00E94CB12811060
:10254000F5CF222009F442CEB60180E290E00E944D
:10255000CB122A94F6CFF6018681978102C08FEFC5
:102560009FEF2B96E2E10C94B713FC0105906150AC
:1025700070400110D8F7809590958E0F9F1F089599
:10258000FC016150704001900110D8F78095909542
:102590008E0F9F1F08950F931F93CF93DF93FB011F
:1025A000238121FD03C08FEF9FEF2CC022FF16C0B7
:1025B00046815781248135814217530744F4A08115
:1025C000B1819D012F5F3F4F318320838C93268102
:1025D00037812F5F3F4F3783268314C08B01EC0177
:1025E000FB010084F185E02D0995892BE1F6D801E6
:1025F00016968D919C911797019617969C938E93A2
:102600001697CE01DF91CF911F910F910895FA0196
:10261000AA27283051F1203181F1E8946F936E7F21
:102620006E5F7F4F8F4F9F4FAF4FB1E03ED0B4E012
:102630003CD0670F781F891F9A1FA11D680F791F53
:102640008A1F911DA11D6A0F711D811D911DA11D64
:1026500020D009F468943F912AE0269F1124301974
:10266000305D3193DEF6CF010895462F4770405D0F
:102670004193B3E00FD0C9F7F6CF462F4F70405DBE
:102680004A3318F0495D31FD4052419302D0A9F719
:10269000EACFB4E0A6959795879577956795BA9513
:1026A000C9F700976105710508959B01AC010A2ED9
:1026B00006945795479537952795BA95C9F7620FB0
:1026C000731F841F951FA01D089597FB072E16F4F6
:1026D000009407D077FD09D00E94D21307FC05D0E3
:1026E0003EF4909581959F4F0895709561957F4F29
:1026F0000895A1E21A2EAA1BBB1BFD010DC0AA1F43
:10270000BB1FEE1FFF1FA217B307E407F50720F05A
:10271000A21BB30BE40BF50B661F771F881F991FD5
:102720001A9469F760957095809590959B01AC011E
:10273000BD01CF0108952F923F924F925F926F9209
:102740007F928F929F92AF92BF92CF92DF92EF9241
:10275000FF920F931F93CF93DF93CDB7DEB7CA1BC2
:10276000DB0B0FB6F894DEBF0FBECDBF09942A88ED
:10277000398848885F846E847D848C849B84AA8495
:10278000B984C884DF80EE80FD800C811B81AA8122
:10279000B981CE0FD11D0FB6F894DEBF0FBECDBFED
:1027A000ED010895AA1BBB1B51E107C0AA1FBB1F67
:1027B000A617B70710F0A61BB70B881F991F5A95CD
:1027C000A9F780959095BC01CD010895EE0FFF1FEC
:0C27D0000590F491E02D0994F894FFCFDF
:1027DC0000000000000000000000000000000000ED
:1027EC0000000000000000000000000000000000DD
:1027FC0000000000000000000000000000000000CD
:10280C0000000000000000000000000000000000BC
:10281C0000000000000000000000000000000000AC
:10282C00000000000000000000000000000000009C
:10283C000000000000000000FF00009B02000039B7
:10284C0003FFFFFFFFFFFFFFFF0000460200000039
:10285C00007A0000007A000000024F020000000025
:10286C00620000006200000002580200000000E854
:10287C00010000E801000002000000030400000059
:10288C000200000000010401000000FFFF00000135
:10289C000000000000000000000000000000000428
:1028AC0000FF00000400FF000001530E530EFF4513
:1028BC0052524F523A205175657565204F766572AC
:1028CC00666C6F7700533A204E65772058203D2078
:1028DC002564202D3E206572723A2025640009097A
:1028EC00423A204E203D20256420207C20204D2083
:1028FC003D2025640A09092020204D2D4E203D2025
:10290C002564202D3E20616C61726D3A2025640097
:10291C0099018A017B01B70160094C02520600B78C
:10292C000160095502520602B70160095E025206A7
:10293C0001B201AD01A80139038D027F0271029B26
:10294C00024507E70300012F0B000002030100E51D
:10295C0003F3040001B80B00000102010047074516
:10296C000600015C0C000000010100F305F50550A8
:10297C0000F70D000003000100D401CF010001019C
:10298C0001010001007207400749072207AC04BF90
:10299C00069904E806D2075B066D06C708B4071C47
:1029AC0009F60769096408AD095606020A2F08875B
:1029BC000AF60A87080D0A006E616E00696E6600E1
:1029CC006F76660000000000DB0FA20EAA0F281025
:0629DC007C0F960F880F2E
:00000001FF
