:100000000C945E000C947A0E0C94A10E0C94860055
:100010000C9486000C9486000C9486000C94860048
:100020000C9486000C9486000C9486000C94860038
:100030000C9486000C9486000C9486000C94860028
:100040000C946E0D0C9486000C941D0F0C944F0FA5
:100050000C9486000C9486000C9486000C94860008
:100060000C9486000C948600000000080002010039
:100070000003040700000000000000000102040863
:100080001020408001020408102001020408102002
:10009000040404040404040402020202020203032E
:1000A0000303030300000000250028002B000000CC
:1000B0000000240027002A00740E750F11241FBEB3
:1000C000CFEFD8E0DEBFCDBF13E0A0E0B1E0E8E2C3
:1000D000F8E202C005900D92A633B107D9F727E0E8
:1000E000A6E3B3E001C01D92A937B207E1F710E023
:1000F000CEE5D0E004C02197FE010E940C14CC355F
:10010000D107C9F70E94650E0C94D5100C9400001D
:10011000E2E10E942D010895E9E00E942D01089579
:10012000EAE00E942D010895E1E00E942D0108956A
:10013000E3E00E942D010895E7E00E942D0108955B
:10014000E5E00E942D010895E0E00E942D01089550
:10015000E2E00E942D010895E4E00E942D0108953F
:10016000ECE00E942D010895E8E00E942D01089521
:10017000EEE00E942D010895E4E10E942D01089512
:10018000E0E10E942D010895E7E10E942D0108950C
:10019000E6E00E942D010895EBE00E942D010895F4
:1001A000EDE00E942D010895EFE00E942D010895D9
:1001B000E1E10E942D010895E3E10E942D010895DF
:1001C000E5E10E942D010895E6E10E942D010895C8
:1001D00021968A929A92AA92BA92CA92DA92EA9254
:1001E000FA920A931A932197E0916B01F0916C01B6
:1001F0000080F181E02DC083D1830895C0916D010D
:10020000D0916E01E881F981C081D1812196199147
:100210000991F990E990D990C990B990A9909990D5
:100220008990219708952F903F90E7E6F1E0CDB7B0
:10023000DEB7EDBFFEBF3F922F9208952F903F9003
:10024000CDBFDEBF3F922F920895E0E80E942D01BE
:100250000895E0E40E942D0108952F923F924F925D
:100260005F926F927F922FB62F92CF93DF937E2E65
:10027000F894E0910001EF5FE0930001E13011F4A8
:100280000E941301E0E0E0937B01E72DE07849F064
:100290000E948A05F0917C01F17071F00E943D048A
:1002A0000BC0E72DEC3140F4EE0FF0E0EC51FD4FC8
:1002B0000190F081E02D0995F0917B01EF2FE17025
:1002C00059F0F27011F00E94E8008F938F2F0E9476
:1002D00085038F910E94FE00209100012150209300
:1002E0000001222311F40E941E01DF91CF912F9073
:1002F0002FBE7F906F905F904F903F902F9008950A
:10030000809136030895CF92DF92EF92FF920F9380
:100310001F93DC01EC91DB012C918E2F8170C82E94
:10032000D12CE12CF12C8E2F8F7090E0A0E0B0E06A
:10033000B695A79597958795DC01AD59BC4F8C91E3
:10034000C81AD108E108F108EE70422F417050E060
:1003500060E070E0822F8F7090E0A0E0B0E0B69592
:10036000A79597958795DC01AD59BC4F8C91481B9B
:10037000510961097109822F8E7097018601017000
:100380001127222733270E2B417055276627772701
:10039000482B81E090E0041715072607370710F077
:1003A00080E090E01F910F91FF90EF90DF90CF9051
:1003B00008958F929F92AF92BF92EF92FF920F9308
:1003C0001F93CF93DF937C014A015B01B694A794FE
:1003D000979487944230510561057105E0F0440F10
:1003E000551F8701040F151FE401CC0FDD1FCE0D33
:1003F000DF1DB801CE010E948301892B61F0F80155
:1004000090818181288139813183208398838983F8
:10041000B501A401DBCFDF91CF911F910F91FF9028
:10042000EF90BF90AF909F908F9008954F925F9202
:100430006F927F928F929F92AF92BF92CF92DF92F4
:10044000EF92FF920F931F93CF93DF9300D000D0D2
:1004500000D0CDB7DEB78C016A017B01DC018C9145
:10046000282F30E040E050E029833A834B835C83BF
:1004700046015701880C991CAA1CBB1C29813A8192
:100480004B815C81281539054A055B0508F442C09B
:10049000240135013FEF431A530A630A730A898125
:1004A0009A81AB81BC8184159505A605B70580F0BE
:1004B000B201660F771F600F711FC401880F991F6B
:1004C000800F911F0E948301892B11F0530142017B
:1004D0003401660C771C600E711ECC0CDD1CD8013B
:1004E000AC0DBD1DBE83AD83B301CD010E94830160
:1004F000892B81F0ED81FE8190818181D3012D9145
:100500003C911197318320839C9311968C937501B4
:100510006401AECF26960FB6F894DEBF0FBECDBFF6
:10052000DF91CF911F910F91FF90EF90DF90CF90CF
:10053000BF90AF909F908F907F906F905F904F9003
:100540000895E7E1F5E040814F5F408350E060E0CF
:1005500070E0E82FEE0FFF0BE856FD4F0190F081A1
:10056000E02D238530E0F901ED59FC4F9081915049
:100570009083FA01EE0FFF1FE95EFA4F220F331F3F
:100580009170292B2083818387E195E00C94D90118
:10059000E7E1F5E040814F5F408350E060E070E0CC
:1005A000E82FEE0FFF0BE057FD4F0190F081E02D9B
:1005B0009381FA01EE0FFF1FE95EFA4F908381836A
:1005C00087E195E00C94D901CF93DF93E7E1F5E063
:1005D00080819FEF980F9083D281C38190E0880F34
:1005E000991FDC01A95EBA4F8D919C919383828300
:1005F00041E050E060E070E0CF010E9416028D2FD4
:100600009C2FDF91CF91089580913603811114C002
:100610008091730190917401A0917501B091760160
:100620008F3F2FEF9207A207B20741F00397A10572
:10063000B10534F481E0089584E0089580E00895E0
:1006400082E00895880F990BFC01E856FD4F019058
:10065000F081E02D0084F185E02D3097E9F02281D2
:1006600021111AC021E02283DC01A057BD4F0D905B
:10067000BC91A02D13968C9113978183808190E07B
:10068000FC01ED59FC4F208121502083880F991FD8
:100690002170822B13968C930895880F990BFC017F
:1006A000E856FD4F0190F081E02D0084F185E02DAA
:1006B000309761F02281213049F412822181FC01BE
:1006C000E057FD4F0190F081E02D23830895809144
:1006D000770190917801A0917901B0917A014091D0
:1006E0007301509174016091750170917601481702
:1006F00059076A077B0741F0E0917101F09172019F
:1007000021E024830C94C8020895CF93DF938823BB
:1007100091F0C0916B01D0916C01E0916F01F0916B
:1007200070018481833049F081E08483809173017A
:100730000E94C80202C0C0E0D0E0E0917101F091D7
:100740007201F0937001E0936F0180916D019091BF
:100750006E0190936C0180936B01809177013091D1
:1007600078012091790190917A01809373013093FF
:100770007401209375019093760192E094830E9416
:100780002203CE01DF91CF910895809173010E94E1
:100790004D03E0916F01F09170018281882319F07F
:1007A00085E08483089514820895CF93DF93282FE2
:1007B000220F330BF901E057FD4FC081D1819A819F
:1007C000F901E856FD4F0190F081E02D2485921744
:1007D00070F4911105C095E09C8391E090937C01A9
:1007E0000E94A1028A818F5F8A8380E001C084E039
:1007F000DF91CF910895E82FEE0FFF0BE057FD4FEB
:100800000190F081E02D118210820C941F0E1F9335
:10081000CF93DF930E94E402182F892F492F092ECE
:10082000000C550B660B770B4093770150937801C2
:100830006093790170937A01292F220F330BF9010C
:10084000E057FD4FC081D181D0937201C0937101F7
:10085000F901E856FD4F2081318130936E012093DC
:100860006D019C81953019F40E94FB031B8310924B
:100870007C01DF91CF911F910895E0917701F09174
:100880007801EE0FFF1FE057FD4F0190F081E02D42
:10089000909119058381891730F40E9467030E94A3
:1008A000070483E001C080E080937B01089581E02C
:1008B00080937B010C940704EF92FF920F931F9398
:1008C000CF93DF93C1E001C0CC0F8A95EAF783E0B4
:1008D0000E94D50300EE12E0D0E0F80181918F0173
:1008E0008C2319F08D2F0E94D503DF5FD330A9F739
:1008F0000DED12E08FE6E82E82E0F82ED1E0F8014F
:1009000081918F018C2339F0F70180819181FC0165
:10091000D6870E94C304F2E0EF0EF11C82E0003E95
:10092000180769F7DF91CF911F910F91FF90EF901A
:1009300008950E947B0681110E949C06E0916F0140
:10094000F091700180819181892B21F08091730158
:100950000E94AD080C94D2070E947B0681110E9470
:100960009C06E0916F01F091700180819181892B4B
:1009700021F0809173010E94AD080C94AC0781E0D6
:10098000809337030895AF92BF92CF92DF92EF9298
:10099000FF920F931F93CF93DF93FC01A081B1814E
:1009A000AD90BC90E501AC89BD89109739F04285C6
:1009B00053856485758530E020E017C0D5015596D4
:1009C0009C938E93549757969C938E93569715822B
:1009D0001482138212825BC012968D919C911397A0
:1009E0003A2F2B2F009779F0DC011A96CD90DD90ED
:1009F000ED90FC901D974C155D056E057F0560F729
:100A0000CD01A32FB22F93838283B583A483009754
:100A100019F0EC01FD83EC83109729F01396FC93F9
:100A2000EE93129705C0D5015596FC93EE9354971B
:100A3000E501AE89BF891A968D919D910D90BC916B
:100A4000A02D088919892A893B8980179107A20757
:100A5000B30780F4041715072607370728F048174F
:100A600059076A077B0798F4D5015796FC93EE93D4
:100A700056970DC0041715072607370740F4481787
:100A800059076A077B0718F4E501FF8BEE8BDF91AE
:100A9000CF911F910F91FF90EF90DF90CF90BF907B
:100AA000AF900895CF93DF93DC01ED91FC91119706
:100AB0000190F081E02D848995891296CD91DC9189
:100AC0001397A817B90711F4D58BC48B868997891A
:100AD000A817B90711F4D78BC68B209731F014965D
:100AE0008D919C9115979D838C8314960D90BC914C
:100AF000A02D109721F01396DC93CE931297868940
:100B00009789892B21F484899589978B868BDF912E
:100B1000CF910895EF92FF920F931F93CF93DF939E
:100B2000FC0180913703882309F4B5C0848595853D
:100B3000A685B7850196A11DB11D84879587A687D7
:100B4000B787408151816281738184179507A60719
:100B5000B70709F0A0C040895189628973894F5F46
:100B60005F4F6F4F7F4F84819581A681B781841736
:100B70009507A607B70718F440E050E0BA01408B8C
:100B8000518B628B738B1486158616861786C689E1
:100B9000D789209709F47FC08A859B85AC85BD8560
:100BA000481759076A077B0709F075C0CE01DC01B9
:100BB0001296ED90FC901397E114F10471F0D701B7
:100BC0001A960D911D912D913C911D97401751073B
:100BD0006207730711F4C701EACF2C813D8121150B
:100BE000310529F0D9011396FC92EE921297E11487
:100BF000F10429F0D70115963C932E93149724897C
:100C00003589C217D30711F4F58AE48AE114F10497
:100C100019F0F78AE68A04C024893589378B268B38
:100C20008F01FC0113821282EA80FB80E881F98146
:100C30000280F381E02DCE0109954E815F816885A8
:100C40007985411551056105710509F18A859B85F5
:100C5000AC85BD85840F951FA61FB71FF801448181
:100C6000558166817781481759076A077B0738F4F1
:100C7000841B950BA60BB70B0197A109B1098A87B5
:100C80009B87AC87BD87CE010E94C30401C01E862E
:100C9000E701209749F6DF91CF911F910F91FF90C7
:100CA000EF900895FC0182810C94D5030E947B068D
:100CB000809168010895CF93C82F0E940403811189
:100CC0000AC0C09368018C2F0E945C040E94BF047C
:100CD000CF910C945704CF9108950C941E0ECF938E
:100CE000C82F0E940403811102C00E945B0E8C2F4A
:100CF000CF910C948C00809144038130D9F0809185
:100D00003C0390913D03A0913E03B0913F03892B9A
:100D10008A2B8B2B79F481E0409140035091410361
:100D20006091420370914303452B462B472B19F4E6
:100D300080E0089581E008951092440310924003EA
:100D400010924103109242031092430310923C030D
:100D500010923D0310923E0310923F03809138039E
:100D600090913903A0913A03B0913B0380934503DE
:100D700090934603A0934703B093480308950E94BD
:100D80005E0E8091450390914603A0914703B09178
:100D900048030196A11DB11D80934503909346031E
:100DA000A0934703B093480380914003909141037F
:100DB000A0914203B09143030196A11DB11D809300
:100DC000400390934103A0934203B09343030895DB
:100DD0008091400390914103A0914203B09143035D
:100DE0000097A105B10569F1409145035091460373
:100DF000609147037091480341505109610971099D
:100E00004093450350934603609347037093480310
:100E10000197A109B1098093400390934103A093E6
:100E20004203B09343038091450390914603A09100
:100E30004703B0914803892B8A2B8B2B11F40C9418
:100E40005C0E08958091400390914103A09142036C
:100E5000B0914303892B8A2B8B2B89F480913C031F
:100E600090913D03A0913E03B0913F03892B8A2BC3
:100E70008B2B29F40E945E0E81E080934403089539
:100E800080914403882321F0109244030C945C0E5B
:100E900008950E94620E8091450390914603A091AF
:100EA0004703B09148030196A11DB11D80934503EE
:100EB00090934603A0934703B093480380913C036B
:100EC00090913D03A0913E03B0913F030196A11D77
:100ED000B11D80933C0390933D03A0933E03B093D8
:100EE0003F03089580913C0390913D03A0913E0300
:100EF000B0913F030097A105B10569F14091450309
:100F00005091460360914703709148034150510945
:100F10006109710940934503509346036093470369
:100F2000709348030197A109B10980933C03909302
:100F30003D03A0933E03B0933F03809145039091FE
:100F40004603A0914703B0914803892B8A2B8B2B32
:100F500011F40C94600E08950E947B06882311F012
:100F600083E1089582E00895CF93C82F0E947B0605
:100F7000811106C00E948001882321F0C2E00FC0C9
:100F8000C3E10DC0C33010F0C3E009C08C2F0E9434
:100F9000D503C82F80917C0181110E943D048C2FC4
:100FA000CF910895CF930E947B06811107C00E94C4
:100FB0000403C82F813021F082E016C083E114C001
:100FC000E0916F01F091700180819181892B11F086
:100FD00086E00AC08281815082830E94C503C0934B
:100FE0007B010E94070480E0CF910895CF93DF93A7
:100FF000C82F0E947B06811109C00E940403D82FCC
:10100000813031F4C33030F0C3E025C0C3E123C0E8
:10101000C2E021C0E0916F01F09170018081918167
:10102000892BC1F48281815082838C2F0E94D50349
:10103000C82F811107C00E94C503D0937B010E9475
:10104000070409C0E0916F01F091700182818F5F08
:10105000828301C0C6E08C2FDF91CF9108950E945A
:101060007B06811106C00E940403813021F082E0DA
:10107000089583E10895E0916F01F09170018081FE
:101080009181892B11F086E00895809173010E946F
:101090004D030E943D048091730190917401A091D1
:1010A0007501B0917601409177015091780160917E
:1010B000790170917A0184179507A607B70711F493
:1010C0000E94220380E00895CF93DF93EC010E94F9
:1010D0007B06811116C00E948001811114C080918D
:1010E000730190917401A0917501B09176018330E4
:1010F0009105A105B10514F08091E001888380E09D
:1011000003C083E101C082E0DF91CF9108950F9386
:101110001F93CF93C82F8B010E947B06811106C0BD
:101120000E948001882321F082E013C083E111C076
:10113000C33010F083E00DC0EC2FEE0FFF0BE05733
:10114000FD4F0190F081E02D84818370F801808350
:1011500080E0CF911F910F910895880F990BFC01AA
:10116000E057FD4FA081B181ED91FC91119730972F
:1011700069F01D921C922091E00193818481228369
:1011800014821382E92FF82F3097B9F70895CF937F
:10119000C82F0E947B06811108C00E948001811126
:1011A00006C0C23030F083E045C083E143C082E036
:1011B00041C0EC2FF0E0EE0FFF1FE852FD4F019011
:1011C000F081E02D92818091E001981309C0A091F7
:1011D0006B01B0916C011B969C918081891710F472
:1011E00081E028C0809173018283A0916F01B0914A
:1011F00070018D919C911197948383831196FC9338
:10120000EE9313968C9113978183808113969C9112
:1012100013979695981768F490E0FC01ED59FC4FF0
:10122000208121502083880F991F2170822B1396D3
:101230008C9380E0CF910895CF93C82F0E947B06B6
:10124000811106C00E948001882321F082E036C00F
:1012500083E134C0C23010F083E030C0EC2FF0E006
:10126000EE0FFF1FE852FD4F0190F081E02DA0919D
:101270006B01B0916C011B969C9180818917D8F00D
:10128000A0916F01B09170018D919C911197E81719
:10129000F90799F4818113968C9313978381948134
:1012A0008D939C93148213828091E00182830E942B
:1012B0003D0480E003C081E001C085E0CF91089546
:1012C000DC01ED91FC9184819581DC01ED91FC9133
:1012D00009940F931F93CF93DF93C82F8B010E9424
:1012E0007B06811106C00E948001882321F082E0E4
:1012F0002FC083E12DC0C33010F083E029C0EC2F54
:10130000F0E0EE0FFF1FE159FD4F0190F081E02D5D
:101310000190F081E02D0190F081E02D808191819C
:10132000A281B381E8018C839D83AE83BF838481D6
:101330009581A681B78188839983AA83BB838085A1
:101340009185A285B38588879987AA87BB8780E026
:10135000DF91CF911F910F910895CF92DF92EF927D
:10136000FF920F931F93CF93C82F8B010E947B0690
:10137000811107C00E948001811105C0C330C8F5EA
:1013800004C083E137C082E035C0EC2FF0E0EE0FFF
:10139000FF1FE159FD4F0190F081E02D86858130DE
:1013A00031F582859385A485B5850190F081E02D86
:1013B0000190F081E02D40895189628973898417F9
:1013C0009507A607B70740F4C480D580E680F7806C
:1013D0008C0D9D1DAE1DBF1D841B950BA60BB70B61
:1013E000F80180839183A283B38380E003C085E00A
:1013F00001C083E0CF911F910F91FF90EF90DF909C
:10140000CF9008958F929F92AF92BF92CF92DF922A
:10141000EF92FF920F931F93CF93DF93C82F6A0130
:101420007B01480159010E947B06811107C00E947F
:101430008001811105C0C330E8F404C083E15AC0C3
:1014400082E058C0EC2FF0E0EE0FFF1FE159FD4F96
:101450000190F081E02DA081B181CD91DC918C8152
:101460009D81AE81BF818C159D05AE05BF0508F439
:1014700040C002C083E03EC081149104A104B104C5
:1014800071F088159905AA05BB0598F1488559851D
:101490006A857B8584169506A606B70650F12685D3
:1014A000211125C0488959896A897B89C40ED51EB6
:1014B000E61EF71E8C159D05AE05BF0548F4C81A3B
:1014C000D90AEA0AFB0A81E0C81AD108E108F10842
:1014D000C286D386E486F58686829782A086B18608
:1014E00081E08687CF010E94C30480E003C087E0CB
:1014F00001C088E0DF91CF911F910F91FF90EF9095
:10150000DF90CF90BF90AF909F908F9008958F9273
:101510009F92AF92BF92CF92DF92EF92FF920F9382
:101520001F93CF93C82F6A017B01480159010E9484
:101530007B06811108C00E948001811106C0C33062
:1015400030F083E047C083E145C082E043C0EC2F28
:10155000F0E0EE0FFF1FE159FD4F0190F081E02D0B
:10156000A081B1810D90BC91A02D14964D915D91FB
:101570006D917C9117974C155D056E057F05A8F060
:1015800081149104A104B10491F0481559056A052C
:101590007B0558F018968D919D910D90BC91A02DD2
:1015A00088169906AA06BB0610F488E013C0868543
:1015B00081110FC0C286D386E486F5868682978223
:1015C000A086B18681E08687CF010E94C30480E0B7
:1015D00001C087E0CF911F910F91FF90EF90DF90B6
:1015E000CF90BF90AF909F908F900895CF93DF934F
:1015F000C82F0E947B06811106C00E9480018823AB
:1016000021F082E018C083E116C0C33010F083E0FF
:1016100012C0EC2FF0E0EE0FFF1FE159FD4FC0812B
:10162000D1818E85813031F4CE010E9452051E8613
:1016300080E001C085E0DF91CF91089560E08EE009
:101640000E94030D61E08DE00E94030D26E040E85A
:1016500055E260E070E088E793E00C9470100F931F
:101660001F93CF93DF93CDB7DEB7C054D1090FB628
:10167000F894DEBF0FBECDBF8EE00E94000E9093A7
:101680005203809351038091DC020E94CC00809130
:101690005103909152039C012A5031098E010F5F32
:1016A0001F4F2C3E334058F021E030E03093580378
:1016B000209357039F938F9381EE91E008C010927F
:1016C0005803109257039F938F9388EF91E09F9355
:1016D0008F931F930F930E94D8100F900F900F902D
:1016E0000F900F900F9080915303909154030597A2
:1016F0003CF066E072E088E793E00E940B0F2DC09B
:10170000E0914F03F0915003EE0FFF1FE75AFC4F9B
:10171000809151039091520391838083B80188E7AF
:1017200093E00E940B0F8091530390915403019614
:1017300090935403809353038091DC020E94D00065
:1017400080914F0390915003019665E070E00E94F4
:101750008B139093500380934F030E94B400C05C9E
:10176000DF4F0FB6F894DEBF0FBECDBFDF91CF9134
:101770001F910F9108959F92AF92BF92CF92DF92E7
:10178000EF92FF920F931F93CF93DF93CDB7DEB706
:10179000C054D1090FB6F894DEBF0FBECDBF95E09F
:1017A000C92ED12C0FE017E221EFE22E28EDF22E08
:1017B0009090DC0235E0A32EB12C809153039091E0
:1017C0005403181619066CF5892D0E94CC00E0917F
:1017D0004D03F0914E03EE0FFF1FE75AFC4F80813F
:1017E0009181E816F9060CF47C01801791070CF43E
:1017F0008C0180915303909154030197909354036B
:1018000080935303892D0E94D00080914D039091C5
:101810004E030196B5010E948B1390934E03809363
:101820004D0321E0C21AD10841F6B090DC028B2DA5
:101830000E94CC00C701801B910B9E012F5F3F4F80
:101840006901853F31E093077CF021E030E030937F
:101850005603209355039F938F93FF92EF921F930C
:101860000F938CE192E00CC0109256031092550336
:101870009F938F93FF92EF921F930F938AE492E0CE
:101880009F938F93DF92CF920E94D8100FB6F89457
:10189000DEBF0FBECDBFB60188E793E00E940B0FFD
:1018A0008B2D0E94D0000E94B400C05CDF4F0FB6A9
:1018B000F894DEBF0FBECDBFDF91CF911F910F9186
:1018C000FF90EF90DF90CF90BF90AF909F900895E2
:1018D000CF93C091DC028C2F0E94CC0080915703E3
:1018E00090915803892BA1F060914B038DE00E94E9
:1018F0003F0D81E090E020914B0330914C03232B6E
:1019000011F080E090E090934C0380934B0338C03B
:101910008091550390915603892B71F18091490371
:1019200090914A03049794F18091690190916A0122
:10193000892B31F081E090E090934C0380934B032E
:1019400060914B038DE00E943F0D81E090E020917B
:101950004B0330914C03232B11F080E090E09093E7
:101960004C0380934B0310924A0310924903109248
:101970006A01109269010AC060E08DE00E943F0D8B
:1019800081E090E090936A01809369018C2F0E941E
:10199000D0008091490390914A03019690934A03A5
:1019A00080934903CF910C94B40089EB91E00C949F
:1019B00025010895833081F028F4813099F0823038
:1019C000A1F008958730A9F08830B9F08430D1F4BF
:1019D000809180008F7D03C0809180008F778093FD
:1019E0008000089584B58F7702C084B58F7D84BD53
:1019F00008958091B0008F7703C08091B0008F7DF3
:101A00008093B0000895CF93DF9390E0FC01E458F9
:101A1000FF4F2491FC01E057FF4F8491882361F12F
:101A200090E0880F991FFC01E255FF4FC591D491BA
:101A3000FC01EC55FF4FA591B491611109C09FB70E
:101A4000F8948881209582238883EC912E230BC003
:101A5000623061F49FB7F8948881322F30958323E8
:101A60008883EC912E2B2C939FBF06C08FB7F894E0
:101A7000E8812E2B28838FBFDF91CF9108951F938C
:101A8000CF93DF93282F30E0F901E859FF4F84917D
:101A9000F901E458FF4FD491F901E057FF4FC49189
:101AA000CC23C1F0162F81110E94DA0CEC2FF0E04C
:101AB000EE0FFF1FEC55FF4FA591B4919FB7F8941F
:101AC000111104C08C91D095D82302C0EC91DE2B6B
:101AD000DC939FBFDF91CF911F9108951F920F92CA
:101AE0000FB60F9211242F933F934F935F936F93F1
:101AF0007F938F939F93AF93BF93EF93FF938091C7
:101B00006F0390917003A0917103B09172033091B3
:101B10006E0323E0230F2D3720F40196A11DB11D84
:101B200005C026E8230F0296A11DB11D20936E0368
:101B300080936F0390937003A0937103B09372032B
:101B40008091730390917403A0917503B091760313
:101B50000196A11DB11D8093730390937403A0930C
:101B60007503B09376030E94D50CFF91EF91BF915E
:101B7000AF919F918F917F916F915F914F913F9125
:101B80002F910F900FBE0F901F90189584B5826013
:101B900084BD84B5816084BD85B5826085BD85B511
:101BA000816085BDEEE6F0E0808181608083E1E8C0
:101BB000F0E01082808182608083808181608083F8
:101BC000E0E8F0E0808181608083E1EBF0E08081FB
:101BD00084608083E0EBF0E0808181608083EAE7CD
:101BE000F0E0808184608083808182608083808156
:101BF000816080838081806880831092C100089515
:101C00008E3008F08E502091DB0190E4299F9001E6
:101C100011248770822B80937C0080917A008064ED
:101C200080937A0080917A0086FDFCCF80917800C5
:101C30002091790090E0922B0895FFCFFFCFCF93B2
:101C4000DF93880F990BFC01E856FD4FC081D181CD
:101C5000AC81BD8111978A819B81A80FB91F2D8509
:101C6000CD010197FD013297223019F42CEA30E0C2
:101C700002C028EC30E02C93DC013C939E818F81E4
:101C80009083DF018E93CF0107971E928A179B07DF
:101C9000E1F780E8DF0118978C93CF0144971E92FB
:101CA0008A179B07E1F7A881B9817597ED93FC939B
:101CB000DF91CF910895089578940895F894089548
:101CC00078940895F894089508950E94C60D0E948E
:101CD000640E0E94D90C0E941E0B809177030E9413
:101CE0006F0680E090E008958091E302809377038F
:101CF000089508951F920F920FB60F9211242F93FB
:101D00003F934F935F936F937F938F939F93AF9383
:101D1000BF93EF93FF93E091DC01F091DD01099512
:101D2000FF91EF91BF91AF919F918F917F916F91B3
:101D30005F914F913F912F910F900FBE0F901F9089
:101D400018951F920F920FB60F9211242F933F9365
:101D50004F935F936F937F938F939F93AF93BF93B3
:101D6000EF93FF93E091DE01F091DF010995FF9180
:101D7000EF91BF91AF919F918F917F916F915F9103
:101D80004F913F912F910F900FBE0F901F9018957C
:101D9000CF92DF92EF92FF920F931F93CF93DF9337
:101DA0006C017A018B01C0E0D0E0CE15DF0581F037
:101DB000D8016D918D01D601ED91FC910190F081DA
:101DC000E02DC6010995892B11F02196EECF7E01F9
:101DD000C701DF91CF911F910F91FF90EF90DF909E
:101DE000CF9008956115710579F0FB0101900020F5
:101DF000E9F73197AF01461B570BDC01ED91FC91E0
:101E00000280F381E02D099480E090E0089564E180
:101E100073E00C94F20E0F931F93CF93DF93EC01BA
:101E20000E94F20E8C01CE010E94070F800F911FBD
:101E3000DF91CF911F910F9108951F920F920FB6CE
:101E40000F9211242F938F939F93EF93FF93E09121
:101E50008803F09189038081E0918E03F0918F03D4
:101E600082FD12C09081809191038F5F8F732091CA
:101E70009203821751F0E0919103F0E0E858FC4F93
:101E8000958F8093910301C08081FF91EF919F9185
:101E90008F912F910F900FBE0F901F9018951F924A
:101EA0000F920FB60F9211242F933F934F935F938E
:101EB0006F937F938F939F93AF93BF93EF93FF9312
:101EC00088E793E00E94DF0FFF91EF91BF91AF9100
:101ED0009F918F917F916F915F914F913F912F9142
:101EE0000F900FBE0F901F901895E8E7F3E0138254
:101EF000128288EE93E0A0E0B0E084839583A6830D
:101F0000B78387E293E09183808385EC90E09587A7
:101F1000848784EC90E09787868780EC90E0918BB3
:101F2000808B81EC90E0938B828B82EC90E0958BA0
:101F3000848B86EC90E0978B868B118E128E138E9D
:101F4000148E0895FC01918D228D892F90E0805C84
:101F50009F4F821B91098F7399270895FC01918DE2
:101F6000828D981731F0828DE80FF11D858D90E0FC
:101F700008958FEF9FEF0895FC01918D828D981742
:101F800061F0828DDF01A80FB11D5D968C91928D5D
:101F90009F5F9F73928F90E008958FEF9FEF08955A
:101FA000FC01538D448D252F30E0842F90E0821B5F
:101FB000930B541710F0CF96089501970895FC01E4
:101FC000848DDF01A80FB11DA35ABF4F2C91848DC2
:101FD00090E001968F739927848FA689B7892C93F7
:101FE000A089B1898C91837080648C93938D848D4A
:101FF000981306C00288F389E02D80818F7D80834D
:102000000895EF92FF920F931F93CF93DF93EC010C
:1020100081E0888F9B8D8C8D981305C0E889F989A4
:10202000808185FD26C0F62E0B8D10E00F5F1F4FBF
:102030000F731127E02E8C8DE8120CC00FB607FC31
:10204000FACFE889F989808185FFF5CFCE010E941A
:10205000DF0FF1CF8B8DFE01E80FF11DE35AFF4F2B
:10206000F0829FB7F8940B8FEA89FB8980818062A8
:102070000AC09FB7F894EE89FF896083E889F989DF
:1020800080818370806480839FBF81E090E0DF91D6
:10209000CF911F910F91FF90EF900895CF93DF9311
:1020A000EC01888D8823C9F0EA89FB89808185FD50
:1020B00005C0A889B9898C9186FD0FC00FB607FCB1
:1020C000F5CF808185FFF2CFA889B9898C9185FFF2
:1020D000EDCFCE010E94DF0FE7CFDF91CF910895C2
:1020E000CF92DF92EF92FF921F93CF93DF93EC0199
:1020F0006A017B01122FE889F98982E0808341150A
:10210000514E61057105B1F060E079E08DE390E03A
:10211000A70196010E949F13DA01C9010197A10945
:10212000B109B695A795979587959C01211580E1F2
:102130003807A8F0E889F989108260E874E88EE130
:1021400090E0A70196010E949F13DA01C90101974F
:10215000A109B109B695A795979587959C01EC853E
:10216000FD853083EE85FF852083188EEC89FD89FF
:102170001083EA89FB89808180618083EA89FB89F9
:10218000808188608083EA89FB8980818068808380
:10219000EA89FB8980818F7D8083DF91CF911F91B8
:1021A000FF90EF90DF90CF900895F8940C94121464
:1021B000AEE0B0E0EEEDF0E10C94CF130D891E8996
:1021C00086E08C831A8309838FEF9FE79E838D833C
:1021D000AE01475E5F4F6F89788DCE0101960E94F8
:1021E000FA10EF81F885E00FF11F10822E96E4E0DF
:1021F0000C94EB13ABE0B0E0E0E0F1E10C94C11320
:102200006C017B018A01FC0117821682838181FFA8
:10221000CCC1CE0101963C01F6019381F70193FDFB
:10222000859193FF81917F01882309F4BAC185329A
:1022300039F493FD859193FF81917F01853229F4D3
:10224000B60190E00E94F112E7CF912C212C312CA5
:10225000FFE1F315D8F08B3279F038F4803279F061
:102260008332A1F4232D20611DC08D3261F08033B3
:1022700069F4232D216016C0832D8260382EE32D52
:10228000E4603E2E2AC0F32DF8601DC037FC2DC03F
:1022900020ED280F2A3040F08E32B9F436FC81C18F
:1022A000232D2064322E19C036FE06C08AE0989E87
:1022B000200D1124922E11C0EAE02E9E200D112433
:1022C000222EF32DF0623F2E08C08C3621F4832D90
:1022D0008068382E02C0883641F4F70193FD85915D
:1022E00093FF81917F018111B3CF982F9F7D9554EA
:1022F000933028F40C5F1F4F9FE399830DC0833602
:1023000031F0833771F0833509F059C021C0F801ED
:10231000808189830E5F1F4F88248394912C530101
:1023200013C02801F2E04F0E511CF801A080B180CB
:1023300036FE03C0692D70E002C06FEF7FEFC5016C
:102340000E94E6124C018201F32DFF773F2E16C04A
:10235000280122E0420E511CF801A080B18036FE17
:1023600003C0692D70E002C06FEF7FEFC5010E94CE
:10237000DB124C01F32DF0683F2E820133FC1BC0B1
:10238000822D90E088169906B0F4B60180E290E0C4
:102390000E94F1122A94F4CFF50137FC859137FEA3
:1023A00081915F01B60190E00E94F11221102A9400
:1023B00021E0821A91088114910471F7E8C08436F3
:1023C00011F0893641F5F80137FE07C0608171814F
:1023D000828193810C5F1F4F08C060817181072E3D
:1023E000000C880B990B0E5F1F4FF32DFF763F2ECD
:1023F00097FF09C090958095709561957F4F8F4F9D
:102400009F4FF0683F2E2AE030E0A3010E942D1379
:10241000882E861845C0853731F4232D2F7EB22EA5
:102420002AE030E025C0932D997FB92E8F36C1F078
:1024300018F4883579F0B5C0803719F0883721F065
:10244000B0C0E92FE061BE2EB4FE0DC0FB2DF460DC
:10245000BF2E09C034FE0AC0292F2660B22E06C046
:1024600028E030E005C020E130E002C020E132E0A9
:10247000F801B7FE07C060817181828193810C5F92
:102480001F4F06C06081718180E090E00E5F1F4F9A
:10249000A3010E942D13882E8618FB2DFF773F2E57
:1024A00036FE0DC0232D2E7FA22E891458F434FE43
:1024B0000BC032FC09C0832D8E7EA82E05C0B82C1F
:1024C000A32C03C0B82C01C0B92CA4FE0FC0FE0180
:1024D000E80DF11D8081803321F49A2D997EA92E7B
:1024E00009C0A2FE06C0B394B39404C08A2D8678B6
:1024F00009F0B394A3FC11C0A0FE06C0B21488F486
:10250000280C922C9B180EC0B21460F4B60180E225
:1025100090E00E94F112B394F7CFB21418F42B1884
:1025200002C0982C212CA4FE10C0B60180E390E0DC
:102530000E94F112A2FE17C0A1FC03C088E790E040
:1025400002C088E590E0B6010CC08A2D867859F06B
:10255000A1FE02C08BE201C080E2A7FC8DE2B601C1
:1025600090E00E94F112891438F4B60180E390E003
:102570000E94F1129A94F7CF8A94F301E80DF11DAD
:102580008081B60190E00E94F1128110F5CF2220E7
:1025900009F442CEB60180E290E00E94F1122A9442
:1025A000F6CFF6018681978102C08FEF9FEF2B96C1
:1025B000E2E10C94DD13FC010590615070400110C4
:1025C000D8F7809590958E0F9F1F0895FC0161505C
:1025D000704001900110D8F7809590958E0F9F1F45
:1025E00008950F931F93CF93DF93FB01238121FD68
:1025F00003C08FEF9FEF2CC022FF16C0468157818A
:10260000248135814217530744F4A081B1819D0193
:102610002F5F3F4F318320838C93268137812F5F3B
:102620003F4F3783268314C08B01EC01FB010084EC
:10263000F185E02D0995892BE1F6D80116968D914B
:102640009C911797019617969C938E931697CE019F
:10265000DF91CF911F910F910895FA01AA27283099
:1026600051F1203181F1E8946F936E7F6E5F7F4F5F
:102670008F4F9F4FAF4FB1E03ED0B4E03CD0670FDB
:10268000781F891F9A1FA11D680F791F8A1F911D2E
:10269000A11D6A0F711D811D911DA11D20D009F47E
:1026A00068943F912AE0269F11243019305D3193C0
:1026B000DEF6CF010895462F4770405D4193B3E0A9
:1026C0000FD0C9F7F6CF462F4F70405D4A3318F050
:1026D000495D31FD4052419302D0A9F7EACFB4E001
:1026E000A6959795879577956795BA95C9F70097B9
:1026F0006105710508959B01AC010A2E069457955A
:10270000479537952795BA95C9F7620F731F841FB0
:10271000951FA01D089597FB072E16F4009407D06F
:1027200077FD09D00E94F81307FC05D03EF4909580
:1027300081959F4F0895709561957F4F0895A1E20F
:102740001A2EAA1BBB1BFD010DC0AA1FBB1FEE1F2B
:10275000FF1FA217B307E407F50720F0A21BB30B76
:10276000E40BF50B661F771F881F991F1A9469F7F2
:1027700060957095809590959B01AC01BD01CF014E
:1027800008952F923F924F925F926F927F928F9215
:102790009F92AF92BF92CF92DF92EF92FF920F93F0
:1027A0001F93CF93DF93CDB7DEB7CA1BDB0B0FB6FA
:1027B000F894DEBF0FBECDBF09942A8839884888B7
:1027C0005F846E847D848C849B84AA84B984C8844D
:1027D000DF80EE80FD800C811B81AA81B981CE0F44
:1027E000D11D0FB6F894DEBF0FBECDBFED01089529
:1027F000AA1BBB1B51E107C0AA1FBB1FA617B70727
:1028000010F0A61BB70B881F991F5A95A9F7809542
:102810009095BC01CD010895EE0FFF1F0590F49136
:08282000E02D0994F894FFCFAC
:1028280000000000000000000000000000000000A0
:102838000000000000000000000000000000000090
:102848000000000000000000000000000000000080
:102858000000000000000000000000000000000070
:102868000000000000000000000000000000000060
:102878000000000000000000000000000000000050
:102888000000000000000000FF01000000CA020074
:10289800006903FFFFFFFFFFFFFFFF000075020055
:1028A8000000007A0000007A000000027E020000AA
:1028B80000006200000062000000028702000000C1
:1028C80000E8010000E80100000200000003040025
:1028D80000000200000000010401000000FFFF00EA
:1028E80000010000000000000000000000000000DF
:1028F800000400FF00000400FF000001790E790EBB
:10290800FF533A204E65772058203D202564202D1E
:102918003E204552524F5200533A204E6577205878
:10292800203D202564004552524F523A205175658A
:102938007565204F766572666C6F77000909423AB3
:10294800204E203D20256420207C20204D203D2045
:1029580025640A09092020204D2D4E203D2025649C
:10296800202D3E20414C41524D000909423A204E4B
:10297800203D20256420207C20204D203D202564FA
:102988000A09092020204D2D4E203D202564009B5A
:10299800018C017D01B90160097B02520600B90171
:1029A80060098402520602B90160098D02520601CB
:1029B800B401AF01AA016903BC02AE02A002CA02B7
:1029C8007507170400012F0B00000203010015040E
:1029D80023050001BB0B0000010201007707750603
:1029E8000001680C000000010100230625065000C4
:1029F8001D0E000003000100D601D10100010101F4
:102A0800010001007207400749072207AC04BF060E
:102A18009904E806D2075B066D06C708B4071C09C7
:102A2800F60769096408AD095606020A2F08870ADD
:102A3800F60A87080D0A006E616E00696E66006FFF
:102A4800766600000000000110C80ED00F4E10A2DC
:062A58000FBC0FAE0F00E1
:00000001FF
